SPE1C125T26758460014842194                                    701353607809/08/25SPE1C125T2675.pdf  0000010EASUITCASE             DMR01Z1N000
SPE1C125T26768455014680564                                    701355613209/08/25SPE1C125T2676.pdf  0006000PRINSIGNIA,RANK,OFFIC  PSPTPG1Y100
SPE1C125T26778305011159168                                    701356074509/08/25SPE1C125T2677.pdf  0044000YDCLOTH,PARACHUTE      DNH00G1Y100
SPE1C125T26788415015197759                                    701354137209/08/25SPE1C125T2678.pdf  0000008EAHELMET,FOOTBALL      DRZ00Z1N000
SPE1C125T26798415015197763                                    701354243609/08/25SPE1C125T2679.pdf  0000012EAHELMET,FOOTBALL      DRZ00Z1N000
SPE1C125T26808465016131241                                    701354321009/08/25SPE1C125T2680.pdf  0000002EACARABINER,PULLEY     DMR01D1N000
SPE1C125T26808465016131241                                    701354539809/08/25SPE1C125T2680.pdf  0000002EACARABINER,PULLEY     DMR01D1N000
SPE1C125T26818415015197765                                    701354321409/08/25SPE1C125T2681.pdf  0000008EAHELMET,FOOTBALL      DRZ00Z1N000
SPE1C125T26828465015153155                                    701354440309/08/25SPE1C125T2682.pdf  0000007EASTRAP,INVOLUNTARY,R  DMR01D1N000
SPE2DH25Q01546530014657011                                    701353988109/03/25SPE2DH25Q0154.pdf  0000001PGTAPE,MEASURING RESU  DCZ00Z1N000
SPE2DH25Q01556520007219355                                    701303244209/03/25SPE2DH25Q0155.pdf  0000010PGBAND,MATRIX,DENTAL   DAS03Z1N000
SPE2DH25Q01556520007219355                                    701308707409/03/25SPE2DH25Q0155.pdf  0000004PGBAND,MATRIX,DENTAL   DAS03Z1N000
SPE2DH25Q01556520007219355                                    701328762109/03/25SPE2DH25Q0155.pdf  0000001PGBAND,MATRIX,DENTAL   DAS03Z1N000
SPE2DH25T60866630016791832                                    701352866009/03/25SPE2DH25T6086.pdf  0000001EAANALYZER,GAS         PDPSHZ1N000
SPE2DH25T60876630013134838                                    701352338809/03/25SPE2DH25T6087.pdf  0000001PGTUBE,AIR SAMPLE      PDPSHZ1N000
SPE2DH25T60886630002449987                                    701351772609/03/25SPE2DH25T6088.pdf  0000001EAHYDROMETER,GRADUATE  DKF00Z1N000
SPE2DH25T60896520017058108                                    701335866809/03/25SPE2DH25T6089.pdf  0000001EASOLDER,GOLD,DENTAL   DRR01Z1N000
SPE2DH25T60906640016091715                                    701236985809/03/25SPE2DH25T6090.pdf  0000001PGTEST TUBE,BLOOD COL  DAS03Z1N000
SPE2DH25T60916630001274774                                    701353710909/03/25SPE2DH25T6091.pdf  0000002EACONDUCTIVITY METER   PDPSHZ1N000
SPE2DH25T60926520017175233                                    701354771809/03/25SPE2DH25T6092.pdf  0000003EASTEAM CLEANER,DENTA  PDPSHZ1N000
SPE2DH25T60936640008891834                                    701355616409/03/25SPE2DH25T6093.pdf  0000100EABEAKER,LABORATORY    PDPSHZ1N000
SPE2DH25T60946530016311653                                    701353907509/03/25SPE2DH25T6094.pdf  0000004PGROD,INTRAVENOUS-IRR  PDPSHZ1N000
SPE2DH25T60956520016120605                                    701353925009/03/25SPE2DH25T6095.pdf  0000002BXORAL EXAMINATION KI  PDPSHZ1N000
SPE2DH25T60966910015409808                                    701353925809/03/25SPE2DH25T6096.pdf  0000040EANEEDLE SET,TRAINING  PDPSHZ1N000
SPE2DH25T60976630014824377                                    701356090509/03/25SPE2DH25T6097.pdf  0000001EACHIP,NITROGEN DIOXI  PDPSHZ1N000
SPE2DH25T60986530008651950                                    701356090209/03/25SPE2DH25T6098.pdf  0000001PGIRRIGATION KIT,PATI  PDPSHZ1N000
SPE2DH25T60996640016445154                                    701356090609/03/25SPE2DH25T6099.pdf  0000006PGSWAB TEST,SANITATIO  PDPSHZ1N000
SPE2DH25T61006630014824383                                    701353037809/03/25SPE2DH25T6100.pdf  0000001EACHIP,PHOSGENE        PDPSHZ1N000
SPE2DH25T61016530017179330                                    701353942809/03/25SPE2DH25T6101.pdf  0000007BXBOTTLE,DROPPER       PDPSHZ1N000
SPE2DH25T61026532013460190                                    701356174909/03/25SPE2DH25T6102.pdf  0000001PGMASK,FACE,ASEPTIC    PDPSHZ1N000
SPE2DH25T61036530015615482                                    701354256609/03/25SPE2DH25T6103.pdf  0000012EAKEY,RESTRAINT APPAR  PDPSHZ1N000
SPE2DH25T61046530016008186                                    701354151809/03/25SPE2DH25T6104.pdf  0000060EAFOAM ROLLER,PHYSICA  PDPSHZ1N000
SPE2DH25T61056640016779591                                    701354253309/03/25SPE2DH25T6105.pdf  0000018PGFILTERGRAM           PDPSHZ1N000
SPE2DH25T61066640016501144                                    701354253109/03/25SPE2DH25T6106.pdf  0000001EAMEASURE,LIQUID       PDPSHZ1N000
SPE2DH25T61066640016501144                                    701354448109/03/25SPE2DH25T6106.pdf  0000001EAMEASURE,LIQUID       PDPSHZ1N000
SPE2DH25T61066640016501144                                    701354448509/03/25SPE2DH25T6106.pdf  0000001EAMEASURE,LIQUID       PDPSHZ1N000
SPE2DH25T61076640015888402                                    701354238209/03/25SPE2DH25T6107.pdf  0000001EACYLINDER,GRADUATED,  PDPSHZ1N000
SPE2DH25T61086640014594425                                    701354332809/03/25SPE2DH25T6108.pdf  0000001EACYLINDER,UNGRADUATE  PDPSHZ1N000
SPE2DH25T61096530016191777                                    701354441909/03/25SPE2DH25T6109.pdf  0000005EARESTRAINT KIT,HEAD   PDPSHZ1N000
SPE2DH25T61106640016501146                                    701354511009/03/25SPE2DH25T6110.pdf  0000001EAMEASURE,LIQUID       PDPSHZ1N000
SPE2DH25T61106640016501146                                    701354596309/03/25SPE2DH25T6110.pdf  0000001EAMEASURE,LIQUID       PDPSHZ1N000
SPE2DH25T61106640016501146                                    701356380909/03/25SPE2DH25T6110.pdf  0000005EAMEASURE,LIQUID       PDPSHZ1N000
SPE2DH25T61116640016781647                                    701354513109/03/25SPE2DH25T6111.pdf  0000010PGSYRINGE,LABORATORY   PDPSHZ1N000
SPE2DP25T49896505010911739                                    701344886309/02/25SPE2DP25T4989.pdf  0000100PGDEXTROSE INJECTION,  DAH01Z1N000
SPE2DP25T49986505015841605                                    701344892909/02/25SPE2DP25T4998.pdf  0000004BTLEVETIRACETAM TABLE  PHPHCZ1N000
SPE2DP25T50096505015997771                                    701338108609/02/25SPE2DP25T5009.pdf  0000005PGHEPATITIS A VIRUS V  DPP00Z1N000
SPE2DP25T50456505017081449                                    701346258009/02/25SPE2DP25T5045.pdf  0000050PGBENZOCAINE AND MENT  DNC00Z1N000
SPE2DP25T50456505017081449                                    701346258309/02/25SPE2DP25T5045.pdf  0000020PGBENZOCAINE AND MENT  DNC00Z1N000
SPE2DP25T50456505017081449                                    701346333009/02/25SPE2DP25T5045.pdf  0000130PGBENZOCAINE AND MENT  DNC00Z1N000
SPE2DP25T51136505017227590                                    701353707809/02/25SPE2DP25T5113.pdf  0000001BXNIRMATRELVIR AND RI  DMT00Z1N000
SPE2DP25T51146505014860542                                    701293833009/02/25SPE2DP25T5114.pdf  0000005EANITROGLYCERIN LINGU  PHPHAZ1N000
SPE2DP25T51156505014623022                                    701353800709/02/25SPE2DP25T5115.pdf  0000001PGRINGER'S INJECTION,  DAD01Z1N000
SPE2DP25T51156505014623022                                    701353855909/02/25SPE2DP25T5115.pdf  0000001PGRINGER'S INJECTION,  DAD01Z1N000
SPE2DP25T51156505014623022                                    701355746409/02/25SPE2DP25T5115.pdf  0000001PGRINGER'S INJECTION,  DAD01Z1N000
SPE2DP25T51166505001538480                                    701353933909/02/25SPE2DP25T5116.pdf  0000012BTHYDROGEN PEROXIDE T  DJM04Z1N000
SPE2DP25T51176505011684445                                    701353869809/02/25SPE2DP25T5117.pdf  0000001BTPRAZIQUANTEL TABLET  DMK00Z1N000
SPE2DP25T51186509014856206                                    701354027009/02/25SPE2DP25T5118.pdf  0000001EAPENTOBARBITAL SODIU  PDPSHZ1N000
SPE2DP25T51196509015310967                                    701354023809/02/25SPE2DP25T5119.pdf  0000001VIBUTORPHANOL TARTRAT  PDPSHZ1N000
SPE2DP25T51206505016505794                                    701344886009/02/25SPE2DP25T5120.pdf  0000020BXPIPERACILLIN SODIUM  DIB00Z1N000
SPE2DP25T51216505017234825                                    701353937009/02/25SPE2DP25T5121.pdf  0000002PGKETOROLAC TROMETHAM  DAD01Z1N000
SPE2DP25T51226505001637656                                    701353869509/02/25SPE2DP25T5122.pdf  0000001PGDOCUSATE SODIUM CAP  PHPHAZ1N000
SPE2DP25T51226505001637656                                    701353869609/02/25SPE2DP25T5122.pdf  0000001PGDOCUSATE SODIUM CAP  PHPHAZ1N000
SPE2DP25T51236505014876727                                    701353933309/02/25SPE2DP25T5123.pdf  0000001PGLEVOFLOXACIN TABLET  DAD01Z1N000
SPE2DP25T51246505015303307                                    701353994209/02/25SPE2DP25T5124.pdf  0000002PGADENOSINE INJECTION  PDPSHZ1N000
SPE2DP25T51246505015303307                                    701355746709/02/25SPE2DP25T5124.pdf  0000001PGADENOSINE INJECTION  PDPSHZ1N000
SPE2DP25T51256505011153520                                    701354133509/02/25SPE2DP25T5125.pdf  0000015PGIBUPROFEN TABLETS,U  PDPSAZ1N000
SPE2DP25T51266505013306269                                    701353933709/02/25SPE2DP25T5126.pdf  0000001PGSODIUM CHLORIDE INJ  PHPHBZ1N000
SPE2DP25T51276505016111221                                    701344890409/02/25SPE2DP25T5127.pdf  0000010BTOMEPRAZOLE EXTENDED  DAD01Z1N000
SPE2DP25T51286505016508313                                    701345812409/02/25SPE2DP25T5128.pdf  0000001PGBACITRACIN ZINC OIN  PDPSHZ1N000
SPE2DP25T51296505011749931                                    701354257209/02/25SPE2DP25T5129.pdf  0000014TUHYDROCORTISONE OINT  DLG00Z1N000
SPE2DP25T51306505016549628                                    701348201209/02/25SPE2DP25T5130.pdf  0000001BTBENZOIN TINCTURE,CO  DLG00Z1N000
SPE2DP25T51316505001474990                                    701354255209/02/25SPE2DP25T5131.pdf  0000010TUTRIAMCINOLONE ACETO  DMT00Z1N000
SPE2DP25T51316505001474990                                    701356020409/02/25SPE2DP25T5131.pdf  0000010TUTRIAMCINOLONE ACETO  DMT00Z1N000
SPE2DP25T51326505010564031                                    701354255009/02/25SPE2DP25T5132.pdf  0000001BTDETERGENT,SURGICAL   DLG00Z1N000
SPE2DP25T51336505010628010                                    701354201909/02/25SPE2DP25T5133.pdf  0000002BTCYCLOBENZAPRINE HYD  PDPSHZ1N000
SPE2DP25T51336505010628010                                    701354257509/02/25SPE2DP25T5133.pdf  0000003BTCYCLOBENZAPRINE HYD  PDPSHZ1N000
SPE2DP25T51346505013953039                                    701354282309/02/25SPE2DP25T5134.pdf  0000004PGFLUCONAZOLE TABLETS  DAH01Z1N000
SPE2DP25T51356505015436562                                    701354255309/02/25SPE2DP25T5135.pdf  0000004EAALBUTEROL SULFATE I  PHPHAZ1N000
SPE2DP25T51356505015436562                                    701354255409/02/25SPE2DP25T5135.pdf  0000006EAALBUTEROL SULFATE I  PHPHAZ1N000
SPE2DP25T51356505015436562                                    701354255709/02/25SPE2DP25T5135.pdf  0000020EAALBUTEROL SULFATE I  PHPHAZ1N000
SPE2DP25T51366505015137682                                    701348370709/02/25SPE2DP25T5136.pdf  0000004PGINSECT STING AND BI  DJM04Z1N000
SPE2DP25T51376505017029529                                    701336052009/02/25SPE2DP25T5137.pdf  0000002PGALBUMIN HUMAN        DLG00Z1N000
SPE2DP25T51376505017029529                                    701336659609/02/25SPE2DP25T5137.pdf  0000002PGALBUMIN HUMAN        DLG00Z1N000
SPE2DP25T51376505017029529                                    701336659709/02/25SPE2DP25T5137.pdf  0000011PGALBUMIN HUMAN        DLG00Z1N000
SPE2DP25T51376505017029529                                    701336659809/02/25SPE2DP25T5137.pdf  0000002PGALBUMIN HUMAN        DLG00Z1N000
SPE2DP25T51376505017029529                                    701336659909/02/25SPE2DP25T5137.pdf  0000012PGALBUMIN HUMAN        DLG00Z1N000
SPE2DP25T51376505017029529                                    701336661009/02/25SPE2DP25T5137.pdf  0000002PGALBUMIN HUMAN        DLG00Z1N000
SPE2DP25T51376505017029529                                    701336661109/02/25SPE2DP25T5137.pdf  0000012PGALBUMIN HUMAN        DLG00Z1N000
SPE2DP25T51376505017029529                                    701336661209/02/25SPE2DP25T5137.pdf  0000012PGALBUMIN HUMAN        DLG00Z1N000
SPE2DP25T51376505017029529                                    701336661309/02/25SPE2DP25T5137.pdf  0000012PGALBUMIN HUMAN        DLG00Z1N000
SPE2DP25T51376505017029529                                    701336661409/02/25SPE2DP25T5137.pdf  0000002PGALBUMIN HUMAN        DLG00Z1N000
SPE2DP25T51376505017029529                                    701336661509/02/25SPE2DP25T5137.pdf  0000012PGALBUMIN HUMAN        DLG00Z1N000
SPE2DP25T51376505017029529                                    701336671509/02/25SPE2DP25T5137.pdf  0000002PGALBUMIN HUMAN        DLG00Z1N000
SPE2DS25T281R6515016464191                                    701301670909/02/25SPE2DS25T281R.pdf  0000015PRPAD,ELECTRODE,DEFIB  DMK00Z1N000
SPE2DS25T345K6515016464191                                    701325973609/02/25SPE2DS25T345K.pdf  0000005PRPAD,ELECTRODE,DEFIB  DMK00Z1N000
SPE2DS25T345K6515016464191                                    701325973709/02/25SPE2DS25T345K.pdf  0000005PRPAD,ELECTRODE,DEFIB  DMK00Z1N000
SPE2DS25T391N6515013438162                                    701344886609/02/25SPE2DS25T391N.pdf  0000020EASPLINT,FINGER        DVS00Z1N000
SPE2DS25T391R6515016742663                                    701344892809/02/25SPE2DS25T391R.pdf  0000007CSADMINISTRATION SET,  DVS00Z1N000
SPE2DS25T393V6515015984522                                    701346137709/02/25SPE2DS25T393V.pdf  0000006PGADAPTER,AIRWAY,CO2   PDPSFZ1N000
SPE2DS25T394M6515017110636                                    701346412409/02/25SPE2DS25T394M.pdf  0000001PGHANDLE,CARRYING,POR  DJB03Z1N000
SPE2DS25T394M6515017110636                                    701346412509/02/25SPE2DS25T394M.pdf  0000001PGHANDLE,CARRYING,POR  DJB03Z1N000
SPE2DS25T407R6515015586948                                    701352866109/02/25SPE2DS25T407R.pdf  0000001EAPAD,ELECTRODE,DEFIB  PLCL5Z1N000
SPE2DS25T407R6515015586948                                    701353937309/02/25SPE2DS25T407R.pdf  0000001EAPAD,ELECTRODE,DEFIB  PLCL5Z1N000
SPE2DS25T407S6510010601639                                    701352901109/02/25SPE2DS25T407S.pdf  0000010PGADHESIVE TAPE,SURGI  PDPSFZ1N000
SPE2DS25T407T7610016723315                                    701352865609/02/25SPE2DS25T407T.pdf  0000001EAMANUAL,TECHNICAL     DMD01Z1N000
SPE2DS25T407U6550013583835                                    701352778809/02/25SPE2DS25T407U.pdf  0000001PGCULTURE MEDIA,SALMO  PDPSFZ1N000
SPE2DS25T407V6515014960850                                    701352854409/02/25SPE2DS25T407V.pdf  0000025BXMASK,RESPIRATOR      DCA00Z1N000
SPE2DS25T407W6515016436358                                    701352484409/02/25SPE2DS25T407W.pdf  0000002EAINTRODUCER,ENDOTRAC  DDM01Z1N000
SPE2DS25T407W6515016436358                                    701353037609/02/25SPE2DS25T407W.pdf  0000001EAINTRODUCER,ENDOTRAC  DDM01Z1N000
SPE2DS25T407W6515016436358                                    701353869109/02/25SPE2DS25T407W.pdf  0000002EAINTRODUCER,ENDOTRAC  DDM01Z1N000
SPE2DS25T407W6515016436358                                    701353937509/02/25SPE2DS25T407W.pdf  0000001EAINTRODUCER,ENDOTRAC  DDM01Z1N000
SPE2DS25T407W6515016436358                                    701353937609/02/25SPE2DS25T407W.pdf  0000003EAINTRODUCER,ENDOTRAC  DDM01Z1N000
SPE2DS25T407W6515016436358                                    701353937709/02/25SPE2DS25T407W.pdf  0000003EAINTRODUCER,ENDOTRAC  DDM01Z1N000
SPE2DS25T407W6515016436358                                    701353937809/02/25SPE2DS25T407W.pdf  0000001EAINTRODUCER,ENDOTRAC  DDM01Z1N000
SPE2DS25T407W6515016436358                                    701353937909/02/25SPE2DS25T407W.pdf  0000001EAINTRODUCER,ENDOTRAC  DDM01Z1N000
SPE2DS25T407W6515016436358                                    701353942409/02/25SPE2DS25T407W.pdf  0000001EAINTRODUCER,ENDOTRAC  DDM01Z1N000
SPE2DS25T407W6515016436358                                    701353942509/02/25SPE2DS25T407W.pdf  0000003EAINTRODUCER,ENDOTRAC  DDM01Z1N000
SPE2DS25T407W6515016436358                                    701353942609/02/25SPE2DS25T407W.pdf  0000003EAINTRODUCER,ENDOTRAC  DDM01Z1N000
SPE2DS25T407W6515016436358                                    701353942709/02/25SPE2DS25T407W.pdf  0000001EAINTRODUCER,ENDOTRAC  DDM01Z1N000
SPE2DS25T407W6515016436358                                    701353992909/02/25SPE2DS25T407W.pdf  0000002EAINTRODUCER,ENDOTRAC  DDM01Z1N000
SPE2DS25T407X6515015322085                                    701353082309/02/25SPE2DS25T407X.pdf  0000002EANEEDLE,DISPENSING,F  DOE00Z1N000
SPE2DS25T407Y6545016944331                                    701354771909/02/25SPE2DS25T407Y.pdf  0000500EAFIRST AID KIT,SMALL  DKJ00Z1R100
SPE2DS25T407Z6545016175668                                    701320499209/02/25SPE2DS25T407Z.pdf  0000001EABAG,MEDICAL INSTRUM  PDPSFZ1N000
SPE2DS25T407Z6545016175668                                    701320499309/02/25SPE2DS25T407Z.pdf  0000001EABAG,MEDICAL INSTRUM  PDPSFZ1N000
SPE2DS25T407Z6545016175668                                    701320521109/02/25SPE2DS25T407Z.pdf  0000001EABAG,MEDICAL INSTRUM  PDPSFZ1N000
SPE2DS25T407Z6545016175668                                    701320521509/02/25SPE2DS25T407Z.pdf  0000001EABAG,MEDICAL INSTRUM  PDPSFZ1N000
SPE2DS25T407Z6545016175668                                    701353992109/02/25SPE2DS25T407Z.pdf  0000001EABAG,MEDICAL INSTRUM  PDPSFZ1N000
SPE2DS25T408A6515015210327                                    701316778209/02/25SPE2DS25T408A.pdf  0000003EAHANDLE,ELECTRODE,EL  DTP00Z1N000
SPE2DS25T408B6530014778525                                    701353703409/02/25SPE2DS25T408B.pdf  0000001EALITTER-SPLINT,EXTRI  DOE00Z1N000
SPE2DS25T408B6530014778525                                    701353703609/02/25SPE2DS25T408B.pdf  0000001EALITTER-SPLINT,EXTRI  DOE00Z1N000
SPE2DS25T408C6510008901371                                    701353713009/02/25SPE2DS25T408C.pdf  0000001PGADHESIVE TAPE,SURGI  PDPSFZ1N000
SPE2DS25T408C6510008901371                                    701353929809/02/25SPE2DS25T408C.pdf  0000001PGADHESIVE TAPE,SURGI  PDPSFZ1N000
SPE2DS25T408D6515015002817                                    701353740609/02/25SPE2DS25T408D.pdf  0000001PGMASK,OXYGEN          DPE00Z1N000
SPE2DS25T408E6515015196341                                    701353710609/02/25SPE2DS25T408E.pdf  0000001PGGLOVES,SURGEONS'     PLCL5Z1N000
SPE2DS25T408E6515015196341                                    701353929709/02/25SPE2DS25T408E.pdf  0000001PGGLOVES,SURGEONS'     PLCL5Z1N000
SPE2DS25T408E6515015196341                                    701355624509/02/25SPE2DS25T408E.pdf  0000001PGGLOVES,SURGEONS'     PLCL5Z1N000
SPE2DS25T408F6515015192226                                    701353710409/02/25SPE2DS25T408F.pdf  0000001PGAPPLICATOR,DISPOSAB  DMB03Z1N000
SPE2DS25T408F6515015192226                                    701353811009/02/25SPE2DS25T408F.pdf  0000001PGAPPLICATOR,DISPOSAB  DMB03Z1N000
SPE2DS25T408F6515015192226                                    701353941009/02/25SPE2DS25T408F.pdf  0000001PGAPPLICATOR,DISPOSAB  DMB03Z1N000
SPE2DS25T408G6515000511950                                    701353703509/02/25SPE2DS25T408G.pdf  0000010PGGLOVE,GENERAL PURPOSEDCA00Z1N000
SPE2DS25T408H6515015217976                                    701353743709/02/25SPE2DS25T408H.pdf  0000040EATOURNIQUET,NONPNEUM  DOE00Z1N000
SPE2DS25T408J6515007542834                                    701353713209/02/25SPE2DS25T408J.pdf  0000002PGNEEDLE,HYPODERMIC    DPE00Z1N000
SPE2DS25T408J6515007542834                                    701353929909/02/25SPE2DS25T408J.pdf  0000001PGNEEDLE,HYPODERMIC    DPE00Z1N000
SPE2DS25T408K6545014254663                                    701350102709/02/25SPE2DS25T408K.pdf  0000030KTBODY FLUIDS BARRIER  DTP00Z1N000
SPE2DS25T408L6545016822596                                    701353913809/02/25SPE2DS25T408L.pdf  0000060EAFIRST AID KIT,INDIV  DST00Z1N000
SPE2DS25T408M6515001817412                                    701353713109/02/25SPE2DS25T408M.pdf  0000002PGNEEDLE,HYPODERMIC    DMK00Z1N000
SPE2DS25T408N6510015199521                                    701353812009/02/25SPE2DS25T408N.pdf  0000001PGBANDAGE,ELASTIC      DKJ00Z1N000
SPE2DS25T408P6515014615798                                    701353801809/02/25SPE2DS25T408P.pdf  0000001PGTOURNIQUET,NONPNEUM  DBW01Z1N000
SPE2DS25T408P6515014615798                                    701354137909/02/25SPE2DS25T408P.pdf  0000001PGTOURNIQUET,NONPNEUM  DBW01Z1N000
SPE2DS25T408Q6510015584114                                    701353801909/02/25SPE2DS25T408Q.pdf  0000001EABANDAGE,EMERGENCY T  DMD01Z1N000
SPE2DS25T408Q6510015584114                                    701355746309/02/25SPE2DS25T408Q.pdf  0000001EABANDAGE,EMERGENCY T  DMD01Z1N000
SPE2DS25T408R6515016500036                                    701353877909/02/25SPE2DS25T408R.pdf  0000010EASUPPORT,CERVICAL     DJB03Z1N000
SPE2DS25T408S6510016929833                                    701297558309/02/25SPE2DS25T408S.pdf  0000006EADRESSING,BURN,FIRST  PDPSFZ1N000
SPE2DS25T408S6510016929833                                    701353801709/02/25SPE2DS25T408S.pdf  0000002EADRESSING,BURN,FIRST  PDPSFZ1N000
SPE2DS25T408S6510016929833                                    701355616209/02/25SPE2DS25T408S.pdf  0000001EADRESSING,BURN,FIRST  PDPSFZ1N000
SPE2DS25T408T6515012005795                                    701356089809/02/25SPE2DS25T408T.pdf  0000011EATUBE,TRACHEOSTOMY    DJM04Z1N000
SPE2DS25T408U6550015073726                                    701356090309/02/25SPE2DS25T408U.pdf  0000001PGTEST KIT,BACTERIA D  DKJ00Z1N000
SPE2DS25T408V6550015193890                                    701356090409/02/25SPE2DS25T408V.pdf  0000002PGCUVETTE,TEST,PROTHR  DST00Z1N000
SPE2DS25T408W6515015386349                                    701356089909/02/25SPE2DS25T408W.pdf  0000001PGSYRINGE,HYPODERMIC   PLCL5Z1N000
SPE2DS25T408X6515015550446                                    701356090009/02/25SPE2DS25T408X.pdf  0000001PGADMINISTRATION SET,  PLCL5Z1N000
SPE2DS25T408Y6515015168732                                    701356089709/02/25SPE2DS25T408Y.pdf  0000022EAWRENCH,OXYGEN        DPE00Z1N000
SPE2DS25T408Z6515008801833                                    701349746109/02/25SPE2DS25T408Z.pdf  0000003EAADAPTER,Y-PIECE,TRA  DPE00Z1N000
SPE2DS25T409A6515012674669                                    701353999009/02/25SPE2DS25T409A.pdf  0000001PGINDICATOR,TEMPERATU  DVS00Z1N000
SPE2DS25T409B6515010211361                                    701353937409/02/25SPE2DS25T409B.pdf  0000003PGCAUTERY,BATTERY OPE  DVS00Z1N000
SPE2DS25T409C6510000186184                                    701353929609/02/25SPE2DS25T409C.pdf  0000002PGPAD,NONADHERENT      DST00Z1N000
SPE2DS25T409D6550015309431                                    701353037909/02/25SPE2DS25T409D.pdf  0000001EACHIP,PERCHLOROETHYL  DKJ00Z1N000
SPE2DS25T409E6515015002028                                    701354022009/02/25SPE2DS25T409E.pdf  0000005EACENTRAL VENOUS CATH  DBW01Z1N000
SPE2DS25T409F6550011621523                                    701353996509/02/25SPE2DS25T409F.pdf  0000001PGCULTECH JEMBEC G C   DKJ00Z1N000
SPE2DS25T409G6550015308344                                    701353994909/02/25SPE2DS25T409G.pdf  0000001EACHIP,VINYL CHLORIDE  PDPSFZ1N000
SPE2DS25T409H6515014663004                                    701353944909/02/25SPE2DS25T409H.pdf  0000001PGSUPPORT,CERVICAL     PDPSFZ1N000
SPE2DS25T409J6550015309385                                    701353942009/02/25SPE2DS25T409J.pdf  0000001EACHIP,ACETIC ACID     DST00Z1N000
SPE2DS25T409K6515015168732                                    701353999409/02/25SPE2DS25T409K.pdf  0000003EAWRENCH,OXYGEN        DPE00Z1N000
SPE2DS25T409L6515015997135                                    701353933109/02/25SPE2DS25T409L.pdf  0000001PGADAPTER,INJECTION-A  DPE00Z1N000
SPE2DS25T409M6550015305903                                    701353994309/02/25SPE2DS25T409M.pdf  0000002EACHIP,CARBON DIOXIDE  DMD01Z1N000
SPE2DS25T409N6545016011906                                    701353999509/02/25SPE2DS25T409N.pdf  0000001EACHEST,MEDICAL INSTR  DMD01Z1N000
SPE2DS25T409P6550015309396                                    701353996409/02/25SPE2DS25T409P.pdf  0000001EACHIP,CARBON DIOXIDE  DST00Z1N000
SPE2DS25T409Q6550015308352                                    701353996009/02/25SPE2DS25T409Q.pdf  0000001EACHIP,NITROUS GASES   DTP00Z1N000
SPE2DS25T409R6515016550357                                    701353994509/02/25SPE2DS25T409R.pdf  0000002EAREPLACEMENT PRECORD  DDM01Z1N000
SPE2DS25T409S6515015238459                                    701353869209/02/25SPE2DS25T409S.pdf  0000001EADRAINAGE SYSTEM,EXT  PDPSFZ1N000
SPE2DS25T409S6515015238459                                    701353994709/02/25SPE2DS25T409S.pdf  0000001EADRAINAGE SYSTEM,EXT  PDPSFZ1N000
SPE2DS25T409T6515014774292                                    701353994609/02/25SPE2DS25T409T.pdf  0000001EAGAUGE COVER RESPIRO  DMK00Z1N000
SPE2DS25T409U6540017197739                                    701353937209/02/25SPE2DS25T409U.pdf  0000001EALIGHT,SLIT,OPHTHALM  PDPSFZ1N000
SPE2DS25T409V6550015308465                                    701353996109/02/25SPE2DS25T409V.pdf  0000001EACHIP,VINYL CHLORIDE  DTP00Z1N000
SPE2DS25T409W6515016000262                                    701354109209/02/25SPE2DS25T409W.pdf  0000025PGGLOVES,PATIENT EXAM  DVS00Z1N000
SPE2DS25T409X6515017282909                                    701353943409/02/25SPE2DS25T409X.pdf  0000002EASENSOR,TEMPERATURE   PDPSFZ1N000
SPE2DS25T409Y6515015238467                                    701353942309/02/25SPE2DS25T409Y.pdf  0000003PGBAG,COLLECTION,DRAI  PDPSFZ1N000
SPE2DS25T409Z6515016150896                                    701353996709/02/25SPE2DS25T409Z.pdf  0000001EACASE,DEFIBRILLATOR-MODJM04Z1N000
SPE2DS25T409Z6515016150896                                    701353999209/02/25SPE2DS25T409Z.pdf  0000001EACASE,DEFIBRILLATOR-MODJM04Z1N000
SPE2DS25T410A6550015308027                                    701353994409/02/25SPE2DS25T410A.pdf  0000001EACHIP,MERCAPTAN       DKJ00Z1N000
SPE2DS25T410B6550015309391                                    701353996309/02/25SPE2DS25T410B.pdf  0000001EACHIP,BENZENE         DST00Z1N000
SPE2DS25T410C6510005977469                                    701353037709/02/25SPE2DS25T410C.pdf  0000001PGBANDAGE,ADHESIVE     PDPSFZ1N000
SPE2DS25T410C6510005977469                                    701355610309/02/25SPE2DS25T410C.pdf  0000010PGBANDAGE,ADHESIVE     PDPSFZ1N000
SPE2DS25T410D6510007615062                                    701353938209/02/25SPE2DS25T410D.pdf  0000006PGBANDAGE,ADHESIVE     DTP00Z1N000
SPE2DS25T410D6510007615062                                    701355666009/02/25SPE2DS25T410D.pdf  0000005PGBANDAGE,ADHESIVE     DTP00Z1N000
SPE2DS25T410E6510015981988                                    701353944809/02/25SPE2DS25T410E.pdf  0000001PGPAD,ABDOMINAL        DST00Z1N000
SPE2DS25T410F6515015396531                                    701353037409/02/25SPE2DS25T410F.pdf  0000002PGBLOOD TYPING KIT     PDPSFZ1N000
SPE2DS25T410F6515015396531                                    701353037509/02/25SPE2DS25T410F.pdf  0000002PGBLOOD TYPING KIT     PDPSFZ1N000
SPE2DS25T410F6515015396531                                    701353943309/02/25SPE2DS25T410F.pdf  0000002PGBLOOD TYPING KIT     PDPSFZ1N000
SPE2DS25T410G6515014509790                                    701353933209/02/25SPE2DS25T410G.pdf  0000001EALARYNGOSCOPE,GREEN   DDP00Z1N000
SPE2DS25T410H6515016087696                                    701353992209/02/25SPE2DS25T410H.pdf  0000001EATEST LUNG,VENTILATO  DJM04Z1N000
SPE2DS25T410H6515016087696                                    701354256109/02/25SPE2DS25T410H.pdf  0000002EATEST LUNG,VENTILATO  DJM04Z1N000
SPE2DS25T410J6550015308038                                    701353994809/02/25SPE2DS25T410J.pdf  0000001EACHIP,HYDROCHLORIC A  PDPSFZ1N000
SPE2DS25T410K6540016887449                                    701353869709/02/25SPE2DS25T410K.pdf  0000001EAREFRACTOR AND KERAT  PDPSFZ1N000
SPE2DS25T410L6515016603150                                    701353929509/02/25SPE2DS25T410L.pdf  0000001BXNEEDLE,HYPODERMIC    DCA00Z1N000
SPE2DS25T410L6515016603150                                    701353938109/02/25SPE2DS25T410L.pdf  0000003BXNEEDLE,HYPODERMIC    DCA00Z1N000
SPE2DS25T410M6550015309388                                    701353996209/02/25SPE2DS25T410M.pdf  0000001EACHIP,ACETONE         DST00Z1N000
SPE2DS25T410N6515015232430                                    701353994009/02/25SPE2DS25T410N.pdf  0000001PGSYRINGE,INSULIN,SAF  DCO00Z1N000
SPE2DS25T410N6515015232430                                    701353994109/02/25SPE2DS25T410N.pdf  0000001PGSYRINGE,INSULIN,SAF  DCO00Z1N000
SPE2DS25T410P6515017223342                                    701353992309/02/25SPE2DS25T410P.pdf  0000003EAADAPTER,OXYGEN FLOW  PLCL5Z1N000
SPE2DS25T410Q6515016589063                                    701353933809/02/25SPE2DS25T410Q.pdf  0000002EAWRENCH,OXYGEN,MEDIC  DVS00Z1N000
SPE2DS25T410Q6515016589063                                    701353942209/02/25SPE2DS25T410Q.pdf  0000004EAWRENCH,OXYGEN,MEDIC  DVS00Z1N000
SPE2DS25T410Q6515016589063                                    701353992409/02/25SPE2DS25T410Q.pdf  0000001EAWRENCH,OXYGEN,MEDIC  DVS00Z1N000
SPE2DS25T410Q6515016589063                                    701353992509/02/25SPE2DS25T410Q.pdf  0000001EAWRENCH,OXYGEN,MEDIC  DVS00Z1N000
SPE2DS25T410Q6515016589063                                    701353992609/02/25SPE2DS25T410Q.pdf  0000001EAWRENCH,OXYGEN,MEDIC  DVS00Z1N000
SPE2DS25T410Q6515016589063                                    701353992709/02/25SPE2DS25T410Q.pdf  0000001EAWRENCH,OXYGEN,MEDIC  DVS00Z1N000
SPE2DS25T410Q6515016589063                                    701353992809/02/25SPE2DS25T410Q.pdf  0000001EAWRENCH,OXYGEN,MEDIC  DVS00Z1N000
SPE2DS25T410Q6515016589063                                    701355739409/02/25SPE2DS25T410Q.pdf  0000006EAWRENCH,OXYGEN,MEDIC  DVS00Z1N000
SPE2DS25T410Q6515016589063                                    701356111609/02/25SPE2DS25T410Q.pdf  0000001EAWRENCH,OXYGEN,MEDIC  DVS00Z1N000
SPE2DS25T410R6510007219808                                    701353937109/02/25SPE2DS25T410R.pdf  0000002PGSPONGE,SURGICAL      DMD01Z1N000
SPE2DS25T410R6510007219808                                    701354256309/02/25SPE2DS25T410R.pdf  0000001PGSPONGE,SURGICAL      DMD01Z1N000
SPE2DS25T410S6515014575905                                    701353999609/02/25SPE2DS25T410S.pdf  0000001BXNEBULIZER,MEDICINAL  PDPSFZ1N000
SPE2DS25T410S6515014575905                                    701356014109/02/25SPE2DS25T410S.pdf  0000001BXNEBULIZER,MEDICINAL  PDPSFZ1N000
SPE2DS25T410T6515015793275                                    701353869909/02/25SPE2DS25T410T.pdf  0000001EAINSERTION KIT,CHEST  DJM04Z1N000
SPE2DS25T410T6515015793275                                    701353992009/02/25SPE2DS25T410T.pdf  0000001EAINSERTION KIT,CHEST  DJM04Z1N000
SPE2DS25T410T6515015793275                                    701353996809/02/25SPE2DS25T410T.pdf  0000001EAINSERTION KIT,CHEST  DJM04Z1N000
SPE2DS25T410T6515015793275                                    701353996909/02/25SPE2DS25T410T.pdf  0000001EAINSERTION KIT,CHEST  DJM04Z1N000
SPE2DS25T410T6515015793275                                    701354255909/02/25SPE2DS25T410T.pdf  0000015EAINSERTION KIT,CHEST  DJM04Z1N000
SPE2DS25T410U6515016314521                                    701348201409/02/25SPE2DS25T410U.pdf  0000001PGTUBE,FEEDING,SURGIC  PDPSFZ1N000
SPE2DS25T410U6515016314521                                    701348489009/02/25SPE2DS25T410U.pdf  0000024PGTUBE,FEEDING,SURGIC  PDPSFZ1N000
SPE2DS25T410V6515016737954                                    701354058309/02/25SPE2DS25T410V.pdf  0000001PGSKIN CLOSURE CLIP    DCA00Z1N000
SPE2DS25T410V6515016737954                                    701354547409/02/25SPE2DS25T410V.pdf  0000023PGSKIN CLOSURE CLIP    DCA00Z1N000
SPE2DS25T410W6540017008228                                    701344893309/02/25SPE2DS25T410W.pdf  0000005EACHART,VISION ACUITY  DKJ00Z1N000
SPE2DS25T410W6540017008228                                    701356109109/02/25SPE2DS25T410W.pdf  0000001EACHART,VISION ACUITY  DKJ00Z1N000
SPE2DS25T410X6515013543970                                    701354256409/02/25SPE2DS25T410X.pdf  0000015EAHOSE ASSEMBLY,OXYGE  DVS00Z1N000
SPE2DS25T410Y6515015215730                                    701354146809/02/25SPE2DS25T410Y.pdf  0000003EASPLINT,LEG           DCO00Z1N000
SPE2DS25T410Z6515014779738                                    701354256209/02/25SPE2DS25T410Z.pdf  0000002PGCONNECTOR,TUBING,ST  DJB03Z1N000
SPE2DS25T411A6515015053037                                    701346135209/02/25SPE2DS25T411A.pdf  0000001PGELECTRODE,ELECTROCA  PDPSFZ1N000
SPE2DS25T411B6515015264240                                    701354146409/02/25SPE2DS25T411B.pdf  0000001EALARYNGOSCOPE SET     DJB03Z1N000
SPE2DS25T411C6550016864885                                    701354146609/02/25SPE2DS25T411C.pdf  0000001EACONTROL,GLUCOSE      DST00Z1N000
SPE2DS25T411D6510011202643                                    701354150309/02/25SPE2DS25T411D.pdf  0000001PGSALICYLIC ACID PLAS  PDPSFZ1N000
SPE2DS25T411E6510017067119                                    701354282709/02/25SPE2DS25T411E.pdf  0000119EADRESSING KIT,CHEST   DKJ00Z1N000
SPE2DS25T411E6510017067119                                    701354519209/02/25SPE2DS25T411E.pdf  0000001EADRESSING KIT,CHEST   DKJ00Z1N000
SPE2DS25T411F6515011405336                                    701354256809/02/25SPE2DS25T411F.pdf  0000001BXMASK,TRACHEOSTOMY    DJB03Z1N000
SPE2DS25T411G6510015876579                                    701354282409/02/25SPE2DS25T411G.pdf  0000050EADRESSING,BURN,FIRST  PDPSFZ1N000
SPE2DS25T411G6510015876579                                    701354505909/02/25SPE2DS25T411G.pdf  0000010EADRESSING,BURN,FIRST  PDPSFZ1N000
SPE2DS25T411G6510015876579                                    701356048909/02/25SPE2DS25T411G.pdf  0000100EADRESSING,BURN,FIRST  PDPSFZ1N000
SPE2DS25T411H6515013432145                                    701354255809/02/25SPE2DS25T411H.pdf  0000011EADELIVERY KIT,OBSTET  PLCL5Z1N000
SPE2DS25T411J6550013654722                                    701353999109/02/25SPE2DS25T411J.pdf  0000001COEOSIN-Y STAIN        DKJ00Z1N000
SPE2DS25T411K6515011972946                                    701354256909/02/25SPE2DS25T411K.pdf  0000001PGCONNECTOR,OXYGEN TU  PLCL5Z1N000
SPE2DS25T411L6665016458677                                    701354242609/02/25SPE2DS25T411L.pdf  0000063BXINDICATOR TUBE,GAS   DOE00Z1N000
SPE2DS25T411M6515013134853                                    701354146509/02/25SPE2DS25T411M.pdf  0000002PGNEEDLE,PARTICULATE   DCA00Z1N000
SPE2DS25T411M6515013134853                                    701356166709/02/25SPE2DS25T411M.pdf  0000001PGNEEDLE,PARTICULATE   DCA00Z1N000
SPE2DS25T411N6515013047225                                    701346260209/02/25SPE2DS25T411N.pdf  0000010PGSPECULUM,OTOSCOPE    DMB03Z1N000
SPE2DS25T411P6510016311883                                    701354243309/02/25SPE2DS25T411P.pdf  0000010EADRESSING,BURN,FIRST  PDPSFZ1N000
SPE2DS25T411P6510016311883                                    701355745209/02/25SPE2DS25T411P.pdf  0000010EADRESSING,BURN,FIRST  PDPSFZ1N000
SPE2DS25T411Q6510010888465                                    701354146709/02/25SPE2DS25T411Q.pdf  0000001EABANDAGE,ELASTIC      DTP00Z1N000
SPE2DS25T411Q6510010888465                                    701354150409/02/25SPE2DS25T411Q.pdf  0000001EABANDAGE,ELASTIC      DTP00Z1N000
SPE2DS25T411Q6510010888465                                    701354153009/02/25SPE2DS25T411Q.pdf  0000001EABANDAGE,ELASTIC      DTP00Z1N000
SPE2DS25T411R6510016546801                                    701354156809/02/25SPE2DS25T411R.pdf  0000001EABANDAGE,EMERGENCY T  DMD01Z1N000
SPE2DS25T411R6510016546801                                    701354240909/02/25SPE2DS25T411R.pdf  0000011EABANDAGE,EMERGENCY T  DMD01Z1N000
SPE2DS25T411R6510016546801                                    701354510909/02/25SPE2DS25T411R.pdf  0000025EABANDAGE,EMERGENCY T  DMD01Z1N000
SPE2DS25T411S6515014776078                                    701354257009/02/25SPE2DS25T411S.pdf  0000001EACASE,ACLS DRUG       DDM01Z1N000
SPE2DS25T411T6515016685096                                    701346534409/02/25SPE2DS25T411T.pdf  0000001EAANESTHETIC CARTRIDG  DJM04Z1N000
SPE2DS25T411T6515016685096                                    701350860209/02/25SPE2DS25T411T.pdf  0000001EAANESTHETIC CARTRIDG  DJM04Z1N000
SPE2DS25T411U6515015955694                                    701350847709/02/25SPE2DS25T411U.pdf  0000002EASENSOR,OXYGEN MONIT  DMK00Z1N000
SPE2DS25T411V6515016074332                                    701354256709/02/25SPE2DS25T411V.pdf  0000001EAHOSE ASSEMBLY,BLOOD  DPE00Z1N000
SPE2DS25T411W6515016944641                                    701348558109/02/25SPE2DS25T411W.pdf  0000001BXSYRINGE,IRRIGATING   PLCL5Z1N000
SPE2DS25T411X6515014884994                                    701354146909/02/25SPE2DS25T411X.pdf  0000001PGCATHETER,INTRAVENOU  DMK00Z1N000
SPE2DS25T411X6515014884994                                    701354149009/02/25SPE2DS25T411X.pdf  0000001PGCATHETER,INTRAVENOU  DMK00Z1N000
SPE2DS25T411X6515014884994                                    701354153109/02/25SPE2DS25T411X.pdf  0000001PGCATHETER,INTRAVENOU  DMK00Z1N000
SPE2DS25T411Y8415015317680                                    701354375409/02/25SPE2DS25T411Y.pdf  0000001PGCOVERALLS,DISPOSABL  PDPSFZ1N000
SPE2DS25T411Z6510015730300                                    701354383309/02/25SPE2DS25T411Z.pdf  0000001EADRESSING,CHEST SEAL  DMD01Z1N000
SPE2DS25T412A6550012215400                                    701354322509/02/25SPE2DS25T412A.pdf  0000001BTTEST STRIPS AND COL  DMD01Z1N000
SPE2DS25T412B6515016559412                                    701354356509/02/25SPE2DS25T412B.pdf  0000002EAOXIMETER,PULSE       DMK00Z1N000
SPE2DS25T412B6515016559412                                    701354546709/02/25SPE2DS25T412B.pdf  0000001EAOXIMETER,PULSE       DMK00Z1N000
SPE2DS25T412B6515016559412                                    701354547209/02/25SPE2DS25T412B.pdf  0000011EAOXIMETER,PULSE       DMK00Z1N000
SPE2DS25T412C6515015188551                                    701354259309/02/25SPE2DS25T412C.pdf  0000001EACONTAINER,SHARPS SH  DCA00Z1N000
SPE2DS25T412D6510010898207                                    701354378309/02/25SPE2DS25T412D.pdf  0000001EABANDAGE,ELASTIC      DMD01Z1N000
SPE2DS25T412D6510010898207                                    701355578909/02/25SPE2DS25T412D.pdf  0000004EABANDAGE,ELASTIC      DMD01Z1N000
SPE2DS25T412E6515016994337                                    701354546509/02/25SPE2DS25T412E.pdf  0000010CSBLOOD COLLECTION AS  DJB03Z1Y100
SPE2DS25T412F6515016186471                                    701354448609/02/25SPE2DS25T412F.pdf  0000001PGSYRINGE,HYPODERMIC   DJM04Z1N000
SPE2DS25T412G6515015117035                                    701354310909/02/25SPE2DS25T412G.pdf  0000001EATUBE,SUCTION,SURGIC  DPE00Z1N000
SPE2DS25T412H6515016187152                                    701354517409/02/25SPE2DS25T412H.pdf  0000002EACUFF,SPHYGMOMANOMET  DCA00Z1N000
SPE3SE25Q06327310GM5022323                                    701336181908/28/25SPE3SE25Q0632.pdf  0000001EAEQUIPMENT IST - FTRD DCT01H2Y100
SPE3SE25Q06437310GM5022323                                    701351378909/03/25SPE3SE25Q0643.pdf  0000001EAEQUIPMENT IST - FTRD DWY00H2Y100
SPE3SE25Q06447310011990023                                    701331286009/03/25SPE3SE25Q0644.pdf  0000013EAWELL,HOT FOOD STORA  PSPTAZ1Y100
SPE4A025T27254010014347876                                    701165541209/02/25SPE4A025T2725.pdf  0000010FTCHAIN,WELDLESS       GPP49G1N000
SPE4A025T42353110016214366                                    701304425609/02/25SPE4A025T4235.pdf  0000005EABEARING,BALL,ANNULA  GPD42Q1N000
SPE4A025T43046150017079975                                    701313366108/08/25SPE4A025T4304.pdf  0000002EALEAD,STORAGE BATTER  DLS00D1N000
SPE4A025T43046150017079975                                    701316319908/08/25SPE4A025T4304.pdf  0000001EALEAD,STORAGE BATTER  DLS00D1N000
SPE4A025T43046150017079975                                    701316320008/08/25SPE4A025T4304.pdf  0000001EALEAD,STORAGE BATTER  DLS00D1N000
SPE4A025T43046150017079975                                    701316320108/08/25SPE4A025T4304.pdf  0000001EALEAD,STORAGE BATTER  DLS00D1N000
SPE4A025T43046150017079975                                    701316320208/08/25SPE4A025T4304.pdf  0000001EALEAD,STORAGE BATTER  DLS00D1N000
SPE4A025T43046150017079975                                    701316320308/08/25SPE4A025T4304.pdf  0000001EALEAD,STORAGE BATTER  DLS00D1N000
SPE4A025T43046150017079975                                    701317842108/08/25SPE4A025T4304.pdf  0000001EALEAD,STORAGE BATTER  DLS00D1N000
SPE4A025T43046150017079975                                    701317842208/08/25SPE4A025T4304.pdf  0000001EALEAD,STORAGE BATTER  DLS00D1N000
SPE4A025T43046150017079975                                    701317842308/08/25SPE4A025T4304.pdf  0000001EALEAD,STORAGE BATTER  DLS00D1N000
SPE4A025T43046150017079975                                    701317842408/08/25SPE4A025T4304.pdf  0000001EALEAD,STORAGE BATTER  DLS00D1N000
SPE4A025T43046150017079975                                    701317842508/08/25SPE4A025T4304.pdf  0000001EALEAD,STORAGE BATTER  DLS00D1N000
SPE4A025T43046150017079975                                    701317842608/08/25SPE4A025T4304.pdf  0000001EALEAD,STORAGE BATTER  DLS00D1N000
SPE4A025T43046150017079975                                    701317842708/08/25SPE4A025T4304.pdf  0000002EALEAD,STORAGE BATTER  DLS00D1N000
SPE4A025T43046150017079975                                    701317842808/08/25SPE4A025T4304.pdf  0000002EALEAD,STORAGE BATTER  DLS00D1N000
SPE4A025T43046150017079975                                    701317842908/08/25SPE4A025T4304.pdf  0000002EALEAD,STORAGE BATTER  DLS00D1N000
SPE4A025T43046150017079975                                    701317843008/08/25SPE4A025T4304.pdf  0000002EALEAD,STORAGE BATTER  DLS00D1N000
SPE4A025T46525935016100398                                    701337518609/02/25SPE4A025T4652.pdf  0000002EABACKSHELL,ELECTRICA  GPA65D1N000
SPE4A025T47821560008024690                                    701354701209/04/25SPE4A025T4782.pdf  0000001EADOOR,AIR             GPD00P1N000
SPE4A025T47835306016165828                                    701349268309/04/25SPE4A025T4783.pdf  0000010EABOLT,RIBBED NECK     GPD00D1N000
SPE4A025T47845975016992941                                    701349269209/04/25SPE4A025T4784.pdf  0000003EACOIL,VALVE           GPD00D1N000
SPE4A025T47855306014916937                                    701349269009/04/25SPE4A025T4785.pdf  0000002EABOLT,INTERNAL WRENC  GPD00R1N000
SPE4A025T47863120016183053                                    701349265809/04/25SPE4A025T4786.pdf  0000001EABUSHING,SLEEVE       GPD00Z1N000
SPE4A025T47876150016881574                                    701349263609/04/25SPE4A025T4787.pdf  0000001EAWIRING HARNESS,BRAN  GPD00G1N000
SPE4A025T47886680011622428                                    701349267709/04/25SPE4A025T4788.pdf  0000001EAFLOW STRAIGHTENER    GPD00D1N000
SPE4A025T47901680017016175                                    701349267109/04/25SPE4A025T4790.pdf  0000001EAPARTS KIT,WINCH      GPD00D1N000
SPE4A025T47915310011118245                                    701347569709/04/25SPE4A025T4791.pdf  0000010EANUT                  GPD00G1N000
SPE4A025T47925310005957031                                    701337521309/04/25SPE4A025T4792.pdf  0000001EAWASHER,FLAT          GPD00G1N000
SPE4A025T47930HS46TWG8025                                     701354703209/04/25SPE4A025T4793.pdf  0000003EAINSTRUMENTATION I ISTGPD00H2N000
SPE4A025T479464083VGM4472                                     701354705109/04/25SPE4A025T4794.pdf  0000002EAINSTRUMENTATION I ISTGPD00H2N000
SPE4A025T47956220015748754                                    701349644609/04/25SPE4A025T4795.pdf  0000001EAINDICATOR,LIGHT      GPD00C1N000
SPE4A025T47965975016102589                                    701348512809/04/25SPE4A025T4796.pdf  0000006EACONDUIT,NONMETALLIC  GPD00D1N000
SPE4A025T47975310014917599                                    701349268809/04/25SPE4A025T4797.pdf  0000004EANUT,PLAIN,HEXAGON    GPD00R1N000
SPE4A025T47981560015869828                                    701321001309/04/25SPE4A025T4798.pdf  0000010EABRACKET,STRUCTURAL   GPD00D1N000
SPE4A125Q01422915012011660                                    701275351609/10/25SPE4A125Q0142.pdf  0000007EASLEEVE,FULL CAM THR  DAH01R1N000
SPE4A125Q01431560010368337                                    701224881409/11/25SPE4A125Q0143.pdf  0000002EASKIN,AIRCRAFT        DAH01Q1N000
SPE4A125T56794810011397349                                    701326652609/02/25SPE4A125T5679.pdf  0000001EASERVOVALVE,HYDRAULI  DBB01B1N000
SPE4A125T56811680011618312                                    701342953109/02/25SPE4A125T5681.pdf  0000008EAFITTING ASSEMBLY,MI  GPP52L1N000
SPE4A125T56831560012045701                                    701343116109/02/25SPE4A125T5683.pdf  0000005EAPANEL,STRUCTURAL,AI  GPP52C1N000
SPE4A125T56843020015033420                                    701343013209/02/25SPE4A125T5684.pdf  0000002PRGEAR,SPUR            DAJ00Q1N000
SPE4A125T56935940013985988                                    701343882209/02/25SPE4A125T5693.pdf  0000300EATERMINAL STRIP,GROU  DKB01Q1N000
SPE4A125T56945360009491701                                    701343163509/02/25SPE4A125T5694.pdf  0000078EASPRING,HELICAL,COMP  GPP52L1N000
SPE4A125T57005306001510784                                    701337198909/02/25SPE4A125T5700.pdf  0000142HDBOL T,MACHINE        DJS04G1N000
SPE4A125T57092915012638926                                    701336818109/02/25SPE4A125T5709.pdf  0000034EADIAPHRAGM ASSY,HEAD  DSB00P1N000
SPE4A125T57555306005848285                                    701333408309/04/25SPE4A125T5755.pdf  0000173EABOL T,MACHINE        DJS04G1N000
SPE4A125T57562915009169787                                    701355692709/04/25SPE4A125T5756.pdf  0000260EACABLE ASSY,ELECTRIC  DAC00D1N000
SPE4A125T57572835009625816                                    701264443109/04/25SPE4A125T5757.pdf  0000011EASHAFT,DRIVE          DAJ00C1N000
SPE4A125T57585306003921638                                    701356107309/04/25SPE4A125T5758.pdf  0000335EABOLT,SHOULDER        DVW00C1N000
SPE4A125T57595340012277137                                    701356158809/04/25SPE4A125T5759.pdf  0000001EABRACKET,ANGLE        DVW00C1N000
SPE4A125T57605306008162549                                    701349490709/04/25SPE4A125T5760.pdf  0000010EABOLT,MACHINE         DLA00G1N000
SPE4A125T57615307016943158                                    701291865909/04/25SPE4A125T5761.pdf  0000001EASTUD,TAPPING,THREAD  DJB03P1N000
SPE4A125T57625961013623933                                    701268797909/04/25SPE4A125T5762.pdf  0000006EASEMICONDUCTOR DEVIC  DAC00D1N000
SPE4A525Q14061680015011728                                    701308481009/08/25SPE4A525Q1406.pdf  0000001EAPLATE,LIGHT          DKY00D1N000
SPE4A525T122G5310012110273                                    701136925609/02/25SPE4A525T122G.pdf  0001212EANUT,SELF-LOCKING     DEK00D1N000
SPE4A525T413Z4010014353029                                    701225102009/02/25SPE4A525T413Z.pdf  0000005EAWIRE ROPE ASSEMBLY,  DTL00G1N000
SPE4A525T420R5895016581356                                    701234472209/02/25SPE4A525T420R.pdf  0000005EAINTERCONNECTING BOX  DJC03Z1N000
SPE4A525T667H5995012648235                                    701336820509/02/25SPE4A525T667H.pdf  0000003EACABLE ASSEMBLY,POWE  DDH02C1N000
SPE4A525T674R4920016766778                                    700503517709/02/25SPE4A525T674R.pdf  0000003EASERVICING SET,VAPOR  DDW00G1N000
SPE4A525T679S4010014353029                                    701306279109/02/25SPE4A525T679S.pdf  0000004EAWIRE ROPE ASSEMBLY,  DHT00G1N000
SPE4A525T680M4010000427913                                    701343190609/02/25SPE4A525T680M.pdf  0000652EACHAIN,WELDLESS       DJJ01G1N000
SPE4A525T680Z1560004393715                                    701342980509/02/25SPE4A525T680Z.pdf  0000004EAVALVE ASSY,BLOWER    DCH00Q1N000
SPE4A525T681N5342011090306                                    701342982609/02/25SPE4A525T681N.pdf  0000047EACLEVIS ASSEMBLY      DCD01Q1N000
SPE4A525T681P6150009416503                                    701343158109/02/25SPE4A525T681P.pdf  0000005EACABLE ASSEMBLY,POWE  DCD01C1N000
SPE4A525T681U4710012458424                                    701343024209/02/25SPE4A525T681U.pdf  0000083EATUBE ASSEMBLY,METAL  DBB01L1N000
SPE4A525T681Y5340011132311                                    701342958909/02/25SPE4A525T681Y.pdf  0000026EABRACKET,ANGLE        DJB02D1N000
SPE4A525T682C6685011743812                                    701343081809/02/25SPE4A525T682C.pdf  0000009EAGAGE,PRESSURE,DIAL   DKC01Q1N000
SPE4A525T682X4810013617404                                    701343170409/02/25SPE4A525T682X.pdf  0000001EAVALVE,REGULATING,FL  DBC01C1N000
SPE4A525T682Z4710012458420                                    701343024109/02/25SPE4A525T682Z.pdf  0000111EATUBE ASSEMBLY,METAL  DKD01L1N000
SPE4A525T683P6150014291219                                    701343142209/02/25SPE4A525T683P.pdf  0000007EACABLE ASSEMBLY,SPEC  DRK00Z1N000
SPE4A525T683T5975014626803                                    701342880009/02/25SPE4A525T683T.pdf  0000004EAPANEL,ELECTRICAL-EL  DCD01B1N000
SPE4A525T683U3040014613014                                    701342877209/02/25SPE4A525T683U.pdf  0000054EASHAFT ASSEMBLY,SHOU  DBC01D1N000
SPE4A525T683V6685014698611                                    701343103409/02/25SPE4A525T683V.pdf  0000001EADAMPENER,FLUID PRES  DKC01D1N000
SPE4A525T684F6685014800909                                    701343127509/02/25SPE4A525T684F.pdf  0000003EATRANSMITTER,PRESSUR  DKC01D1Y100
SPE4A525T684M1680015043607                                    701343013709/02/25SPE4A525T684M.pdf  0000007EACURTAIN,LAVATORY     DHS00P1N000
SPE4A525T684P4920015225015                                    701342921609/02/25SPE4A525T684P.pdf  0000002EATEST SET,CALIBRATIO  DGF00Z1Y100
SPE4A525T684V6685015460200                                    701342926809/02/25SPE4A525T684V.pdf  0000002EAGAGE,DIFFERENTIAL,D  DKC01Q1N000
SPE4A525T685B6685015732719                                    701342918609/02/25SPE4A525T685B.pdf  0000184EAGAGE,COMPOUND PRESS  DDH01Q1N000
SPE4A525T685Y5365015882003                                    701343021309/02/25SPE4A525T685Y.pdf  0000002EASPACER,RING          DCD01D1N000
SPE4A525T686P6685016277310                                    701342995709/02/25SPE4A525T686P.pdf  0000005EATESTER,PYROMETER AN  DKC01D1N000
SPE4A525T686S6685016851922                                    701343128709/02/25SPE4A525T686S.pdf  0000015EAGAGE,PRESSURE,DIAL   DDH01D1Y100
SPE4A525T686T4920016117317                                    701342981709/02/25SPE4A525T686T.pdf  0000002EANRP,LOADING SET,AIR  DGF00D1Y100
SPE4A525T687G5975016622806                                    701342944609/02/25SPE4A525T687G.pdf  0000013EACOVER,CONDUIT OUTLE  DCD01D1N000
SPE4A525T687H5365017089504                                    701343119109/02/25SPE4A525T687H.pdf  0000125EASHIM                 DCD01G1N000
SPE4A525T688E5305011992010                                    701230117909/02/25SPE4A525T688E.pdf  0000857EASCREW                DBC01Q1N000
SPE4A525T688H4710006119601                                    701342881809/02/25SPE4A525T688H.pdf  0000002EATUBE,TURBINE OIL     DCM01Z1N000
SPE4A525T688L5365010245321                                    701343078909/02/25SPE4A525T688L.pdf  0000153EASHIM                 DBB01Q1N000
SPE4A525T688P5975012967106                                    701343105009/02/25SPE4A525T688P.pdf  0000076EACONDUIT ASSEMBLY,ME  DCD01G1R100
SPE4A525T688S5365012878606                                    701343094409/02/25SPE4A525T688S.pdf  0000034EASPACER               DBC01C1N000
SPE4A525T689A6685012655107                                    701336869209/02/25SPE4A525T689A.pdf  0000016EAGAGE,PRESSURE,DIAL   DKC01Q1N000
SPE4A525T689D5935015012021                                    701343051209/02/25SPE4A525T689D.pdf  0000013EACONNECTOR,PLUG,ELEC  DAB02B1N000
SPE4A525T689E4010015007624                                    701343044409/02/25SPE4A525T689E.pdf  0000014EACHAIN,WELDED         DGF00D1Y100
SPE4A525T689G4030016548925                                    701343019609/02/25SPE4A525T689G.pdf  0000002EAHOOK,HOIST           DGF00D1N000
SPE4A525T689H6685012533507                                    701343060109/02/25SPE4A525T689H.pdf  0000006EAGAGE,PRESSURE,DIAL   DKC01Q1N000
SPE4A525T689W6685014376916                                    701343144509/02/25SPE4A525T689W.pdf  0000002EAGAGE,PRESSURE,DIAL   DDH01R1N000
SPE4A525T691T6695251507803                                    701341832909/02/25SPE4A525T691T.pdf  0000012EAGAGE,ALTITUDE AND P  DKC01C1N000
SPE4A525T691X6685015099469                                    701323486209/02/25SPE4A525T691X.pdf  0000005EAGAGE,DIFFERENTIAL,D  DSW01L1Y100
SPE4A525T692L6210010553333                                    701306537109/02/25SPE4A525T692L.pdf  0000005EALENS,AIRCRAFT NAVIG  DDH02L1N000
SPE4A525T692N5935010394638                                    701306518509/02/25SPE4A525T692N.pdf  0000019EABACKSHELL,ELECTRICA  DAN00D1N000
SPE4A525T692P2835011696142                                    701306347309/02/25SPE4A525T692P.pdf  0000096EASEAL ASSEMBLY,COMPR  PARACP1N000
SPE4A525T692U2915011403968                                    701336820909/02/25SPE4A525T692U.pdf  0000004EAVALVE AND SLEEVE AS  PARACC1N000
SPE4A525T692X4920011560950                                    701306397409/02/25SPE4A525T692X.pdf  0000005EACOMPRESSOR,SPRING    DJW02C1N000
SPE4A525T692Y4820011800448                                    701306343809/02/25SPE4A525T692Y.pdf  0000002EAVALVE,LOAD CONTROL   DKD01D1N000
SPE4A525T692Z5340011996238                                    701306466409/02/25SPE4A525T692Z.pdf  0000092EARETAINER,HELICAL CO  DBB01D1N000
SPE4A525T693A1560011995234                                    701306466509/02/25SPE4A525T693A.pdf  0000005EADOOR TRACK ASSEMBLY  DKY00C1N000
SPE4A525T706B5330010481648                                    701354791909/04/25SPE4A525T706B.pdf  0000015EAGASKET               DKD01D1N000
SPE4A525T706C5342011598249                                    701354771109/04/25SPE4A525T706C.pdf  0000038EALINK                 DKD01D1N000
SPE4A525T706D1650010122859                                    701354794209/04/25SPE4A525T706D.pdf  0000004EAVALVE,AIRCRAFT HYDR  DJC03C1N000
SPE4A525T706E4710011126225                                    701354789509/04/25SPE4A525T706E.pdf  0000227EATUBING,NONMETALLIC   DJB03R1N000
SPE4A525T706F5365011711418                                    701342940409/04/25SPE4A525T706F.pdf  0000015EASPACER,RING          DSC00P1N000
SPE4A525T706G6685015069458                                    701354777409/04/25SPE4A525T706G.pdf  0000026EAFUEL WATER ELEMENT   DSW01R1N000
SPE4A525T706H1660017289813                                    701322348909/04/25SPE4A525T706H.pdf  0000001EADUCT ASSEMBLY,AIR C  DJB02C1N000
SPE4A525T706J5315013705651                                    701349257709/04/25SPE4A525T706J.pdf  0000008EAPIN,STRAIGHT,HEADLE  DKD00C1N000
SPE4A525T706K6685011185411                                    701345337709/04/25SPE4A525T706K.pdf  0000002EAGAGE,PRESSURE,DIAL   DJB02D1N000
SPE4A525T706L1560014936587                                    700510557909/04/25SPE4A525T706L.pdf  0000001EASUPPORT,STRUCTURAL   GPF46C1N000
SPE4A525T706M5315011917605                                    701343081209/04/25SPE4A525T706M.pdf  0000020EAPIN,STRAIGHT,HEADLE  DBC01L1N000
SPE4A525T706N5365016450620                                    701354701509/04/25SPE4A525T706N.pdf  0000002EASPACER,PLATE         DSC00Q1N000
SPE4A525T706P5310006028051                                    701336850609/04/25SPE4A525T706P.pdf  0000006EANUT,COUPLING,HIGH S  DKR00Z1N000
SPE4A525T706Q1560003337106                                    701342961309/04/25SPE4A525T706Q.pdf  0000002EAPANEL ASSEMBLY,COCK  DCD01G1N000
SPE4A525T706R6685014848683                                    701333340009/04/25SPE4A525T706R.pdf  0000005EATRANSMITTER,PRESSUR  DMW01Q1R100
SPE4A525T706S3040005281522                                    701355660209/04/25SPE4A525T706S.pdf  0000013EACONNECTING LINK,RIG  DSC00P1N000
SPE4A525T706T2840001058366                                    701336907109/04/25SPE4A525T706T.pdf  0000002EADISK AND HUB,COMPRE  DJB04V1Y100
SPE4A525T706U1560016159806                                    701343016309/04/25SPE4A525T706U.pdf  0000004EAWEB,INBD,LH CLOSURE  DCD01G1Y100
SPE4A525T706V4820011891624                                    701343071209/04/25SPE4A525T706V.pdf  0000012EAVALVE, VENT          DJB03Q1N000
SPE4A525T706W1560012993522                                    701319568309/04/25SPE4A525T706W.pdf  0000001EASKIN,AIRCRAFT        DSC00D1N000
SPE4A525T706X5340014357612                                    701355668709/04/25SPE4A525T706X.pdf  0000034EABRACKET,MOUNTING     DHS00D1N000
SPE4A525T706Y1560016627831                                    701355663809/04/25SPE4A525T706Y.pdf  0000003EAPYLON,AIRCRAFT       DKY00P1N000
SPE4A525T706Z5340013870410                                    701355661509/04/25SPE4A525T706Z.pdf  0000001EABRACKET,ANGLE        DHS00D1N000
SPE4A525T707A1560014162907                                    701343153109/04/25SPE4A525T707A.pdf  0000002EAINSULATION,THERMAL,  DCG01P1N000
SPE4A525T707B4710014622390                                    701355671709/04/25SPE4A525T707B.pdf  0000010EATUBE ASSEMBLY,METAL  DCF00C1N000
SPE4A525T707C6110015223265                                    700152533409/04/25SPE4A525T707C.pdf  0000005EAPANEL CONTROL INTEN  DGS00R1N000
SPE4A525T707D5330014884767                                    700152560709/04/25SPE4A525T707D.pdf  0000050EAGASKET               DGS00D1N000
SPE4A525T707E1560014596124                                    701342877109/04/25SPE4A525T707E.pdf  0000002EAWING ASSEMBLY,AIRCR  DCG01D1N000
SPE4A525T707F5330016772656                                    700354203909/04/25SPE4A525T707F.pdf  0000007EAGASKET,SPIRAL WOUND  DGS00D1N000
SPE4A525T707G5975012389557                                    701348109609/04/25SPE4A525T707G.pdf  0000003EABRACKET,CABLE        DJC03G1N000
SPE4A525T707G5975012389557                                    701349535009/04/25SPE4A525T707G.pdf  0000001EABRACKET,CABLE        DJC03G1N000
SPE4A525T707H2915011403420                                    701342916909/04/25SPE4A525T707H.pdf  0000016EASLEEVE,ADJUSTMENT    DBC01C1N000
SPE4A525T707J2835011476604                                    701342909209/04/25SPE4A525T707J.pdf  0000001EACYLINDER,TORQUEMETE  DHS00D1N000
SPE4A525T707K2840004858319                                    701342991209/04/25SPE4A525T707K.pdf  0000085EASPACER HALF,FLAT     DHS00P1N000
SPE4A525T707L5315002316826                                    701193604409/04/25SPE4A525T707L.pdf  0000029EAPIN,QUICK RELEASE    DKY00G1N000
SPE4A525T707M2840011310500                                    701342988709/04/25SPE4A525T707M.pdf  0000043EAADAPTER,GEARBOX      DCM01C1N000
SPE4A525T707N2840015911523                                    701343025109/04/25SPE4A525T707N.pdf  0000004EATRANSDUCER PRESSU,   DBC01P1N000
SPE4A525T707P4010011527148                                    701176247209/04/25SPE4A525T707P.pdf  0000002EAWIRE ROPE ASSEMBLY,  DKY00D1N000
SPE4A525T707Q5975005018058                                    701336908409/04/25SPE4A525T707Q.pdf  0000257EACAP,SPLICE RETENSIO  DJC03G1N000
SPE4A525T707R1560016934879                                    701053192809/04/25SPE4A525T707R.pdf  0000024EAFORMER,AIRCRAFT      DTD00D1N000
SPE4A525T707S1560014191564                                    701323276609/04/25SPE4A525T707S.pdf  0000010EAFIREWALL,FUSELAGE    DMA01P1N000
SPE4A525T707T5975016128610                                    701343389909/04/25SPE4A525T707T.pdf  0000001EABASE,CHASSIS         GPF46H1N000
SPE4A525T707U5306010213326                                    701354794109/04/25SPE4A525T707U.pdf  0000183EABOLT,MACHINE         DJB03L1N000
SPE4A525T707V8040013347599                                    701349879309/04/25SPE4A525T707V.pdf  0000020CAADHESIVE             DAK00D1N000
SPE4A525T707W1560017321203                                    701342900609/04/25SPE4A525T707W.pdf  0000045EAPANEL,STRUCTURAL,AI  DCG01C1Y100
SPE4A525T707X5320016079025                                    701342977209/04/25SPE4A525T707X.pdf  0000834EARIVET,SOLID          DSC00C1N000
SPE4A525T707Y6685010648957                                    701336953009/04/25SPE4A525T707Y.pdf  0000026EAGAGE,DIFFERENTIAL,D  DSW01D1Y100
SPE4A525T707Z1560015613515                                    701342889609/04/25SPE4A525T707Z.pdf  0000004EAPARTS KIT,CONTROL SURDTJ00P1N000
SPE4A525T708A5826015047201                                    701343013909/04/25SPE4A525T708A.pdf  0000003EACONTROL,MODE SELECT  DTJ00Q1N000
SPE4A525T708B6695015368274                                    701337080909/04/25SPE4A525T708B.pdf  0000027EATRANSDUCER,MOTIONAL  DMW01D1Y100
SPE4A525T708C6695016499257                                    701344134509/04/25SPE4A525T708C.pdf  0000004EABEZEL,INSTRUMENT MO  DSW01D1N000
SPE4A525T708D1560017319514                                    701342919109/04/25SPE4A525T708D.pdf  0000005EAKNOB ASSEMBLY        DRK00P1N000
SPE4A625Q17666220014833233                                    701300814609/09/25SPE4A625Q1766.pdf  0000090EACONTROL,ELECTRIC LI  GPP29B1N000
SPE4A625Q17696830012545030                                    701148135808/28/25SPE4A625Q1769.pdf  0000070EABROMOCHLORODIFLUORO  DBC00C1N000
SPE4A625Q17715310017287384                                    701249086209/04/25SPE4A625Q1771.pdf  0000080EANUT,SELF-LOCKING,PL  DVP00C1N000
SPE4A625Q17725305017320783                                    701333114709/04/25SPE4A625Q1772.pdf  0000200EASCREW,CLOSE TOLERAN  DVP00G1N000
SPE4A625Q17755310150685628                                    701268670109/02/25SPE4A625Q1775.pdf  0000085EANUT,PLAIN,HEXAGON    DAJ00G1N000
SPE4A625Q17765995013837476                                    701323944608/29/25SPE4A625Q1776.pdf  0000001EACABLE ASSEMBLY,RADI  DTN00C1N000
SPE4A625T03MP5310014146526                                    701268773609/02/25SPE4A625T03MP.pdf  0000008EAWASHER,FLAT          DMW01L1N000
SPE4A625T05GE5310015563834                                    701219788809/02/25SPE4A625T05GE.pdf  0000001EAWASHER,FLAT          DCC02G1N000
SPE4A625T15QG1420017180235                                    701291882309/02/25SPE4A625T15QG.pdf  0000001EACOVER,PROTECTIVE,GU  DCC02G1N000
SPE4A625T15Z85995012219247                                    701155187009/02/25SPE4A625T15Z8.pdf  0000023EACORD ASSEMBLY,ELECT  DML01T1N000
SPE4A625T17WD5995016280526                                    701268673009/02/25SPE4A625T17WD.pdf  0000003EACABLE ASSEMBLY,SPEC  DVB00D1N000
SPE4A625T18MC5315015828629                                    701291931109/02/25SPE4A625T18MC.pdf  0000001EAKEY,MACHINE          DSB02Q1N000
SPE4A625T19GY5315003431734                                    701313688809/02/25SPE4A625T19GY.pdf  0000010EAKEY,MACHINE          DMJ00R1N000
SPE4A625T19GZ5315003431734                                    701313688909/02/25SPE4A625T19GZ.pdf  0000010EAKEY,MACHINE          DMJ00R1N000
SPE4A625T19ZH5995016782130                                    701306464309/02/25SPE4A625T19ZH.pdf  0000006EACABLE ASSEMBLY,SPECIADAB02R1N000
SPE4A625T21Y85305006263495                                    701154935009/02/25SPE4A625T21Y8.pdf  0000013PGSCREW,MACHINE        DMG01G1N000
SPE4A625T22EF5320013909063                                    701323367509/02/25SPE4A625T22EF.pdf  0000296EAPIN-RIVET            GWO26C1N000
SPE4A625T22HQ5975015069170                                    701323459009/02/25SPE4A625T22HQ.pdf  0000348EAHANGER,CABLE         DRE00D1N000
SPE4A625T23GB5310016584323                                    701270082309/02/25SPE4A625T23GB.pdf  0000001EANUT,PLAIN,HEXAGON    PARFEQ1N000
SPE4A625T24XM6680011635453                                    701004642009/02/25SPE4A625T24XM.pdf  0000005EAGENERATOR,TACHOMETER DDM01G1N000
SPE4A625T25VL4010013319380                                    701333202909/02/25SPE4A625T25VL.pdf  0000010EAWIRE ROPE ASSEMBLY,  GPP49Q1N000
SPE4A625T26VN6620014119295                                    701249055409/02/25SPE4A625T26VN.pdf  0000190EATRANSMITTER,PRESSUR  DCR00Q1N000
SPE4A625T27FV5315008338460                                    701323387509/02/25SPE4A625T27FV.pdf  0000112EAPIN,STRAIGHT,THREAD  DAS01G1N000
SPE4A625T27XN6150016566490                                    701337134909/02/25SPE4A625T27XN.pdf  0000013EACABLE ASSEMBLY,SPEC  DTB01Q1Y100
SPE4A625T29HY3120003176278                                    701333089509/02/25SPE4A625T29HY.pdf  0000096EABEARING,SLEEVE       DKR00Q1N000
SPE4A625T29PR5305000192417                                    701343190309/02/25SPE4A625T29PR.pdf  0002260EASCREW,ASSEMBLED WAS  DMB03D1N000
SPE4A625T29PZ2835002989311                                    701343158209/02/25SPE4A625T29PZ.pdf  0000180EARETAINER,NUT,LAY SH  DAS02R1Y100
SPE4A625T29QK3110001355919                                    701343195909/02/25SPE4A625T29QK.pdf  0000030EABEARING,BALL,ANNULA  DJJ00R1N000
SPE4A625T29QV3110005165513                                    701342973109/02/25SPE4A625T29QV.pdf  0000023EABEARING,ROLLER,ROD   DMW01P1N000
SPE4A625T29RA5995005487118                                    701342895009/02/25SPE4A625T29RA.pdf  0000006EACABLE ASSEMBLY,SPEC  DJF01P1N000
SPE4A625T29RD5325001745315                                    701343145209/02/25SPE4A625T29RD.pdf  0000056PGGROMMET,NONMETALLIC  DPH00G1N000
SPE4A625T29RF3110003316819                                    701342961209/02/25SPE4A625T29RF.pdf  0000030EABEARING,ROLLER,CYLI  DJJ00D1N000
SPE4A625T29RG3110003387514                                    701342961609/02/25SPE4A625T29RG.pdf  0000010EABEARING,BALL,ANNULA  DJW02P1N000
SPE4A625T29RQ5310003349703                                    701342961409/02/25SPE4A625T29RQ.pdf  0000013EANUT,PLAIN,KNURLED    DAJ00G1N000
SPE4A625T29RV5305003647308                                    701342936709/02/25SPE4A625T29RV.pdf  0000268EASCREW,MACHINE        DBM01C1N000
SPE4A625T29SA2835005507503                                    701342895209/02/25SPE4A625T29SA.pdf  0000016EANOZZLE,LUBRICATING,  DTH00R1N000
SPE4A625T29SH5310007613714                                    701342947509/02/25SPE4A625T29SH.pdf  0002069EANUT,SELF-LOCKING,PL  DHH00G1N000
SPE4A625T29SK5306007858501                                    701342922509/02/25SPE4A625T29SK.pdf  0000016EABOLT,MACHINE         DTC01C1N000
SPE4A625T29SP5325009135408                                    701343172109/02/25SPE4A625T29SP.pdf  0000052EAINSERT,SCREW THREAD  DSY00R1N000
SPE4A625T29SQ3110008455816                                    701342989609/02/25SPE4A625T29SQ.pdf  0000048EABEARING,BALL,ANNULA  DJW02G1N000
SPE4A625T29TB5325009301618                                    701343156309/02/25SPE4A625T29TB.pdf  0000165EAINSERT,SCREW THREAD  DPH00B1N000
SPE4A625T29TD3130009113800                                    701343169509/02/25SPE4A625T29TD.pdf  0000012EAHOUSING,BEARING UNI  GPP79C1N000
SPE4A625T29TH6210010231511                                    701343078709/02/25SPE4A625T29TH.pdf  0000079EALIGHT,PANEL          DTH00H1N000
SPE4A625T29TN2835010139905                                    701343072609/02/25SPE4A625T29TN.pdf  0000017EAHOUSING,GEARBOX,TUR  DTH00D1N000
SPE4A625T29TP5315010334310                                    701343059209/02/25SPE4A625T29TP.pdf  0000045EAPIN,QUICK RELEASE    DCM01R1Y100
SPE4A625T29TQ3120010501108                                    701343112109/02/25SPE4A625T29TQ.pdf  0000100EABUSHING,SLEEVE       GPP19Q1L100
SPE4A625T29TX6210011045020                                    701342976809/02/25SPE4A625T29TX.pdf  0000004EALENS,LIGHT           DEB00D1N000
SPE4A625T29UB5325010671102                                    701342995809/02/25SPE4A625T29UB.pdf  0000036EARING,RETAINING       DTC01G1N000
SPE4A625T29UC5325011211808                                    701343000909/02/25SPE4A625T29UC.pdf  0000087EASTUD,TURNLOCK FASTE  DSY00C1N000
SPE4A625T29UK6340010085312                                    701342905109/02/25SPE4A625T29UK.pdf  0000003EAALARM-MONITOR        DAS02C1N000
SPE4A625T29VF5306011096716                                    701342970509/02/25SPE4A625T29VF.pdf  0001265EABOLT,MACHINE         DPH00G1N000
SPE4A625T29VH5342012705601                                    701343069709/02/25SPE4A625T29VH.pdf  0000130EASTOP                 DTH00P1N000
SPE4A625T29VL3120012871620                                    701343064609/02/25SPE4A625T29VL.pdf  0000020EABEARING, SLEEVE      DJJ00P1N000
SPE4A625T29VM5320011337308                                    701342994309/02/25SPE4A625T29VM.pdf  0000189EAPIN-RIVET            DSG00C1N000
SPE4A625T29VR6150010751710                                    701343004409/02/25SPE4A625T29VR.pdf  0000006EACABLE ASSEMBLY,UMBILIDPJ00C1N000
SPE4A625T29VZ1660011411006                                    701342923009/02/25SPE4A625T29VZ.pdf  0000041EARING RETAINER,VALVE  DTH00P1N000
SPE4A625T29WD3120011581500                                    701342909409/02/25SPE4A625T29WD.pdf  0000017EABEARING,PLAIN,ROD E  GPP79B1N000
SPE4A625T29WE1420010931319                                    701343030209/02/25SPE4A625T29WE.pdf  0000019EACOVER,STUD           DAA00C1N000
SPE4A625T29WQ5995011941210                                    701343116409/02/25SPE4A625T29WQ.pdf  0000007EACABLE ASSEMBLY,POWE  DPJ00G1R100
SPE4A625T29XA5305012509210                                    701343054209/02/25SPE4A625T29XA.pdf  0000003EASCREW,MACHINE        DKB02C1N000
SPE4A625T29XB5320013988917                                    701343111009/02/25SPE4A625T29XB.pdf  0000159EARIVET,BLIND          DSH01Z1N000
SPE4A625T29XV5305012768602                                    701343074609/02/25SPE4A625T29XV.pdf  0000032EASCREW,CLOSE TOLERAN  DAJ00G1N000
SPE4A625T29XX5305012831120                                    701343057709/02/25SPE4A625T29XX.pdf  0000024EASCREW,CAP,SOCKET HE  DAJ00P1N000
SPE4A625T29YJ5306013434213                                    701343053409/02/25SPE4A625T29YJ.pdf  0000131EABOLT,SHEAR           DSY00G1N000
SPE4A625T29YR6680014561518                                    701342904209/02/25SPE4A625T29YR.pdf  0000001EAMETER,FLUID FLOW IN  DJJ00Q1N000
SPE4A625T29ZA5305013343902                                    701343041309/02/25SPE4A625T29ZA.pdf  0000704EASCREW,MACHINE        DAJ00G1N000
SPE4A625T29ZH5970013519002                                    701343033409/02/25SPE4A625T29ZH.pdf  0000031BXINSULATION SLEEVING  DCP00D1N000
SPE4A625T29ZN6150013933724                                    701343129509/02/25SPE4A625T29ZN.pdf  0000004EAWIRING HARNESS       DAP00G1N000
SPE4A625T30AF6680014214001                                    701343147409/02/25SPE4A625T30AF.pdf  0000007EATRANSMITTER,RATE OF  GPP79C1Y100
SPE4A625T30AH5305014355215                                    701343141909/02/25SPE4A625T30AH.pdf  0000234EASCREW,MACHINE        DHH00R1N000
SPE4A625T30AT5305014110108                                    701343118509/02/25SPE4A625T30AT.pdf  0000010EASCREW,CAP,SOCKET HE  DBM01G1N000
SPE4A625T30BB5305014440503                                    701343137809/02/25SPE4A625T30BB.pdf  0000011EASETSCREW             DAJ00L1N000
SPE4A625T30BE5305013931912                                    701343129409/02/25SPE4A625T30BE.pdf  0000107EASCREW,CAP,HEXAGON H  DAS02L1N000
SPE4A625T30BM6150014616305                                    701342877409/02/25SPE4A625T30BM.pdf  0000055EABUS,CONDUCTOR        DAB02G1N000
SPE4A625T30BY5320014851611                                    701343115109/02/25SPE4A625T30BY.pdf  0000060EACOLLAR,PIN-RIVET     DCM01L1N000
SPE4A625T30CB5306014819420                                    701343110309/02/25SPE4A625T30CB.pdf  0000375EABOLT,CLOSE TOLERANC  DPH00Q1N000
SPE4A625T30CE5995014446201                                    701343141209/02/25SPE4A625T30CE.pdf  0000007EACABLE ASSEMBLY,SPEC  DWC00C1N000
SPE4A625T30CG5310014856214                                    701343115309/02/25SPE4A625T30CG.pdf  0001107EANUT,SELF-LOCKING,CA  DHH00G1Y100
SPE4A625T30CP3110015139715                                    701342930709/02/25SPE4A625T30CP.pdf  0000006EABEARING,ROLLER,CYLINDDJW02D1N000
SPE4A625T30CW5305014971006                                    701342974809/02/25SPE4A625T30CW.pdf  0000850EASCREW,CAP,SOCKET HE  PARFEG1Y100
SPE4A625T30CX5310015004916                                    701343044109/02/25SPE4A625T30CX.pdf  0000083EAWASHER,FLAT          DMB03L1N000
SPE4A625T30CY5306015220007                                    701342921409/02/25SPE4A625T30CY.pdf  0000033EABOLT,SHEAR           DSY00G1N000
SPE4A625T30DA3120014961801                                    701342974309/02/25SPE4A625T30DA.pdf  0000005EABEARING,PLAIN,ROD E  GPP79C1Y100
SPE4A625T30DJ3120014997708                                    701343038709/02/25SPE4A625T30DJ.pdf  0000007EABEARING,SLEEVE       GPP19D1N000
SPE4A625T30DS5306015029512                                    701343038409/02/25SPE4A625T30DS.pdf  0000004EABOLT,MACHINE         DSY00B1N000
SPE4A625T30DW5998015534705                                    701342972409/02/25SPE4A625T30DW.pdf  0000015EACIRCUIT CARD ASSEMB  DTH00L1N000
SPE4A625T30DY5306015611210                                    701342889509/02/25SPE4A625T30DY.pdf  0000371EABOLT,MACHINE         DSY00G1N000
SPE4A625T30EG5310015764725                                    701342902309/02/25SPE4A625T30EG.pdf  0000015EAWASHER,FLAT          DTA00C1N000
SPE4A625T30EQ6150015754308                                    701342898909/02/25SPE4A625T30EQ.pdf  0000009EAWIRING HARNESS,BRAN  DKF00C1Y100
SPE4A625T30EW6680015561808                                    701342950909/02/25SPE4A625T30EW.pdf  0000003EAMETER,FLOW RATE IND  GPP19Q1N000
SPE4A625T30FN5995016155800                                    701343012909/02/25SPE4A625T30FN.pdf  0000005EACABLE ASSEMBLY,SPEC  DJF01G1N000
SPE4A625T30GD5306015566520                                    701342954709/02/25SPE4A625T30GD.pdf  0000058EABOLT,MACHINE         DPH00C1N000
SPE4A625T30GU6150016318718                                    701342983109/02/25SPE4A625T30GU.pdf  0000001EACABLE ASSEMBLY,POWE  DJF01Q1N000
SPE4A625T30GW5995016427018                                    701342989109/02/25SPE4A625T30GW.pdf  0000006EACABLE ASSEMBLY,SPEC  DJF01D1N000
SPE4A625T30GX5995016585408                                    701343023409/02/25SPE4A625T30GX.pdf  0000015EACABLE ASSEMBLY,RADI  DKF00G1N000
SPE4A625T30HQ5305016770019                                    701343117909/02/25SPE4A625T30HQ.pdf  0000542EASCREW,CAP,SOCKET HE  DAA00D1N000
SPE4A625T30JG6150016281223                                    701342998109/02/25SPE4A625T30JG.pdf  0000010EACABLE ASSEMBLY,SPEC  DJF01C1N000
SPE4A625T30JW5120016045617                                    701343021209/02/25SPE4A625T30JW.pdf  0000014EAROD,BRAZING          DMB03Z1N000
SPE4A625T30KA5120016197907                                    701343002409/02/25SPE4A625T30KA.pdf  0000009EAREMOVAL TOOL,VALVE   DAJ00C1N000
SPE4A625T30KE5320016069625                                    701342996409/02/25SPE4A625T30KE.pdf  0000516EARIVET,BLIND          DSB02G1N000
SPE4A625T30KG6670016595102                                    701342938109/02/25SPE4A625T30KG.pdf  0000001EALOAD CELL,FORCE-WEI  GPP79Q1N000
SPE4A625T30KH5305016262800                                    701342995209/02/25SPE4A625T30KH.pdf  0000144EASCREW,CAP,HEXAGON H  DAJ00G1N000
SPE4A625T30KL5995017137913                                    701343159809/02/25SPE4A625T30KL.pdf  0000003EACABLE ASSEMBLY,SPEC  DBV00G1N000
SPE4A625T30KM5305016653107                                    701342928709/02/25SPE4A625T30KM.pdf  0000323EASCREW,CAP,HEXAGON H  DAJ00G1N000
SPE4A625T30KX5305017165210                                    701343149309/02/25SPE4A625T30KX.pdf  0000013EASCREW,CAP,HEXAGON H  DBM01G1N000
SPE4A625T30LA5305017188309                                    701343070709/02/25SPE4A625T30LA.pdf  0000003EASCREW,CAP,SOCKET HE  DKB02G1N000
SPE4A625T30LD5305017188311                                    701343070809/02/25SPE4A625T30LD.pdf  0000008EASCREW,CAP,SOCKET HE  DAS02G1N000
SPE4A625T30LH5305017177102                                    701343149809/02/25SPE4A625T30LH.pdf  0000013EASCREW,CAP,SOCKET HE  DAJ00G1N000
SPE4A625T30LK5305017213505                                    701343058009/02/25SPE4A625T30LK.pdf  0000011EASETSCREW             DAA00G1N000
SPE4A625T30LL5305017192216                                    701343077109/02/25SPE4A625T30LL.pdf  0000007EASCREW,CAP,HEXAGON H  DMB03G1N000
SPE4A625T30LP5305017222006                                    701343065409/02/25SPE4A625T30LP.pdf  0000016EASCREW,CAP,HEXAGON H  PARFEG1N000
SPE4A625T30LS5305017222009                                    701343065509/02/25SPE4A625T30LS.pdf  0000009EASCREW,CAP,HEXAGON H  DKB02G1N000
SPE4A625T30MD5995016685715                                    701342968609/02/25SPE4A625T30MD.pdf  0000004EACABLE ASSEMBLY,SPEC  DVB00G1N000
SPE4A625T30MP6150016904714                                    701343066909/02/25SPE4A625T30MP.pdf  0000004EAPOWER STRIP,ELECTRI  DAP00Z1N000
SPE4A625T30MT5305016744424                                    701342955709/02/25SPE4A625T30MT.pdf  0001098EASCREW,CAP,HEXAGON H  PARFEG1N000
SPE4A625T30ND6230996694206                                    701343181909/02/25SPE4A625T30ND.pdf  0000003EAFLOODLIGHT,ELECTRIC  DKF00D1N000
SPE4A625T30NG5315017138701                                    701343159909/02/25SPE4A625T30NG.pdf  0000009EAPIN,QUICK RELEASE    DSG00G1N000
SPE4A625T30NK5305017164715                                    701343149109/02/25SPE4A625T30NK.pdf  0000013EASCREW,CAP,HEXAGON H  DHH00G1N000
SPE4A625T30NQ5320017185514                                    701343155409/02/25SPE4A625T30NQ.pdf  0000025EAPIN-RIVET            DCM01G1N000
SPE4A625T30NW5305017222003                                    701343065309/02/25SPE4A625T30NW.pdf  0000004EASCREW,CAP,SOCKET HE  DAJ00G1N000
SPE4A625T30NY5305017221512                                    701343058909/02/25SPE4A625T30NY.pdf  0000013EASCREW,MACHINE        DAS02G1N000
SPE4A625T30PA5310017022305                                    701343080809/02/25SPE4A625T30PA.pdf  0000028EAWASHER,FLAT          DAA00G1N000
SPE4A625T30PH5305017092317                                    701343119309/02/25SPE4A625T30PH.pdf  0000023EASCREW,MACHINE        DMB03G1N000
SPE4A625T30PQ5306017142119                                    701343162409/02/25SPE4A625T30PQ.pdf  0000015EAROD,CONTINUOUS THRE  DPH00G1N000
SPE4A625T30PS5305017150804                                    701343146709/02/25SPE4A625T30PS.pdf  0000019EASCREW,CAP,SOCKET HE  DAA00G1N000
SPE4A625T30QC5305017238108                                    701343084909/02/25SPE4A625T30QC.pdf  0000011EASCREW,CAP,SOCKET HE  DBM01G1N000
SPE4A625T30QJ6150145858612                                    701343176509/02/25SPE4A625T30QJ.pdf  0000001EAWIRING HARNESS,BRAN  DBV00Q1R100
SPE4A625T30RZ5120015016717                                    701337531009/02/25SPE4A625T30RZ.pdf  0000002EAINSERTER AND REMOVE  DMB03G1N000
SPE4A625T30RZ5120015016717                                    701343393009/02/25SPE4A625T30RZ.pdf  0000001EAINSERTER AND REMOVE  DMB03G1N000
SPE4A625T30RZ5120015016717                                    701343393109/02/25SPE4A625T30RZ.pdf  0000007EAINSERTER AND REMOVE  DMB03G1N000
SPE4A625T30SN5306014874708                                    701342999109/02/25SPE4A625T30SN.pdf  0000014EABOLT,MACHINE         DSY00G1N000
SPE4A625T30SW5120016919216                                    701343042509/02/25SPE4A625T30SW.pdf  0000005EAJACK,LEVELING-SUPPO  DMB03G1N000
SPE4A625T30TC3110001556675                                    701089231609/02/25SPE4A625T30TC.pdf  0000040EABEARING, BALL, ANNULADAT00Q1N000
SPE4A625T30TT5315016128104                                    701343012009/02/25SPE4A625T30TT.pdf  0000041EAPIN,STRAIGHT,HEADED  DSG00G1N000
SPE4A625T30TX5305016956018                                    701343086509/02/25SPE4A625T30TX.pdf  0000250EASCREW,CAP,SOCKET HE  DXK00L1N000
SPE4A625T30TZ5320016069624                                    701342996309/02/25SPE4A625T30TZ.pdf  0000266EARIVET,BLIND          DSH01G1N000
SPE4A625T30UC3120010671382                                    701065434909/02/25SPE4A625T30UC.pdf  0000001EABUSHING              DAT00Q1N000
SPE4A625T30UH5325011940903                                    701343116309/02/25SPE4A625T30UH.pdf  0000021EAINSERT,SCREW THREAD  DTC01D1N000
SPE4A625T30UR5325014872317                                    701343122009/02/25SPE4A625T30UR.pdf  0000017EARING,RETAINING       DPH00L1N000
SPE4A625T30VR5320012764923                                    701343074509/02/25SPE4A625T30VR.pdf  0002348EARIVET,BLIND          DSH01G1N000
SPE4A625T30VU5320009294193                                    701333349109/02/25SPE4A625T30VU.pdf  0000232EAPIN-RIVET            DJH02B1N000
SPE4A625T30WE5120016293748                                    701334609409/02/25SPE4A625T30WE.pdf  0000008EAINSTALLATION TOOL,B  DKG00G1N000
SPE4A625T30WR5315012782124                                    701343079009/02/25SPE4A625T30WR.pdf  0000450EAPIN,SPRING           DSH01G1N000
SPE4A625T30WU5320017307794                                    701333343309/02/25SPE4A625T30WU.pdf  0000125EAPIN-RIVET            DJH02D1N000
SPE4A625T30XJ6150011448900                                    701342927009/02/25SPE4A625T30XJ.pdf  0000291EAWIRING HARNESS,BRAN  DJF01G1R100
SPE4A625T30XL5365013334725                                    701343005309/02/25SPE4A625T30XL.pdf  0000099EASPACER,PROJECTILE    GPP29G1Y100
SPE4A625T30XM5306010675187                                    701333165909/02/25SPE4A625T30XM.pdf  0000012EABOLT,SHEAR           DJS02L1N000
SPE4A625T30XR6220014691817                                    701343103009/02/25SPE4A625T30XR.pdf  0000002EAPANEL,INDICATING,LI  DSC00R1R100
SPE4A625T30YB5315011861488                                    701333291309/02/25SPE4A625T30YB.pdf  0000008EAPIN,STRUT ASSEMBLY   DEM00R1N000
SPE4A625T30YE6150012583722                                    701343039009/02/25SPE4A625T30YE.pdf  0000013EACABLE ASSEMBLY,SPEC  DSC00C1N000
SPE4A625T30YX6150017145304                                    701343162609/02/25SPE4A625T30YX.pdf  0000007EACABLE ASSEMBLY,POWE  DWC00G1Y100
SPE4A625T30ZA6680016460104                                    701343034909/02/25SPE4A625T30ZA.pdf  0000002EAMETER,FLUID FLOW,EL  DML01D1N000
SPE4A625T30ZD5305017320866                                    701323244809/02/25SPE4A625T30ZD.pdf  0000225EASCREW,CLOSE TOLERAN  DEE00G1N000
SPE4A625T30ZK5310004860399                                    701290157509/02/25SPE4A625T30ZK.pdf  0003243EANUT,PLAIN,HEXAGON    DBM01G1N000
SPE4A625T30ZT6680014167960                                    701343974909/02/25SPE4A625T30ZT.pdf  0000005EATRANSMITTER,LIQUID   DEC00D1R100
SPE4A625T30ZZ5320011416716                                    701342923309/02/25SPE4A625T30ZZ.pdf  0000440EARIVET,BLIND          DCM01G1N000
SPE4A625T31AB5305017215397                                    701291904309/02/25SPE4A625T31AB.pdf  0000002EASCREW,CAP,HEXAGON H  DDB02G1N000
SPE4A625T31AL3120015234192                                    700645141309/02/25SPE4A625T31AL.pdf  0000152EABUSHING,SLEEVE       DCR00G1N000
SPE4A625T31BK2835010191192                                    701333240609/02/25SPE4A625T31BK.pdf  0000014EASLINGER,DECOUPLER    DMB03P1N000
SPE4A625T31BM6680015083964                                    701275517809/02/25SPE4A625T31BM.pdf  0000003EAINDICATOR,SIGHT,LIQ  DNY00D1N000
SPE4A625T31BT5315000589816                                    701343192509/02/25SPE4A625T31BT.pdf  0001276EAPIN,SPRING           DCM01G1N000
SPE4A625T31CA6220014433031                                    701230325109/02/25SPE4A625T31CA.pdf  0000004EALIGHT,NAVIGATIONAL,  DAB02C1N000
SPE4A625T31CC5306010672416                                    701342998009/02/25SPE4A625T31CC.pdf  0000249EABOLT,U               DPH00G1N000
SPE4A625T31CR5315011679317                                    701259505309/02/25SPE4A625T31CR.pdf  0000193EAPIN,STRAIGHT,HEADLE  DSH01G1N000
SPE4A625T31CT5340015975103                                    701343056609/02/25SPE4A625T31CT.pdf  0000031EACLIP,RETAINING       DSE00D1N000
SPE4A625T31CU6150016082505                                    701342977309/02/25SPE4A625T31CU.pdf  0000007EACABLE ASSEMBLY,SPEC  DAB02G1N000
SPE4A625T31CX2915000102693                                    701333373409/02/25SPE4A625T31CX.pdf  0000008EACAMSHAFT AND KEYS,C  DCK00P1Y100
SPE4A625T31DB5320015307179                                    701289919209/02/25SPE4A625T31DB.pdf  0000439EARIVET,BLIND          DDF00G1N000
SPE4A625T31DC5310017083534                                    701268587209/02/25SPE4A625T31DC.pdf  0000045EANUT,SELF-LOCKING,HE  DBM01G1N000
SPE4A625T31DF5305013533625                                    701343033609/02/25SPE4A625T31DF.pdf  0001748EASCREW,CLOSE TOLERAN  DMW01G1N000
SPE4A625T31DP5305011641625                                    701344295409/02/25SPE4A625T31DP.pdf  0001800EASCREW,CLOSE TOLERAN  DMW01B1N000
SPE4A625T31EA5306016083260                                    701323330609/02/25SPE4A625T31EA.pdf  0000264EABOLT,SHOULDER        DDF00P1Y100
SPE4A625T31EC5995013373413                                    701343045209/02/25SPE4A625T31EC.pdf  0000007EACABLE ASSEMBLY,SPEC  DBV00D1N000
SPE4A625T31EG5306001810931                                    701306292409/02/25SPE4A625T31EG.pdf  0000015EABOLT,SPECIAL         DCY00G1N000
SPE4A625T31EK6210002839741                                    701306321109/02/25SPE4A625T31EK.pdf  0000045EAHOUSING,LIGHT        DML01G1N000
SPE4A625T31EN3110003159745                                    701306313809/02/25SPE4A625T31EN.pdf  0000008EABEARING              DKZ00G1N000
SPE4A625T31EY6340004079177                                    701306433309/02/25SPE4A625T31EY.pdf  0000015EASENSING ELEMENT,FIR  DMH01B1N000
SPE4A625T31FD5310005965446                                    701306431209/02/25SPE4A625T31FD.pdf  0000438EAWASHER,RECESSED      DNK00P1N000
SPE4A625T31FK5325006411632                                    701306422309/02/25SPE4A625T31FK.pdf  0000259EASTUD ASSEMBLY,TURNL  DCY00R1N000
SPE4A625T31FQ5310007576446                                    701306440109/02/25SPE4A625T31FQ.pdf  0000090EANUT,PLAIN,HEXAGON    DNK00G1N000
SPE4A625T31FR5310008979946                                    701306453009/02/25SPE4A625T31FR.pdf  0000581EANUT,PLAIN,KNURLED    DNK00G1N000
SPE4A625T31FT6210008117134                                    701306470809/02/25SPE4A625T31FT.pdf  0000003EALIGHT,INDICATOR      DTB01Z1N000
SPE4A625T31GL4030011020850                                    701306480309/02/25SPE4A625T31GL.pdf  0000001EAHOOK,PELICAN         DAW01G1N000
SPE4A625T31GT5305010835535                                    701306490909/02/25SPE4A625T31GT.pdf  0000177EASCREW,CAP,HEXAGON H  DCC02G1N000
SPE4A625T31GW5310010615678                                    701306532309/02/25SPE4A625T31GW.pdf  0000436EANUT,SELF-LOCKING,SI  DCC02R1N000
SPE4A625T31HC5310011173444                                    701306501009/02/25SPE4A625T31HC.pdf  0000455EAWASHER,FLAT          DNK00D1N000
SPE4A625T31HD5310009564549                                    701306360809/02/25SPE4A625T31HD.pdf  0005247EANUT,SELF-LOCKING,HE  DKG00G1N000
SPE4A625T31HL6610011250726                                    701306495509/02/25SPE4A625T31HL.pdf  0000006EAINDICATOR,VERTICAL   DAT00D1N000
SPE4A625T31HQ5325011081440                                    701306507809/02/25SPE4A625T31HQ.pdf  0000025EARING,RETAINING       DSH01P1N000
SPE4A625T31HS5342011610438                                    701306395609/02/25SPE4A625T31HS.pdf  0000004EAHINGE LINK           GOS78L1N000
SPE4A625T31HX5306010836443                                    701306490809/02/25SPE4A625T31HX.pdf  0000954EABOLT,MACHINE         DMF00G1N000
SPE4A625T31HY6110011898949                                    701306363309/02/25SPE4A625T31HY.pdf  0000001EAPANEL,POWER DISTRIB  DDJ00D1N000
SPE4A625T31HZ6210012115145                                    701306456709/02/25SPE4A625T31HZ.pdf  0000014EALIGHT,INDICATOR      DJF01G1N000
SPE4A625T31JA5320011976644                                    701306474009/02/25SPE4A625T31JA.pdf  0000015EAPIN-RIVET            DNC00B1N000
SPE4A625T31JB5305010907147                                    701306490009/02/25SPE4A625T31JB.pdf  0000030EASCREW,CAP,SOCKET HE  DNK00T1N000
SPE4A625T31JD5306011634628                                    701306390809/02/25SPE4A625T31JD.pdf  0000006EABOLT,SHOULDER        DCY00L1N000
SPE4A625T31JE5305012147826                                    701306456409/02/25SPE4A625T31JE.pdf  0000018EASCREW,SHOULDER       DMW01C1N000
SPE4A625T31JR2835011406838                                    701306376309/02/25SPE4A625T31JR.pdf  0000025EAACCELEROMETER,ELECT  DAS02R1N000
SPE4A625T31JT5310012951036                                    701306513609/02/25SPE4A625T31JT.pdf  0000011EAWASHER,FLAT          DCC02G1N000
SPE4A625T31JW5320013204542                                    701306522109/02/25SPE4A625T31JW.pdf  0000009EAPIN-RIVET            DSH01D1N000
SPE4A625T31JX5325012846741                                    701306437109/02/25SPE4A625T31JX.pdf  0001549EASTUD ASSEMBLY,TURNL  DSH01L1N000
SPE4A625T31KB5325013957848                                    701306324409/02/25SPE4A625T31KB.pdf  0000004EARECEPTACLE,TURNLOCK  DMF00C1N000
SPE4A625T31KF3120011648348                                    701306390409/02/25SPE4A625T31KF.pdf  0000071EABUSHING,SLEEVE       DBW00C1N000
SPE4A625T31KJ5306011881140                                    701306363709/02/25SPE4A625T31KJ.pdf  0000070EABOLT,CLOSE TOLERANC  DWW00G1N000
SPE4A625T31KN6150013025450                                    701306511009/02/25SPE4A625T31KN.pdf  0000013EABUS,CONDUCTOR        GPP24G1N000
SPE4A625T31KR5306013029931                                    701306505909/02/25SPE4A625T31KR.pdf  0000708EABOLT,SHEAR           DCY00G1N000
SPE4A625T31LH5970013273246                                    701306491109/02/25SPE4A625T31LH.pdf  0001220FTINSULATION SLEEVING  DVB00D1N000
SPE4A625T33WM5320000451818                                    701354786409/04/25SPE4A625T33WM.pdf  0000058LBRIVET,SOLID          DSH01G1N000
SPE4A625T33WN5325006018277                                    701354782309/04/25SPE4A625T33WN.pdf  0000129EARING,RETAINING       DTM01G1N000
SPE4A625T33WP5310001515431                                    701354784709/04/25SPE4A625T33WP.pdf  0001739EANUT,SELF-LOCKING,AS  DLH01G1N000
SPE4A625T33WQ4030004315537                                    701354782409/04/25SPE4A625T33WQ.pdf  0000365HDSWA GING SLEEVE,WIRE GOS78Z1N000
SPE4A625T33WR3110009631844                                    701354794609/04/25SPE4A625T33WR.pdf  0000006EABEARING,BALL,ANNULA  DKW01R1N000
SPE4A625T33WS5320009739067                                    701354794409/04/25SPE4A625T33WS.pdf  0000270LBRIVET,SOLID          GWO26G1N000
SPE4A625T33WT5305014721180                                    701354724909/04/25SPE4A625T33WT.pdf  0000544EASCREW,CLOSE TOLERAN  DAS02B1N000
SPE4A625T33WU5305016051816                                    701354774909/04/25SPE4A625T33WU.pdf  0000014EASCREW,CAP,SOCKET HE  DMB03L1N000
SPE4A625T33WV1680992163415                                    701354771409/04/25SPE4A625T33WV.pdf  0000549EATIE,BEACON LANYARD   DAB02C1N000
SPE4A625T33WW5995016550923                                    701348800109/04/25SPE4A625T33WW.pdf  0000001EACABLE ASSEMBLY,SPEC  DJF01Z1N000
SPE4A625T33WX5325010791510                                    701348887009/04/25SPE4A625T33WX.pdf  0000100EASTUD,TURNLOCK FASTE  DSY00C1N000
SPE4A625T33WY6230007675573                                    701337011609/04/25SPE4A625T33WY.pdf  0000029EAREFLECTOR,LIGHT      DSM01G1Y100
SPE4A625T33WZ5970015041253                                    701349255809/04/25SPE4A625T33WZ.pdf  0000080ROTAPE,INSULATION,ELE  GPP24D1N000
SPE4A625T33XA5320008133922                                    701355107809/04/25SPE4A625T33XA.pdf  0000002PGPIN-RIVET            DSH01B1N000
SPE4A625T33XB5305123349535                                    701349262909/04/25SPE4A625T33XB.pdf  0000189EASCREW,CAP,HEXAGON H  DCC02G1N000
SPE4A625T33XC5315013579168                                    701349266609/04/25SPE4A625T33XC.pdf  0000003EAPIN,SPRING           GWO26H1N000
SPE4A625T33XD5970016886243                                    701349254309/04/25SPE4A625T33XD.pdf  0000005ROTAPE,INSULATION,ELE  DNH00G1N000
SPE4A625T33XE5970010829128                                    701349262009/04/25SPE4A625T33XE.pdf  0000002CAINSULATING COMPOUND,EGPD24G1N000
SPE4A625T33XE5970010829128                                    701351382909/04/25SPE4A625T33XE.pdf  0000001CAINSULATING COMPOUND,EGPD24G1N000
SPE4A625T33XF5320991222527                                    701345802809/04/25SPE4A625T33XF.pdf  0000011EARIVET,SOLID          DSB02G1N000
SPE4A625T33XG5306000049888                                    701290103609/04/25SPE4A625T33XG.pdf  0000010EABOLT,SPECIAL         DJS02P1N000
SPE4A625T33XH5306005957397                                    701155257609/04/25SPE4A625T33XH.pdf  0001599EABOLT,MACHINE         DTM01C1Y100
SPE4A625T33XJ5305016745015                                    701342955809/04/25SPE4A625T33XJ.pdf  0000009EASCREW,CAP,SOCKET HE  DHH00G1N000
SPE4A625T33XK3110011608017                                    701342948509/04/25SPE4A625T33XK.pdf  0000162EABEARING,ROLLER,CYLINDDJW02P1N000
SPE4A625T33XL3110014781642                                    701325655009/04/25SPE4A625T33XL.pdf  0000033EABEARING,BALL,ANNULA  DSD00B1Y100
SPE4A625T33XM5305017296770                                    701323293409/04/25SPE4A625T33XM.pdf  0000089EASCREW,CAP,SOCKET HE  DMB02G1N000
SPE4A625T33XN5315012126691                                    701283285709/04/25SPE4A625T33XN.pdf  0000020EAPIN,QUICK RELEASE    DEM00G1N000
SPE4A625T33XP3120011556129                                    701354786909/04/25SPE4A625T33XP.pdf  0000208EABUSHING,SLEEVE       DAT00G1N000
SPE4A625T33XQ6150251638121                                    701343165609/04/25SPE4A625T33XQ.pdf  0000002EACABLE ASSEMBLY,SPEC  DNH00D1N000
SPE4A625T33XR3110011525441                                    701232335809/04/25SPE4A625T33XR.pdf  0000100EABEARING,BALL,ANNULA  DKW01C1N000
SPE4A625T33XS6670011399535                                    701349506109/04/25SPE4A625T33XS.pdf  0000005EASCALE DONOR AUTOM    DCY00Z1N000
SPE4A625T33XT3110001563500                                    701354031909/04/25SPE4A625T33XT.pdf  0000004EABEARING,BALL,ANNULA  GPP79R1N000
SPE4A625T33XU5995015155639                                    701349406809/04/25SPE4A625T33XU.pdf  0000002EACABLE ASSEMBLY,SPEC  GOS78G1N000
SPE4A625T33XV4710014488201                                    701339229309/04/25SPE4A625T33XV.pdf  0000001EATUBE ASSEMBLY,METAL  DSE00D1N000
SPE4A625T33XV4710014488201                                    701341407909/04/25SPE4A625T33XV.pdf  0000001EATUBE ASSEMBLY,METAL  DSE00D1N000
SPE4A625T33XW6150013022644                                    701327016609/04/25SPE4A625T33XW.pdf  0000072EAWIRING HARNESS,BRANCHDMJ01G1R100
SPE4A625T33XX5305017273472                                    701323131109/04/25SPE4A625T33XX.pdf  0000179EASCREW,TAPPING        DMB02G1N000
SPE4A625T33XY5310010573764                                    701323362509/04/25SPE4A625T33XY.pdf  0000267EANUT,SELF-LOCKING,BL  DEE00G1N000
SPE4A625T33XZ3110007247884                                    701354782009/04/25SPE4A625T33XZ.pdf  0000278HDBALL, BEARING        DRB00G1Y100
SPE4A625T33YA5310010507475                                    701354791809/04/25SPE4A625T33YA.pdf  0000885EANUT,SELF-LOCKING,PL  DTG01G1N000
SPE4A625T33YB5320011654339                                    701354398009/04/25SPE4A625T33YB.pdf  0000220EAPIN-RIVET            DSH01B1N000
SPE4A625T33YC6660016100065                                    701355584309/04/25SPE4A625T33YC.pdf  0000010EAMETEOROLOGICAL MEAS  DNY00C1N000
SPE4A625T33YD5305017280536                                    701353934809/04/25SPE4A625T33YD.pdf  0000040EASCREW,CAP,SOCKET HE  DCC02D1N000
SPE4A625T33YE5305017013063                                    701355584509/04/25SPE4A625T33YE.pdf  0000006EASCREW,PANEL FASTENE  DSS02G1N000
SPE4A625T33YF6240014155581                                    701333275809/04/25SPE4A625T33YF.pdf  0000346EALAMP,INCANDESCENT    DCL01C1Y100
SPE4A625T33YG5306014419208                                    701339551109/04/25SPE4A625T33YG.pdf  0000002EABOLT,MACHINE         DSY00G1N000
SPE4A625T33YH5310014193916                                    701303151109/04/25SPE4A625T33YH.pdf  0000015EANUT,PLAIN,HEXAGON    DMB03G1N000
SPE4A625T33YJ5310016053922                                    701348218109/04/25SPE4A625T33YJ.pdf  0000050EANUT,PLAIN,ROUND      GPP35G1N000
SPE4A625T33YK5305017221512                                    701291907609/04/25SPE4A625T33YK.pdf  0000001EASCREW,MACHINE        DAS02G1N000
SPE4A625T33YL5306013029460                                    701315965609/04/25SPE4A625T33YL.pdf  0000004EABOLT,EXTERNALLY REL  DDF00G1N000
SPE4A625T33YM5315016429030                                    701317903409/04/25SPE4A625T33YM.pdf  0000001EAPIN,STRAIGHT,HEADED  DSB02Q1N000
SPE4A625T33YN5305011658616                                    701344575209/04/25SPE4A625T33YN.pdf  0000031EASCREW,CLOSE TOLERAN  DMB03G1N000
SPE4A625T33YN5305011658616                                    701348230409/04/25SPE4A625T33YN.pdf  0000115EASCREW,CLOSE TOLERAN  DMB03G1N000
SPE4A625T33YP6680007841434                                    701117299209/04/25SPE4A625T33YP.pdf  0000039EACOVER ASSEMBLY       DKH01Z1N000
