SPE1C125Q04248305016268066                                    701283542309/12/25SPE1C125Q0424.pdf  0003564YDCLOTH,IMPREGNATED    DNH00C1Y100
SPE1C125T25758470016935211                                    701328894008/26/25SPE1C125T2575.pdf  0000020EASHELL,COMBAT VEHICL  DMR01D1Y100
SPE1C125T25768470016935176                                    701328890708/26/25SPE1C125T2576.pdf  0000010EASHELL,COMBAT VEHICL  DMR01D1N000
SPE1C125T26478455016916468                                    701346018509/02/25SPE1C125T2647.pdf  0012000EASTRIPE,SERVICE       PSPTPG1Y100
SPE1C125T26488455016916464                                    701346018409/02/25SPE1C125T2648.pdf  0030000EASTRIPE,SERVICE       PSPTPG1Y100
SPE1C125T26498345015534075                                    701345315109/02/25SPE1C125T2649.pdf  0000009EASTREAMER,AWARD       PCPQCG1N000
SPE1C125T26508305014754276                                    701346012209/02/25SPE1C125T2650.pdf  0000300YDCLOTH,FIBERGLASS     PCPQCC1Y100
SPE1C125T26508305014754276                                    701346020209/02/25SPE1C125T2650.pdf  0000300YDCLOTH,FIBERGLASS     PCPQCC1Y100
SPE1C125T26518345015645816                                    701346080709/02/25SPE1C125T2651.pdf  0000001EASTREAMER,AWARD       PCPQCG1N000
SPE1C125T26518345015645816                                    701346155909/02/25SPE1C125T2651.pdf  0000001EASTREAMER,AWARD       PCPQCG1N000
SPE1C125T26518345015645816                                    701346321909/02/25SPE1C125T2651.pdf  0000001EASTREAMER,AWARD       PCPQCG1N000
SPE1C125T26528465016964281                                    701346173509/02/25SPE1C125T2652.pdf  0000003EAFIELD PACK           DMR01Z1N000
SPE1C125T26538465016131241                                    701345991909/02/25SPE1C125T2653.pdf  0000002EACARABINER,PULLEY     DMR01D1N000
SPE1C125T26538465016131241                                    701346173009/02/25SPE1C125T2653.pdf  0000001EACARABINER,PULLEY     DMR01D1N000
SPE1C125T26548465015586823                                    701346264909/02/25SPE1C125T2654.pdf  0000010KTKIT,REPAIR,SNOWSHOE  DMR01D1N000
SPE2DH25Q01486530014657011                                    701344281508/28/25SPE2DH25Q0148.pdf  0000002PGTAPE,MEASURING RESU  DCZ00Z1N000
SPE2DH25T59846530013161962                                    701344894808/28/25SPE2DH25T5984.pdf  0000001PGTUBING,STERILIZATIO  PDPSHZ1N000
SPE2DH25T59856530016456923                                    701344888008/28/25SPE2DH25T5985.pdf  0000002EADISPOSAL CONTAINER,  PDPSHZ1N000
SPE2DH25T59866910016126510                                    701345308708/28/25SPE2DH25T5986.pdf  0000001EASTUDY CARD           PDPSHZ1N000
SPE2DH25T59876520016315366                                    701344473808/28/25SPE2DH25T5987.pdf  0000003PGFLOSS,WAXED,DENTAL   PDPSHZ1N000
SPE2DH25T59886530015186437                                    701345807008/28/25SPE2DH25T5988.pdf  0000002EAREGULATOR,OXYGEN     PDPSHZ1N000
SPE2DH25T59896520015617615                                    701344397808/28/25SPE2DH25T5989.pdf  0000003PGIMPRESSION BITE TRA  PDPSHZ1N000
SPE2DH25T59906520016433521                                    701348310508/28/25SPE2DH25T5990.pdf  0000005BXPOINT,ENDODONTIC     PDPSHZ1N000
SPE2DH25T59916530017016623                                    701348310208/28/25SPE2DH25T5991.pdf  0000010EASLING,SHOULDER,ARM   PDPSHZ1N000
SPE2DH25T59926665015099540                                    701346064408/28/25SPE2DH25T5992.pdf  0000001EASAMPLER KIT,AIR      PDPSHZ1Y100
SPE2DH25T59936530017065252                                    701346064308/28/25SPE2DH25T5993.pdf  0000030EABLANKET,EMERGENCY,M  PDPSHZ1N000
SPE2DH25T59946530010324089                                    701346173108/28/25SPE2DH25T5994.pdf  0000001PGDRAPE,SURGICAL       PDPSHZ1N000
SPE2DH25T59956530016527812                                    701346125908/28/25SPE2DH25T5995.pdf  0000001EACHAIR,PATIENT TRANS  PDPSHZ1N000
SPE2DH25T59966640015021866                                    701346173408/28/25SPE2DH25T5996.pdf  0000001PGTEST PAPER,CHLORINE  PDPSHZ1N000
SPE2DH25T59976630016933814                                    701346140508/28/25SPE2DH25T5997.pdf  0000003BTBUFFER SOLUTION,STA  PDPSHZ1N000
SPE2DH25T59986530200077100                                    701346412708/28/25SPE2DH25T5998.pdf  0000001BXPATIENT CIRCUIT KIT  PDPSHZ1N000
SPE2DH25T59986530200077100                                    701348305308/28/25SPE2DH25T5998.pdf  0000001BXPATIENT CIRCUIT KIT  PDPSHZ1N000
SPE2DH25T59996530012422337                                    701346373208/28/25SPE2DH25T5999.pdf  0000020PGTAPE,SEALING,STERIL  PDPSHZ1N000
SPE2DP25T49866505011393423                                    701344890508/27/25SPE2DP25T4986.pdf  0000001BTALBUTEROL TABLETS,U  DAD01Z1N000
SPE2DP25T49876505015303307                                    701344890808/27/25SPE2DP25T4987.pdf  0000020PGADENOSINE INJECTION  PDPSHZ1N000
SPE2DP25T49886505001320294                                    701344891808/27/25SPE2DP25T4988.pdf  0000010PGDIPHENHYDRAMINE HYD  DIB00Z1N000
SPE2DP25T49896505010911739                                    701344886308/27/25SPE2DP25T4989.pdf  0000100PGDEXTROSE INJECTION,  DAH01Z1N000
SPE2DP25T49906505000836544                                    701344894708/27/25SPE2DP25T4990.pdf  0000002BXSODIUM CHLORIDE INJ  DMK00Z1N000
SPE2DP25T49916505010498881                                    701344893908/27/25SPE2DP25T4991.pdf  0000120EAMICONAZOLE NITRATE   DJM04Z1N000
SPE2DP25T49926505013869046                                    701344893608/27/25SPE2DP25T4992.pdf  0000020PGWATER FOR INJECTION  DMK00Z1N000
SPE2DP25T49936505016876759                                    701344890608/27/25SPE2DP25T4993.pdf  0000003PGCALCIUM CHLORIDE IN  PHPHAZ1N000
SPE2DP25T49946505013366196                                    701344896208/27/25SPE2DP25T4994.pdf  0000005BTATENOLOL TABLETS,US  DIB00Z1N000
SPE2DP25T49956505013841365                                    701344886508/27/25SPE2DP25T4995.pdf  0000002PGSODIUM CHLORIDE INJ  PHPHBZ1N000
SPE2DP25T49956505013841365                                    701344893108/27/25SPE2DP25T4995.pdf  0000006PGSODIUM CHLORIDE INJ  PHPHBZ1N000
SPE2DP25T49966505015034772                                    701344893408/27/25SPE2DP25T4996.pdf  0000010BTMOXIFLOXACIN HYDROC  DPP00Z1N000
SPE2DP25T49976505015249179                                    701344888108/27/25SPE2DP25T4997.pdf  0000010BTLORATADINE TABLETS   DJM04Z1N000
SPE2DP25T49986505015841605                                    701344892908/27/25SPE2DP25T4998.pdf  0000004BTLEVETIRACETAM TABLE  PHPHCZ1N000
SPE2DP25T49996505015168407                                    701344869408/27/25SPE2DP25T4999.pdf  0000005PGMAGNESIUM SULFATE I  PDPSHZ1N000
SPE2DP25T50006505015762767                                    701344869808/27/25SPE2DP25T5000.pdf  0000060PGLIDOCAINE HYDROCHLO  PHPHBZ1N000
SPE2DP25T50016505016714482                                    701344890308/27/25SPE2DP25T5001.pdf  0000001CSCALCIUM GLUCONATE I  DJM04Z1N000
SPE2DP25T50026505016587643                                    701344894608/27/25SPE2DP25T5002.pdf  0000001CSANALGESIC GEL,TOPIC  DMK00Z1N000
SPE2DP25T50036505013871817                                    701344886808/27/25SPE2DP25T5003.pdf  0000010BTGABAPENTIN CAPSULES  PDPSAZ1N000
SPE2DP25T50046505013953039                                    701344896008/27/25SPE2DP25T5004.pdf  0000005PGFLUCONAZOLE TABLETS  DAH01Z1N000
SPE2DP25T50056505001538480                                    701344891108/27/25SPE2DP25T5005.pdf  0000002BTHYDROGEN PEROXIDE T  DJM04Z1N000
SPE2DP25T50056505001538480                                    701345807208/27/25SPE2DP25T5005.pdf  0000005BTHYDROGEN PEROXIDE T  DJM04Z1N000
SPE2DP25T50056505001538480                                    701345836908/27/25SPE2DP25T5005.pdf  0000002BTHYDROGEN PEROXIDE T  DJM04Z1N000
SPE2DP25T50066505016572003                                    701344890708/27/25SPE2DP25T5006.pdf  0000014PGLIDOCAINE,PATCH      PHPHCZ1N000
SPE2DP25T50066505016572003                                    701344894208/27/25SPE2DP25T5006.pdf  0000011PGLIDOCAINE,PATCH      PHPHCZ1N000
SPE2DP25T50076505017243625                                    701344894308/27/25SPE2DP25T5007.pdf  0000010TUANALGESIC GEL,TOPIC  DAD01Z1N000
SPE2DP25T50086505012580960                                    701344869308/27/25SPE2DP25T5008.pdf  0000006PGALBUTEROL SULFATE I  PHPHAZ1N000
SPE2DP25T50086505012580960                                    701344894408/27/25SPE2DP25T5008.pdf  0000002PGALBUTEROL SULFATE I  PHPHAZ1N000
SPE2DP25T50096505015997771                                    701338108608/27/25SPE2DP25T5009.pdf  0000005PGHEPATITIS A VIRUS V  DPP00Z1N000
SPE2DP25T50106505015646142                                    009430610808/27/25SPE2DP25T5010.pdf  0000001EASODA LIME            PHPHCZ1N000
SPE2DP25T50116840013896088                                    701108691908/27/25SPE2DP25T5011.pdf  0000004BTDISINFECTANT-DETERG  DJM04Z1N000
SPE2DP25T50126509015697067                                    701162721308/27/25SPE2DP25T5012.pdf  0000004VIDEXMEDTOMIDINE HYDR  PHPHAZ1N000
SPE2DP25T50136505013366179                                    701345745008/27/25SPE2DP25T5013.pdf  0000001PGCIPROFLOXACIN HYDRO  DJM04Z1N000
SPE2DP25T50146509015697067                                    700910800408/27/25SPE2DP25T5014.pdf  0000002VIDEXMEDTOMIDINE HYDR  PHPHAZ1N000
SPE2DP25T50156509015697067                                    701208125908/27/25SPE2DP25T5015.pdf  0000004VIDEXMEDTOMIDINE HYDR  PHPHAZ1N000
SPE2DP25T50166509015697067                                    701136187908/27/25SPE2DP25T5016.pdf  0000009VIDEXMEDTOMIDINE HYDR  PHPHAZ1N000
SPE2DP25T50176509015697067                                    700902115908/27/25SPE2DP25T5017.pdf  0000006VIDEXMEDTOMIDINE HYDR  PHPHAZ1N000
SPE2DP25T50186509015697067                                    700986232608/27/25SPE2DP25T5018.pdf  0000002VIDEXMEDTOMIDINE HYDR  PHPHAZ1N000
SPE2DP25T50196509015697067                                    701001574108/27/25SPE2DP25T5019.pdf  0000007VIDEXMEDTOMIDINE HYDR  PHPHAZ1N000
SPE2DP25T50206509015697067                                    701156169708/27/25SPE2DP25T5020.pdf  0000002VIDEXMEDTOMIDINE HYDR  PHPHAZ1N000
SPE2DP25T50216509015697067                                    701020276308/27/25SPE2DP25T5021.pdf  0000003VIDEXMEDTOMIDINE HYDR  PHPHAZ1N000
SPE2DP25T50226509015697067                                    701187699508/27/25SPE2DP25T5022.pdf  0000005VIDEXMEDTOMIDINE HYDR  PHPHAZ1N000
SPE2DP25T50236509015697067                                    701122295608/27/25SPE2DP25T5023.pdf  0000006VIDEXMEDTOMIDINE HYDR  PHPHAZ1N000
SPE2DP25T50246509015697067                                    701029883408/27/25SPE2DP25T5024.pdf  0000002VIDEXMEDTOMIDINE HYDR  PHPHAZ1N000
SPE2DP25T50256509015697067                                    700929294708/27/25SPE2DP25T5025.pdf  0000002VIDEXMEDTOMIDINE HYDR  PHPHAZ1N000
SPE2DP25T50266509015697067                                    701060766908/27/25SPE2DP25T5026.pdf  0000004VIDEXMEDTOMIDINE HYDR  PHPHAZ1N000
SPE2DP25T50276509015697067                                    701114067708/27/25SPE2DP25T5027.pdf  0000002VIDEXMEDTOMIDINE HYDR  PHPHAZ1N000
SPE2DP25T50286509015697067                                    700914978208/27/25SPE2DP25T5028.pdf  0000001VIDEXMEDTOMIDINE HYDR  PHPHAZ1N000
SPE2DP25T50296509015697067                                    700933366008/27/25SPE2DP25T5029.pdf  0000001VIDEXMEDTOMIDINE HYDR  PHPHAZ1N000
SPE2DP25T50306509015697067                                    701146480008/27/25SPE2DP25T5030.pdf  0000001VIDEXMEDTOMIDINE HYDR  PHPHAZ1N000
SPE2DP25T50316505015333369                                    701345726808/27/25SPE2DP25T5031.pdf  0000009PGALUMINUM SULFATE AN  PHPHBZ1N000
SPE2DP25T50326505016817074                                    701345801308/27/25SPE2DP25T5032.pdf  0000015EAULIPRISTAL ACETATE   DPP00Z1N000
SPE2DP25T50336505014446632                                    701345804508/27/25SPE2DP25T5033.pdf  0000003BTLEVOFLOXACIN TABLET  DLG00Z1N000
SPE2DP25T50346505002999672                                    701345800108/27/25SPE2DP25T5034.pdf  0000002COAPPLICATOR,SILVER N  DPP00Z1N000
SPE2DP25T50346505002999672                                    701345916908/27/25SPE2DP25T5034.pdf  0000002COAPPLICATOR,SILVER N  DPP00Z1N000
SPE2DP25T50356505017227590                                    701345801408/27/25SPE2DP25T5035.pdf  0000001BXNIRMATRELVIR AND RI  DMT00Z1N000
SPE2DP25T50356505017227590                                    701346412008/27/25SPE2DP25T5035.pdf  0000001BXNIRMATRELVIR AND RI  DMT00Z1N000
SPE2DP25T50366505015436562                                    701345774408/27/25SPE2DP25T5036.pdf  0000015EAALBUTEROL SULFATE I  PHPHAZ1N000
SPE2DP25T50366505015436562                                    701346050208/27/25SPE2DP25T5036.pdf  0000003EAALBUTEROL SULFATE I  PHPHAZ1N000
SPE2DP25T50376505017104572                                    701345800908/27/25SPE2DP25T5037.pdf  0000001BTTAMSULOSIN HYDROCHL  DPP00Z1N000
SPE2DP25T50386505016592917                                    701345811008/27/25SPE2DP25T5038.pdf  0000015PGRIZATRIPTAN BENZOAT  PDPSAZ1N000
SPE2DP25T50396505017193181                                    701345913508/27/25SPE2DP25T5039.pdf  0000001PGPSYLLIUM HYDROPHILI  DJM04Z1N000
SPE2DP25T50396505017193181                                    701345991808/27/25SPE2DP25T5039.pdf  0000010PGPSYLLIUM HYDROPHILI  DJM04Z1N000
SPE2DP25T50406509014856206                                    701348361008/27/25SPE2DP25T5040.pdf  0000001EAPENTOBARBITAL SODIU  PDPSHZ1N000
SPE2DP25T50416505017078644                                    701346050708/27/25SPE2DP25T5041.pdf  0000003PGACETYLCYSTEINE INJE  DMK00Z1N000
SPE2DP25T50426505013652363                                    701346050008/27/25SPE2DP25T5042.pdf  0000001PGNORETHINDRONE AND E  PHPHBZ1N000
SPE2DP25T50436505014667535                                    701346064608/27/25SPE2DP25T5043.pdf  0000016COMICONAZOLE NITRATE   DAH01Z1N000
SPE2DP25T50446505016570664                                    701346173308/27/25SPE2DP25T5044.pdf  0000002PGIOPAMIDOL INJECTION  PHPHBZ1N000
SPE2DP25T50456505017081449                                    701346258008/27/25SPE2DP25T5045.pdf  0000050PGBENZOCAINE AND MENT  DNC00Z1N000
SPE2DP25T50456505017081449                                    701346258308/27/25SPE2DP25T5045.pdf  0000020PGBENZOCAINE AND MENT  DNC00Z1N000
SPE2DP25T50456505017081449                                    701346333008/27/25SPE2DP25T5045.pdf  0000130PGBENZOCAINE AND MENT  DNC00Z1N000
SPE2DP25T50466505014805678                                    701346258408/27/25SPE2DP25T5046.pdf  0000020TUMUPIROCIN OINTMENT   DJM04Z1N000
SPE2DP25T50476505006601601                                    701346373108/27/25SPE2DP25T5047.pdf  0000010BTMETHOCARBAMOL TABLE  PHPHCZ1N000
SPE2DP25T50486509014856203                                    701346352808/27/25SPE2DP25T5048.pdf  0000005EAPOWDER,STYPTIC,VETE  PDPSHZ1N000
SPE2DP25T50496505014491618                                    701346537208/27/25SPE2DP25T5049.pdf  0000010PGAZITHROMYCIN TABLET  PDPSAZ1N000
SPE2DS25T343K6910017069719                                    701325477308/26/25SPE2DS25T343K.pdf  0000010EATRAINING AID,SMALL   DOE00Z1N000
SPE2DS25T391G6515005648242                                    701344888708/27/25SPE2DS25T391G.pdf  0000001PGAPPLICATOR,DISPOSAB  PLCL5Z1N000
SPE2DS25T391H6515012501148                                    701344894508/27/25SPE2DS25T391H.pdf  0000010EABRACE,ANKLE          PLCL5Z1N000
SPE2DS25T391J6510015198421                                    701344869108/27/25SPE2DS25T391J.pdf  0000001PGDRESSING,OCCLUSIVE,  DKJ00Z1N000
SPE2DS25T391K6515015979444                                    701344892508/27/25SPE2DS25T391K.pdf  0000001PGNEEDLE,HYPODERMIC    PLCL5Z1N000
SPE2DS25T391L6515016817577                                    701344890208/27/25SPE2DS25T391L.pdf  0000019CSSUCTION KIT,TRACHEA  DDM01Z1N000
SPE2DS25T391M6515017016615                                    701344892608/27/25SPE2DS25T391M.pdf  0000002CSSYRINGE,HYPODERMIC   DMK00Z1N000
SPE2DS25T391N6515013438162                                    701344886608/27/25SPE2DS25T391N.pdf  0000020EASPLINT,FINGER        DVS00Z1N000
SPE2DS25T391P6510000584421                                    701344890008/27/25SPE2DS25T391P.pdf  0000002PGSPONGE,SURGICAL      DKJ00Z1N000
SPE2DS25T391Q6515016644513                                    701344888908/27/25SPE2DS25T391Q.pdf  0000001PGCOVER,ELECTRONIC TH  DMK00Z1N000
SPE2DS25T391R6515016742663                                    701344892808/27/25SPE2DS25T391R.pdf  0000007CSADMINISTRATION SET,  DVS00Z1N000
SPE2DS25T391S6515013675272                                    701344891508/27/25SPE2DS25T391S.pdf  0000092PGAIRWAY,ORAL          DJM04Z1N000
SPE2DS25T391S6515013675272                                    701346138008/27/25SPE2DS25T391S.pdf  0000006PGAIRWAY,ORAL          DJM04Z1N000
SPE2DS25T391T6515015265210                                    701344893708/27/25SPE2DS25T391T.pdf  0000020PGGLOVE,PATIENT EXAMI  PDPSFZ1N000
SPE2DS25T391U6540012962130                                    701344892208/27/25SPE2DS25T391U.pdf  0000005PGLENS,SCLERAL,OCULAR  DKJ00Z1N000
SPE2DS25T391U6540012962130                                    701344892408/27/25SPE2DS25T391U.pdf  0000003PGLENS,SCLERAL,OCULAR  DKJ00Z1N000
SPE2DS25T391V6515012309953                                    701345812008/27/25SPE2DS25T391V.pdf  0000001PGAIRWAY,NASOPHARYNGE  DCA00L1N000
SPE2DS25T391W6515016308955                                    701345775308/27/25SPE2DS25T391W.pdf  0000001PGPROBE,TEMPERATURE M  DDM01Z1N000
SPE2DS25T391X6545015294185                                    701345809508/27/25SPE2DS25T391X.pdf  0000010EAFIRST AID KIT,GENER  DST00Z1N000
SPE2DS25T391Y6515015328056                                    701345799608/27/25SPE2DS25T391Y.pdf  0000004EAHYPOTHERMIA MANAGEM  DDM01Z1N000
SPE2DS25T391Y6515015328056                                    701345799708/27/25SPE2DS25T391Y.pdf  0000004EAHYPOTHERMIA MANAGEM  DDM01Z1N000
SPE2DS25T391Z6515015410635                                    701345799508/27/25SPE2DS25T391Z.pdf  0000090EANEEDLE,DECOMPRESSIO  DPE00Z1N000
SPE2DS25T391Z6515015410635                                    701345799808/27/25SPE2DS25T391Z.pdf  0000030EANEEDLE,DECOMPRESSIO  DPE00Z1N000
SPE2DS25T391Z6515015410635                                    701346137308/27/25SPE2DS25T391Z.pdf  0000036EANEEDLE,DECOMPRESSIO  DPE00Z1N000
SPE2DS25T392A6550012215400                                    701345799008/27/25SPE2DS25T392A.pdf  0000001BTTEST STRIPS AND COL  DMD01Z1N000
SPE2DS25T392A6550012215400                                    701346412108/27/25SPE2DS25T392A.pdf  0000001BTTEST STRIPS AND COL  DMD01Z1N000
SPE2DS25T392A6550012215400                                    701346441508/27/25SPE2DS25T392A.pdf  0000001BTTEST STRIPS AND COL  DMD01Z1N000
SPE2DS25T392C6515015728338                                    701345831508/27/25SPE2DS25T392C.pdf  0000005BXPLUG,EAR             DJB03Z1N000
SPE2DS25T392D6515014524435                                    701345900408/27/25SPE2DS25T392D.pdf  0000006EASUPPORT,CERVICAL     DPE00Z1N000
SPE2DS25T392E6510015144581                                    701345916008/27/25SPE2DS25T392E.pdf  0000005PGBANDAGE,ADHESIVE     PDPSFZ1N000
SPE2DS25T392F6515017083104                                    701345913808/27/25SPE2DS25T392F.pdf  0000001BXSPECULUM,VAGINAL     PDPSFZ1N000
SPE2DS25T392G6510012348943                                    701345900208/27/25SPE2DS25T392G.pdf  0000002PGDRESSING,OCCLUSIVE,  PDPSFL1N000
SPE2DS25T392G6510012348943                                    701345914908/27/25SPE2DS25T392G.pdf  0000002PGDRESSING,OCCLUSIVE,  PDPSFL1N000
SPE2DS25T392H6515015875717                                    701345919008/27/25SPE2DS25T392H.pdf  0000001EASTARTER KIT,INTRAVE  DPE00Z1N000
SPE2DS25T392J6545017226568                                    701345914308/27/25SPE2DS25T392J.pdf  0000002EABAG,MEDICAL INSTRUM  PDPSFZ1N000
SPE2DS25T392J6545017226568                                    701345921108/27/25SPE2DS25T392J.pdf  0000002EABAG,MEDICAL INSTRUM  PDPSFZ1N000
SPE2DS25T392L7610016723315                                    701345900808/27/25SPE2DS25T392L.pdf  0000001EAMANUAL,TECHNICAL     DMD01Z1N000
SPE2DS25T392M6515015052254                                    701348310108/27/25SPE2DS25T392M.pdf  0000002EATUBING,SPHYGMOMANOM  DCA00Z1N000
SPE2DS25T392N6540015298664                                    701348305708/27/25SPE2DS25T392N.pdf  0000008PGBLOCKING BODY,OPHTH  DTP00Z1N000
SPE2DS25T392P6550016700237                                    701348310608/27/25SPE2DS25T392P.pdf  0000001SECONTROL SET,BLOOD C  PDPSFZ1N000
SPE2DS25T392Q6515013432145                                    701348313008/27/25SPE2DS25T392Q.pdf  0000001EADELIVERY KIT,OBSTET  PLCL5Z1N000
SPE2DS25T392R6540017058123                                    701348310808/27/25SPE2DS25T392R.pdf  0000002EAGLASSES,EXAMINATION  DKJ00Z1N000
SPE2DS25T392S6510016832892                                    701348310008/27/25SPE2DS25T392S.pdf  0000016BXSPONGE,SURGICAL      DST00Z1N000
SPE2DS25T392T6515013082317                                    701346052208/27/25SPE2DS25T392T.pdf  0000002PGADAPTER,OXYGEN,NUT-  DPE00Z1N000
SPE2DS25T392U6515013682874                                    701346132508/27/25SPE2DS25T392U.pdf  0000006PGDETECTOR,END-TIDAL,  DJM04Z1N000
SPE2DS25T392V6510011354267                                    701346134108/27/25SPE2DS25T392V.pdf  0000006PGDRESSING,OCCLUSIVE,  PDPSFL1N000
SPE2DS25T392W6515015383933                                    701346088608/27/25SPE2DS25T392W.pdf  0000006PGELECTRODE,ELECTROCA  PDPSFZ1N000
SPE2DS25T392X6510000583047                                    701346137808/27/25SPE2DS25T392X.pdf  0000006PGBANDAGE,GAUZE        PDPSFZ1N000
SPE2DS25T392Y6515011643755                                    701346137608/27/25SPE2DS25T392Y.pdf  0000006PGMASK,ORONASAL        DDM01Z1N000
SPE2DS25T392Z6510009268882                                    701346134908/27/25SPE2DS25T392Z.pdf  0000006PGADHESIVE TAPE,SURGICAPDPSFZ1N000
SPE2DS25T393A6515013738659                                    701346134208/27/25SPE2DS25T393A.pdf  0000006PGCOVER,ELECTRONIC TH  DDM01Z1N000
SPE2DS25T393B6515015188551                                    701346134608/27/25SPE2DS25T393B.pdf  0000036EACONTAINER,SHARPS SH  DCA00Z1N000
SPE2DS25T393C6515015245785                                    701346087908/27/25SPE2DS25T393C.pdf  0000120EACATHETER,INTRAVENOU  DDP00Z1N000
SPE2DS25T393D6515011011949                                    701346132808/27/25SPE2DS25T393D.pdf  0000006PGTUBING,SURGICAL      PLCL5Z1N000
SPE2DS25T393E6515011643053                                    701346138108/27/25SPE2DS25T393E.pdf  0000006PGSUCTION INSTRUMENT   DCA00Z1N000
SPE2DS25T393F6550015321483                                    701345993808/27/25SPE2DS25T393F.pdf  0000001PGCHLORINE TEST REAGE  PDPSFZ1N000
SPE2DS25T393G6515015193612                                    701346134308/27/25SPE2DS25T393G.pdf  0000024EARESUSCITATOR KIT,HA  DMK00Z1N000
SPE2DS25T393H6550015048603                                    701346064108/27/25SPE2DS25T393H.pdf  0000001PGTEST,ARSENIC         DMD01Z1N000
SPE2DS25T393H6550015048603                                    701346064208/27/25SPE2DS25T393H.pdf  0000001PGTEST,ARSENIC         DMD01Z1N000
SPE2DS25T393J6515015407226                                    701346137108/27/25SPE2DS25T393J.pdf  0000012EALEASH,SHEARS,TRAUMA  DMB03Z1N000
SPE2DS25T393J6515015407226                                    701346299408/27/25SPE2DS25T393J.pdf  0000040EALEASH,SHEARS,TRAUMA  DMB03Z1N000
SPE2DS25T393K6515014615798                                    701346134808/27/25SPE2DS25T393K.pdf  0000006PGTOURNIQUET,NONPNEUM  DBW01Z1N000
SPE2DS25T393L6515015038228                                    701346137908/27/25SPE2DS25T393L.pdf  0000060EATUBING,EXTENSION,BL  DBW01Z1N000
SPE2DS25T393M6515015586948                                    701346052108/27/25SPE2DS25T393M.pdf  0000001EAPAD,ELECTRODE,DEFIB  PLCL5Z1N000
SPE2DS25T393N6515016425064                                    701347605808/27/25SPE2DS25T393N.pdf  0000002BXADAPTER,AIRWAY,CO2   DVS00Z1N000
SPE2DS25T393P6515016950929                                    701347605708/27/25SPE2DS25T393P.pdf  0000014EABLOOD COOLER,FIELD   DCO00Z1Y100
SPE2DS25T393Q6515016918183                                    701348481108/27/25SPE2DS25T393Q.pdf  0000002KTSTIMULATOR,CRAINIAL  DDP00Z1N000
SPE2DS25T393R6510017000807                                    701347605908/27/25SPE2DS25T393R.pdf  0000009BXBANDAGE,ADHESIVE     DMD01Z1N000
SPE2DS25T393S6550012888056                                    701258640308/27/25SPE2DS25T393S.pdf  0000003EAFETAL HEMOGLOBIN DI  PDPSFZ1N000
SPE2DS25T393T6515017058140                                    701348481008/27/25SPE2DS25T393T.pdf  0000001EADOPPLER,BLOOD FLOW   DJB03Z1N000
SPE2DS25T393U6545017240408                                    701346148508/27/25SPE2DS25T393U.pdf  0000007KTRESUPPLY KIT,COMBAT  DMD01Z1N000
SPE2DS25T393V6515015984522                                    701346137708/27/25SPE2DS25T393V.pdf  0000006PGADAPTER,AIRWAY,CO2   PDPSFZ1N000
SPE2DS25T393W6510007219808                                    701346139008/27/25SPE2DS25T393W.pdf  0000006PGSPONGE,SURGICAL      DMD01Z1N000
SPE2DS25T393W6510007219808                                    701348359008/27/25SPE2DS25T393W.pdf  0000001PGSPONGE,SURGICAL      DMD01Z1N000
SPE2DS25T393X6545015493650                                    701346260108/27/25SPE2DS25T393X.pdf  0000004EACASE,MEDICAL INSTRU  DTP00Z1N000
SPE2DS25T393Y6640013605835                                    701346082908/27/25SPE2DS25T393Y.pdf  0000001EATEST PAPER AND COLO  DOE00Z1N000
SPE2DS25T393Z6510016929833                                    701346239208/27/25SPE2DS25T393Z.pdf  0000004EADRESSING,BURN,FIRST  PDPSFZ1N000
SPE2DS25T394A6515014625795                                    701346239808/27/25SPE2DS25T394A.pdf  0000001PGINTRAVENOUS INJECTI  DJM04Z1N000
SPE2DS25T394B6515016469750                                    701346260308/27/25SPE2DS25T394B.pdf  0000001PGINTRAOSSEOUS INFUSI  DCA00Z1N000
SPE2DS25T394B6515016469750                                    701348565108/27/25SPE2DS25T394B.pdf  0000002PGINTRAOSSEOUS INFUSI  DCA00Z1N000
SPE2DS25T394C6550016864885                                    701346239708/27/25SPE2DS25T394C.pdf  0000002EACONTROL,GLUCOSE      DST00Z1N000
SPE2DS25T394C6550016864885                                    701346260508/27/25SPE2DS25T394C.pdf  0000003EACONTROL,GLUCOSE      DST00Z1N000
SPE2DS25T394D6515016985602                                    701332487108/27/25SPE2DS25T394D.pdf  0000005BXBLADE,LARYNGOSCOPE   PDPSFZ1N000
SPE2DS25T394E6515016862401                                    701309258808/27/25SPE2DS25T394E.pdf  0000001EAADMINISTRATION SET,  PDPSFZ1N000
SPE2DS25T394F6515015237242                                    701346447508/27/25SPE2DS25T394F.pdf  0000004EASPHYGMOMANOMETER     PDPSFZ1N000
SPE2DS25T394G6510016052234                                    701346373308/27/25SPE2DS25T394G.pdf  0000001ROBANDAGE,GAUZE        PDPSFZ1N000
SPE2DS25T394H6515016297044                                    701346447308/27/25SPE2DS25T394H.pdf  0000006EACLAMP,HEMORRHAGE CO  PLCL5Z1N000
SPE2DS25T394J6515016484422                                    701346352908/27/25SPE2DS25T394J.pdf  0000001EACONNECTOR,INTRAVENO  PDPSFZ1N000
SPE2DS25T394K6515015595855                                    701346447408/27/25SPE2DS25T394K.pdf  0000003EASUPPORT,PELVIC       DDM01Z1N000
SPE2DS25T394L6515011688108                                    701346373508/27/25SPE2DS25T394L.pdf  0000001PGSYRINGE,HYPODERMIC   PDPSFZ1N000
SPE2DS25T394M6515017110636                                    701346412408/27/25SPE2DS25T394M.pdf  0000001PGHANDLE,CARRYING,POR  DJB03Z1N000
SPE2DS25T394M6515017110636                                    701346412508/27/25SPE2DS25T394M.pdf  0000001PGHANDLE,CARRYING,POR  DJB03Z1N000
SPE2DS25T394N6515016169426                                    701346352708/27/25SPE2DS25T394N.pdf  0000003EATRIMMER,ANIMAL TOEN  DMB03Z1N000
SPE2DS25T394P6515017110649                                    701346412608/27/25SPE2DS25T394P.pdf  0000001BXCARTRIDGE LINER,VEN  PLCL5Z1N000
SPE2DS25T394Q6515017144797                                    701346412808/27/25SPE2DS25T394Q.pdf  0000001PGCARTRIDGE,VENTILATO  DMB03Z1N000
SPE2DS25T394R6515014587025                                    701346534008/27/25SPE2DS25T394R.pdf  0000003PGSYRINGE AND NEEDLE,  DMB03Z1N000
SPE2DS25T394S6510015725745                                    701346441708/27/25SPE2DS25T394S.pdf  0000001PGDRESSING,SURGICAL,S  PDPSFZ1N000
SPE2DS25T394T6515016686983                                    701346441908/27/25SPE2DS25T394T.pdf  0000002EASENSOR,MULTI-GAS AN  DDP00Z1Y100
SPE2DS25T394U6515012796449                                    701346537108/27/25SPE2DS25T394U.pdf  0000001PGBRUSH,CYTOLOGY       PLCL5Z1N000
SPE2DS25T394V6515016589063                                    701346537008/27/25SPE2DS25T394V.pdf  0000001EAWRENCH,OXYGEN,MEDIC  DVS00Z1N000
SPE2DS25T394W6515016768008                                    701346534508/27/25SPE2DS25T394W.pdf  0000001EAKIT,MOUNTING BRACKE  PDPSFZ1N000
SPE2DS25T394X6510015506377                                    701346534808/27/25SPE2DS25T394X.pdf  0000001PGTOWEL PACK,SURGICAL  PDPSFZ1N000
SPE2DS25T394Y6515016682954                                    701346534308/27/25SPE2DS25T394Y.pdf  0000001EAANESTHETIC CARTRIDG  DCA00Z1N000
SPE2DS25T394Z6515013317295                                    701346534108/27/25SPE2DS25T394Z.pdf  0000040EATHERMOMETER KIT,CLI  DJM04Z1N000
SPE2DS25T394Z6515013317295                                    701348310408/27/25SPE2DS25T394Z.pdf  0000025EATHERMOMETER KIT,CLI  DJM04Z1N000
SPE2DS25T395A6515001656544                                    701346441608/27/25SPE2DS25T395A.pdf  0000003SEOTOSCOPE AND OPHTHA  PLCL5Z1N000
SPE2DS25T395B6540016025323                                    701346534208/27/25SPE2DS25T395B.pdf  0000005PGSPECTACLES,PROTECTI  DKJ00Z1N000
SPE2DS25T395C6510015982471                                    701346441808/27/25SPE2DS25T395C.pdf  0000001PGPAD,ABDOMINAL        PDPSFZ1N000
SPE3SE25Q50387320011104622                                    100021004708/25/25SPE3SE25Q5038.pdf  0000001EAFOOD WASTE DISPOSAL  PSPTPZ1N000
SPE3SE25T10967320014864357                                    701337530208/26/25SPE3SE25T1096.pdf  0000002EACABINET ASSEMBLY,MO  DMC00G1N000
SPE3SE25T10967320014864357                                    701339240308/26/25SPE3SE25T1096.pdf  0000002EACABINET ASSEMBLY,MO  DMC00G1N000
SPE3SE25T11194110014123995                                    701345334308/25/25SPE3SE25T1119.pdf  0000001EAREFRIGERATOR,MECHAN  PSPTPZ1N000
SPE3SE25T11207320014829297                                    701345330708/25/25SPE3SE25T1120.pdf  0000001EABUMPER,SLIDE         PSPTPZ1N000
SPE3SE25T11214110014257993                                    701345334208/25/25SPE3SE25T1121.pdf  0000001EAFREEZER,MECHANICAL,  PSPTPZ1N000
SPE3SE25T11227320016198569                                    701336767808/25/25SPE3SE25T1122.pdf  0000001EADISHWASHING MACHINE  DJP02Z1Y100
SPE4A025T45855306011922213                                    701328801808/26/25SPE4A025T4585.pdf  0000003EABOLT,MACHINE         GQA42R1N000
SPE4A025T47005315013876196                                    701341408708/29/25SPE4A025T4700.pdf  0000006EAPIN,STRAIGHT,HEADED  GPD00H1N000
SPE4A025T47015325013559219                                    701341408808/29/25SPE4A025T4701.pdf  0000002EAINSERT,SCREW THREAD  GPD00H1N000
SPE4A025T47025305016031354                                    701341406408/29/25SPE4A025T4702.pdf  0000006EASCREW,SHOULDER       GPD00G1N000
SPE4A025T47033040013344904                                    701341412508/29/25SPE4A025T4703.pdf  0000001EASHAFT,SHOULDERED     GPD00R1N000
SPE4A025T47046680015887116                                    701341400308/29/25SPE4A025T4704.pdf  0000001EATACHOMETER,ELECTRIC  GPD00D1N000
SPE4A025T47055315016963196                                    701340748808/29/25SPE4A025T4705.pdf  0000002EAPIN,COTTER           GPD00G1N000
SPE4A025T47062925009867082                                    701340743108/29/25SPE4A025T4706.pdf  0000018EASPARK PLUG           GPD00C1N000
SPE4A025T47074010016309932                                    701340746008/29/25SPE4A025T4707.pdf  0000001EAWIRE ROPE ASSEMBLY,  GPD00D1N000
SPE4A025T47085310016895556                                    701340749508/29/25SPE4A025T4708.pdf  0000002EAWASHER,FLAT          GPD00R1N000
SPE4A025T47095970010852845                                    701340750208/29/25SPE4A025T4709.pdf  0000001FTINSULATION SLEEVING  GPD00T1N000
SPE4A025T47105970003391292                                    701340977408/29/25SPE4A025T4710.pdf  0000020ROTAPE,INSULATION,ELE  GPD00L1N000
SPE4A025T47114710009813089                                    701340948408/29/25SPE4A025T4711.pdf  0000001EATUBE ASSEMBLY,METAL  GPD00R1N000
SPE4A025T47114710009813089                                    701343379008/29/25SPE4A025T4711.pdf  0000001EATUBE ASSEMBLY,METAL  GPD00R1N000
SPE4A025T47125310015626312                                    701340981508/29/25SPE4A025T4712.pdf  0000002EANUT ASSEMBLY,RETAIN  GPD00R1N000
SPE4A025T47135975016910628                                    701340954308/29/25SPE4A025T4713.pdf  0000001EAPROTECTOR,ELECTRICA  GPD00Z1N000
SPE4A025T47145315011628736                                    701340977708/29/25SPE4A025T4714.pdf  0000004EAPIN,GROOVED,HEADED   GPD00L1N000
SPE4A025T47156685015835630                                    701340978108/29/25SPE4A025T4715.pdf  0000001EAPROBE,TEMPERATURE D  GPD00D1N000
SPE4A025T47165305016947987                                    701340975708/29/25SPE4A025T4716.pdf  0000004EASCREW,CAP,HEXAGON H  GPD00G1N000
SPE4A025T47175995016924680                                    701340971808/29/25SPE4A025T4717.pdf  0000001EACABLE ASSEMBLY,SPECIAGPD00G1N000
SPE4A025T47186685996661027                                    701340954208/29/25SPE4A025T4718.pdf  0000002EAINDICATOR,TEMPERATU  GPD00Z1N000
SPE4A025T47195305017108488                                    701340957508/29/25SPE4A025T4719.pdf  0000002EASCREW,CAP,HEXAGON H  GPD00G1N000
SPE4A025T472043999L5854751-1                                  701345892708/29/25SPE4A025T4720.pdf  0000001EAINSTRUMENTATION I ISTDTA00H2N000
SPE4A025T47215305011974644                                    701085039808/29/25SPE4A025T4721.pdf  0000001EATHUMBSCREW           GPD00G1N000
SPE4A025T47225325016782134                                    701247346208/29/25SPE4A025T4722.pdf  0000018EAFASTENER,TRIM,RIBBE  GPD00R1N000
SPE4A025T47225325016782134                                    701247346308/29/25SPE4A025T4722.pdf  0000018EAFASTENER,TRIM,RIBBE  GPD00R1N000
SPE4A025T47225325016782134                                    701247346408/29/25SPE4A025T4722.pdf  0000018EAFASTENER,TRIM,RIBBE  GPD00R1N000
SPE4A025T47235305010685470                                    701339241708/29/25SPE4A025T4723.pdf  0000002EASCREW,MACHINE        GPD00G1N000
SPE4A025T47245310014147521                                    701243668108/29/25SPE4A025T4724.pdf  0000002EANUT,SLEEVE           GPD00G1N000
SPE4A025T47255315015732424                                    701339233608/29/25SPE4A025T4725.pdf  0000061EAPIN,QUICK RELEASE    GPD00L1N000
SPE4A025T47265995016070421                                    701341412908/29/25SPE4A025T4726.pdf  0000001EACABLE ASSEMBLY,SPEC  GPD00Q1N000
SPE4A025T47275935013970174                                    701341406508/29/25SPE4A025T4727.pdf  0000001EACONNECTOR,PLUG,ELEC  GPD00D1N000
SPE4A025T47285995016269519                                    701335046408/29/25SPE4A025T4728.pdf  0000001EACABLE ASSEMBLY,SPEC  GPD00R1N000
SPE4A025T47285995016269519                                    701335046508/29/25SPE4A025T4728.pdf  0000001EACABLE ASSEMBLY,SPEC  GPD00R1N000
SPE4A025T47285995016269519                                    701335046608/29/25SPE4A025T4728.pdf  0000001EACABLE ASSEMBLY,SPEC  GPD00R1N000
SPE4A025T47291560011246152                                    701342116208/29/25SPE4A025T4729.pdf  0000001EASUPPORT,CARGO DOOR   GPA65G1N000
SPE4A025T47305365015294806                                    701320995708/29/25SPE4A025T4730.pdf  0000001EASPACER,PLATE         DVK00G1N000
SPE4A025T47311560006246731                                    701340165808/29/25SPE4A025T4731.pdf  0000001EATUBE,PILOTS STICK    GPA65G1N000
SPE4A025T47311560006246731                                    701343379108/29/25SPE4A025T4731.pdf  0000001EATUBE,PILOTS STICK    GPA65G1N000
SPE4A025T47323040011807108                                    701340958408/29/25SPE4A025T4732.pdf  0000002EACONNECTING LINK,RIG  GPD00Q1N000
SPE4A025T47331650016653844                                    701328505308/29/25SPE4A025T4733.pdf  0000001EAHOUSING,BRAKE,AIRCR  GPD00Q1N000
SPE4A125Q01385365014934074                                    701342021008/28/25SPE4A125Q0138.pdf  0000007EASPACER,SLEEVE        DVW00C1N000
SPE4A125T55015365017260390                                    701289966508/26/25SPE4A125T5501.pdf  0000600EABUSHING,SLEEVE       DKB01R1N000
SPE4A125T55925306016281284                                    701329620508/26/25SPE4A125T5592.pdf  0000003EABOLT,MACHINE         DJS04G1N000
SPE4A125T55995306016060584                                    701333280508/26/25SPE4A125T5599.pdf  0000052EAROD,CONTINUOUS THRE  DJS04G1N000
SPE4A125T56145325016904454                                    701323256608/26/25SPE4A125T5614.pdf  0000052EAFASTENER,SNAP        DLA00R1N000
SPE4A125T57211560013877809                                    701337037308/29/25SPE4A125T5721.pdf  0000005EAFAIRING,AIRCRAFT     GPP52C1N000
SPE4A125T57225975017151891                                    701346584408/29/25SPE4A125T5722.pdf  0000001EABUSHING,STRAIN RELI  DKB01G1N000
SPE4A125T57235306012255754                                    701341403708/29/25SPE4A125T5723.pdf  0000008EABOLT,MACHINE         DLA00L1N000
SPE4A125T57245325016444184                                    701340954108/29/25SPE4A125T5724.pdf  0000001EAINSERT AND TOOL SET  DJS04Q1N000
SPE4A125T57251680011594603                                    701342916008/29/25SPE4A125T5725.pdf  0000076EASHAFT ASSEMBLY,FLIG  GPP52C1N000
SPE4A125T57261680011486312                                    701342909008/29/25SPE4A125T5726.pdf  0000011EAARM ASSEMBLY         GPP52C1N000
SPE4A125T57276685003173221                                    701336951308/29/25SPE4A125T5727.pdf  0000007EAGAGE, PRESSURE, DIAL DAJ00C1N000
SPE4A125T57285306011445583                                    701290051008/29/25SPE4A125T5728.pdf  0000012EABOLT,SHEAR           DJS04G1N000
SPE4A125T57291560000078876                                    701331686608/29/25SPE4A125T5729.pdf  0000001EAPANEL,INTERIOR TRIM  DAF00G1N000
SPE4A125T57301680015146013                                    701342930908/29/25SPE4A125T5730.pdf  0000002EAPLATE,AIRCRAFT,MATE  GPP52D1N000
SPE4A125T57315342011769391                                    701348336108/29/25SPE4A125T5731.pdf  0000126EAROD,CONTROL          DKB01C1N000
SPE4A125T57321560010945783                                    701348108308/29/25SPE4A125T5732.pdf  0000017EABRACKET,SERVO        DAC00C1N000
SPE4A125T57335365008180691                                    701247330708/29/25SPE4A125T5733.pdf  0000001EASPACER,SLEEVE        DKB01G1N000
SPE4A125T57341560006236566                                    701234616708/29/25SPE4A125T5734.pdf  0000013EAARM,AFT DOOR ACTUAT  DAH01C1N000
SPE4A125T57351560016113577                                    701333218508/29/25SPE4A125T5735.pdf  0000014EADIAPHRAGM,AIRCRAFT   DAF00Q1N000
SPE4A125T57361560016268706                                    701336853308/29/25SPE4A125T5736.pdf  0000009EASTEP,AIRCRAFT        GPP52C1N000
SPE4A225T01525305013220810                                    701337530808/29/25SPE4A225T0152.pdf  0000001EASETSCREW             DGL00C1N000
SPE4A225T01531680015243784                                    701329964008/29/25SPE4A225T0153.pdf  0000005EAPATCH,AIRCRAFT,MATE  DGL00C1N000
SPE4A225T01545330016500138                                    701318326809/02/25SPE4A225T0154.pdf  0000002EAGASKET               GPC40D1N000
SPE4A225T01555930015193691                                    701318371208/29/25SPE4A225T0155.pdf  0000004EASWITCH,PRESSURE      GPC40Q1Y100
SPE4A525T541Z4920011283130                                    701283282108/26/25SPE4A525T541Z.pdf  0000001EAFIXTURE,MASKING,STA  DAW01C1N000
SPE4A525T571Z4920010712717                                    701300414408/26/25SPE4A525T571Z.pdf  0000011EACONTROLLER,TESTER R  DHT00R1N000
SPE4A525T573H5315014985110                                    701300322608/26/25SPE4A525T573H.pdf  0000038EAPIN,STRAIGHT,HEADLESSDLB01R1N000
SPE4A525T645E6685003088627                                    701316773108/26/25SPE4A525T645E.pdf  0000001EABELLOWS ASSEMBLY     DDH01Q1N000
SPE4A525T645E6685003088627                                    701316773208/26/25SPE4A525T645E.pdf  0000001EABELLOWS ASSEMBLY     DDH01Q1N000
SPE4A525T645E6685003088627                                    701316773308/26/25SPE4A525T645E.pdf  0000004EABELLOWS ASSEMBLY     DDH01Q1N000
SPE4A525T662G6350015473749                                    701330237708/26/25SPE4A525T662G.pdf  0000012EABUZZER               DBC01D1N000
SPE4A525T662W6685014848683                                    701333340008/26/25SPE4A525T662W.pdf  0000001EATRANSMITTER,PRESSUR  DMW01Q1N000
SPE4A525T663G5310004727798                                    701333127008/26/25SPE4A525T663G.pdf  0001588EAWASHER,FLAT          DAK00C1Y100
SPE4A525T664B1680014675164                                    701323226408/26/25SPE4A525T664B.pdf  0000006EASHAFT ASSEMBLY,FLEX  DCD01D1N000
SPE4A525T664C1680015285982                                    701333148608/26/25SPE4A525T664C.pdf  0000002EAMOTOR,WINDSHIELD WI  DDR01C1N000
SPE4A525T664H1560011153586                                    701323228108/26/25SPE4A525T664H.pdf  0000013EALATCH ASSY           DSH01C1N000
SPE4A525T664K3040012448553                                    701323180508/26/25SPE4A525T664K.pdf  0000008EAPLATE,RETAINING,SHA  DKR00D1N000
SPE4A525T664R5342012646859                                    701323284408/26/25SPE4A525T664R.pdf  0000048EAPLATE,SUPPORT        DJC03C1N000
SPE4A525T696L6115002419014                                    701347157808/29/25SPE4A525T696L.pdf  0000013EAEND BELL,ELECTRICAL  DKR00D1N000
SPE4A525T696M5360015249957                                    701347161308/29/25SPE4A525T696M.pdf  0000032EASPRING,FLAT          DJB04P1N000
SPE4A525T696N5307015241562                                    701346984908/29/25SPE4A525T696N.pdf  0000016EASTUD ASSEMBLY,AIRCR  GPF46C1N000
SPE4A525T696P5355009456056                                    701340165708/29/25SPE4A525T696P.pdf  0000001EAKNOB                 DFP00D1N000
SPE4A525T696Q1680014932005                                    701341396708/29/25SPE4A525T696Q.pdf  0000001EAUPLOCK ASSEMBLY,DOO  DCG01D1N000
SPE4A525T696R4030016018803                                    701341401708/29/25SPE4A525T696R.pdf  0000004EASWIVEL,EYE AND LINK  DHT00D1N000
SPE4A525T696S5306015280856                                    701340948908/29/25SPE4A525T696S.pdf  0000002EABOLT,SHEAR           DDN00Z1N000
SPE4A525T696T1650001598007                                    701343136308/29/25SPE4A525T696T.pdf  0000001EAHEAD,LINEAR ACTUATI  DCG01C1N000
SPE4A525T696U1680011594604                                    701342916108/29/25SPE4A525T696U.pdf  0000005EALEVER ASSEMBLY,COLL  PARABC1N000
SPE4A525T696V1680015416620                                    701342950208/29/25SPE4A525T696V.pdf  0000003EATIP RIB ASSY,AIRCRA  GPF46C1N000
SPE4A525T696W5310003420401                                    701342949608/29/25SPE4A525T696W.pdf  0000050EAWASHER,SPRING TENSI  DBC01L1N000
SPE4A525T696X2910009422028                                    701337119208/29/25SPE4A525T696X.pdf  0000027EAHOUSING,ACTUATING    DAB02L1N000
SPE4A525T696Y4320014303792                                    701333311208/29/25SPE4A525T696Y.pdf  0000002EAPUMP,ROTARY          DBC01D1N000
SPE4A525T696Z1560016761084                                    701333292808/29/25SPE4A525T696Z.pdf  0000014EAPLATE,STRUCTURAL,AI  GPF46C1N000
SPE4A525T697A1650004891672                                    701331270208/29/25SPE4A525T697A.pdf  0000001EACAP,LINEAR ACTUATIN  DDR01P1N000
SPE4A525T697B1650015702215                                    701342912208/29/25SPE4A525T697B.pdf  0000018EACONN ACCESS,STR,AIR  DLB01Q1N000
SPE4A525T697C1560016880582                                    701333243808/29/25SPE4A525T697C.pdf  0000020EAINTERCOSTAL,AIRCRAF  DSM02P1N000
SPE4A525T697D1560017308382                                    701333343108/29/25SPE4A525T697D.pdf  0000026EAPLATE,STRUCTURAL,AI  DJL01D1N000
SPE4A525T697E1560017321199                                    701333110908/29/25SPE4A525T697E.pdf  0000001EAFITTING,STRUCTURAL   DCB00D1N000
SPE4A525T697F6695999891500                                    701343184108/29/25SPE4A525T697F.pdf  0000005EAREMOTE CONTROL,INST  DKC01Q1Y100
SPE4A525T697G4920017073923                                    701248186208/29/25SPE4A525T697G.pdf  0000001EAFIXTURE,AIRCRAFT MA  DHT00P1N000
SPE4A525T697H5310015293117                                    701342969408/29/25SPE4A525T697H.pdf  0000018EANUT,PLAIN,HEXAGON    DRK00R1N000
SPE4A525T697J5315011117764                                    701347970608/29/25SPE4A525T697J.pdf  0000010EAPIN,STRAIGHT,HEADLE  DCD01D1N000
SPE4A525T697K5306015363513                                    701343073308/29/25SPE4A525T697K.pdf  0000040EABOLT,CLOSE TOLERANC  DDN00Z1N000
SPE4A525T697L5305014522086                                    701348038908/29/25SPE4A525T697L.pdf  0000100EASCREW,CAP,SOCKET HE  PARWAD1N000
SPE4A525T697M5340015174924                                    701342937908/29/25SPE4A525T697M.pdf  0000016EARETAINER,HELICAL CO  DCG01C1N000
SPE4A525T697N5340007177250                                    701345808708/29/25SPE4A525T697N.pdf  0000006EASEAT,HELICAL COMPRE  DFP00P1N000
SPE4A525T697P6685012648010                                    701343064908/29/25SPE4A525T697P.pdf  0000013EAGAGE,PRESSURE,DIAL INDKC01D1N000
SPE4A525T697Q6685008974402                                    701343163808/29/25SPE4A525T697Q.pdf  0000020EAMANOMETER,INCLINED   DKC01G1N000
SPE4A525T697R3120000534514                                    701343192108/29/25SPE4A525T697R.pdf  0000009EABUSHING,SLEEVE       DLB01D1N000
SPE4A525T697S4920016310514                                    701318046108/29/25SPE4A525T697S.pdf  0000001EAFIXTURE,AIRCRAFT MA  DHT00G1N000
SPE4A525T697T6685013092307                                    701343088808/29/25SPE4A525T697T.pdf  0000008EAGAGE,PRESSURE,DIAL   DKC01D1N000
SPE4A525T697U6685011374223                                    701337529608/29/25SPE4A525T697U.pdf  0000008EATHERMOSTAT,FLOW CON  DDH01Q1N000
SPE4A525T697V5330016562978                                    701348150908/29/25SPE4A525T697V.pdf  0000002EASEAL ASSEMBLY        GPF46P1N000
SPE4A525T697W6685016906517                                    701343068108/29/25SPE4A525T697W.pdf  0000014EASENSOR,AMBIENT TEMP  DDH01D1N000
SPE4A525T697X6685015451907                                    701342926508/29/25SPE4A525T697X.pdf  0000004EATHERMOCOUPLE,CONTAC  DCG01R1N000
SPE4A525T697Y1680001102425                                    701343197608/29/25SPE4A525T697Y.pdf  0000009EAPLATE,ACTUATOR       DRK00Q1N000
SPE4A525T697Z1680015622505                                    701342892008/29/25SPE4A525T697Z.pdf  0000003EAPLATE,AIRCRAFT,MATE  GPF46C1N000
SPE4A525T698A1680016298404                                    701342975508/29/25SPE4A525T698A.pdf  0000036EAPARTS KIT,SEAL REPL  DCM01R1N000
SPE4A525T698B6150012039658                                    701341375808/29/25SPE4A525T698B.pdf  0000001EACABLE ASSEMBLY,PRIN  DFP00R1N000
SPE4A525T698C8010014670156                                    701341984908/29/25SPE4A525T698C.pdf  0000001KTEPOXY PRIMER COATIN  DMA01C1N000
SPE4A525T698D1680015991021                                    701343063308/29/25SPE4A525T698D.pdf  0000012EANRP,RGB CHIP DETECT  DBC01C1N000
SPE4A525T698E6695001930516                                    701343114108/29/25SPE4A525T698E.pdf  0000005EAMETER MOVEMENT       DDH01D1Y100
SPE4A525T698F5306004056163                                    700840315008/29/25SPE4A525T698F.pdf  0000081EABOLT,SHOULDER        DAB02R1N000
SPE4A525T698G5365011580105                                    701342903608/29/25SPE4A525T698G.pdf  0000059EASHIM                 DCD01G1N000
SPE4A525T698H4820014530724                                    701342896808/29/25SPE4A525T698H.pdf  0000002EABALL,VALVE,PORTED    DJB03D1N000
SPE4A525T698J1680011402302                                    701342916808/29/25SPE4A525T698J.pdf  0000086EAPISTON,ACTUATOR      DCM01C1N000
SPE4A525T698K6685013374362                                    701323471808/29/25SPE4A525T698K.pdf  0000002EAGAGE,DIFFERENTIAL,D  DSW01C1N000
SPE4A525T698L6685015802875                                    701336879608/29/25SPE4A525T698L.pdf  0000004EAGAGE,ABSOLUTE PRESS  DMW01B1N000
SPE4A525T698M6685016288419                                    701342998908/29/25SPE4A525T698M.pdf  0000014EAGAGE,PRESSURE,DIAL   DDH01D1N000
SPE4A525T698N6605013270253                                    701348332908/29/25SPE4A525T698N.pdf  0000001EACONTROL-INDICATOR S  DJW02Q1N000
SPE4A525T698P6685016903918                                    701343066708/29/25SPE4A525T698P.pdf  0000020EATRANSMITTER,PRESSUR  DDH01Z1N000
SPE4A525T698Q6685226244639                                    701345854608/29/25SPE4A525T698Q.pdf  0000003EATHERMOMETER,INDICAT  DKN00Q1N000
SPE4A525T698R1680004491180                                    701333134508/29/25SPE4A525T698R.pdf  0000009EAGEAR                 DSK01D1N000
SPE4A525T698S5306011167963                                    701323498408/29/25SPE4A525T698S.pdf  0000074EABOLT,INTERNALLY REL  DLH00G1Y100
SPE4A525T698T1560016257894                                    701314605508/29/25SPE4A525T698T.pdf  0000001EAFITTING,STRUCTURAL   GPF46G1N000
SPE4A525T698U4730016825687                                    701340959908/29/25SPE4A525T698U.pdf  0000001EARESTRICTOR,FLUID FL  DDR01D1N000
SPE4A525T698V5975017251303                                    701341389308/29/25SPE4A525T698V.pdf  0000001EAADAPTER,STUFFING TU  DCD01D1N000
SPE4A525T698W1560014719108                                    701337092708/29/25SPE4A525T698W.pdf  0000010EAPLATE,SOCKET         GPF46C1N000
SPE4A525T698X5975016990456                                    701341394108/29/25SPE4A525T698X.pdf  0000005EATEE,ELECTRICAL COND  DJC03Z1N000
SPE4A525T698Y5998016831880                                    701340960308/29/25SPE4A525T698Y.pdf  0000001EAPRINTED CIRCUIT BOA  DDR01D1N000
SPE4A525T698Z6685001398285                                    701332122908/29/25SPE4A525T698Z.pdf  0000059EATHERMOSTAT,FLOW CON  DTJ00D1N000
SPE4A525T699A6685015288516                                    701342294608/29/25SPE4A525T699A.pdf  0000001EAGAGE,PRESSURE,DIAL   DDH01D1N000
SPE4A525T699B1680014546691                                    701290028208/29/25SPE4A525T699B.pdf  0000003EAPANEL,INDICATOR      DKM01R1N000
SPE4A525T699C4820012962336                                    701071857108/29/25SPE4A525T699C.pdf  0000002EAVALVE,VENT           DBC01Q1N000
SPE4A525T699D6685013055079                                    701333176108/29/25SPE4A525T699D.pdf  0000001EATRANSMITTER,PRESSUR  DMW01D1N000
SPE4A525T699E5340013706837                                    701335090408/29/25SPE4A525T699E.pdf  0001275EABRACKET,ANGLE        DSO00P1N000
SPE4A525T699F1560016588888                                    701333213508/29/25SPE4A525T699F.pdf  0000007EAFUSELAGE             DKS01P1N000
SPE4A525T699G4820015130983                                    701333132608/29/25SPE4A525T699G.pdf  0000001EAVALVE,CHECK          DDR01D1N000
SPE4A525T699H3110017319490                                    701333351408/29/25SPE4A525T699H.pdf  0000020EABEARING,ROLLER,CYLI  DSH01C1Y100
SPE4A525T699J1560016823698                                    701333319608/29/25SPE4A525T699J.pdf  0000024EAWEB,STRUCTURAL COMP  DCB00D1N000
SPE4A525T699K1560017312095                                    701333335708/29/25SPE4A525T699K.pdf  0000496EAFITTING,STRUCTURAL   DSH01C1N000
SPE4A525T699L1560015243885                                    701333155808/29/25SPE4A525T699L.pdf  0000037EASUPPORT,STRUCTURAL   GPF46C1N000
SPE4A525T699M1560017319099                                    701333335208/29/25SPE4A525T699M.pdf  0000001EAFITTING,STRUCTURAL   DCB00D1N000
SPE4A525T699N1560017185189                                    701333282008/29/25SPE4A525T699N.pdf  0000003EADOOR,ACCESS,AIRCRAF  DKM01C1N000
SPE4A525T699P1560017308471                                    701323345108/29/25SPE4A525T699P.pdf  0000007EASUPPORT,STRUCTURAL   DTD00Y1N000
SPE4A525T699Q3110017319594                                    701333118408/29/25SPE4A525T699Q.pdf  0000020EABEARING,BALL,ANNULA  DSH01Q1Y100
SPE4A525T699R1560012828741                                    701336849108/29/25SPE4A525T699R.pdf  0000010SHCOVERING,EXTERNAL S  DSO00C1N000
SPE4A525T699S4140004559645                                    701348704208/29/25SPE4A525T699S.pdf  0000004EAIMPELLER,FAN,CENTRI  PARACQ1N000
SPE4A525T699T1560017315378                                    701333335408/29/25SPE4A525T699T.pdf  0000001EAFITTING,STRUCTURAL   DJL01D1N000
SPE4A525T699U1560015243329                                    701336819408/29/25SPE4A525T699U.pdf  0000003EATUBE ASSY            GPF46C1N000
SPE4A525T699V1680015876451                                    701331064308/29/25SPE4A525T699V.pdf  0000001EABE LENEXA INSULATE   DBB01D1N000
SPE4A525T699W1560016025685                                    701336822608/29/25SPE4A525T699W.pdf  0000019EABRACKET,STRUCTURAL   DKM01C1N000
SPE4A525T699X1680009746460                                    701348734308/29/25SPE4A525T699X.pdf  0000002EABELL CRANK           GPF46Q1N000
SPE4A525T699Y1560016417663                                    701337117708/29/25SPE4A525T699Y.pdf  0000007EASUPPORT,STRUCTURAL   DJB03C1N000
SPE4A525T699Z6220014438786                                    701340947608/29/25SPE4A525T699Z.pdf  0000001EARETAINER,LAMP        DKS01D1N000
SPE4A525T700A4730015238713                                    701322348808/29/25SPE4A525T700A.pdf  0000001EAUNION,TUBE           DJB02C1N000
SPE4A525T700B5320015698471                                    701333604308/29/25SPE4A525T700B.pdf  0000100EARIVET,SOLID          DTD00C1N000
SPE4A525T700C1560017279075                                    701323296308/29/25SPE4A525T700C.pdf  0000002EABULKHEAD,AIRCRAFT    DJL01C1N000
SPE4A525T700D5342009990405                                    701332063808/29/25SPE4A525T700D.pdf  0000057EALATCH,CHARGING HAND  DCD01G1N000
SPE4A625Q16991420017149353                                    700690685409/04/25SPE4A625Q1699.pdf  0000006EACABLE ASSEMBLY,SPEC  DNK00G1Y100
SPE4A625Q17295305640007183                                    701275669108/22/25SPE4A625Q1729.pdf  0000004EASCREW,CAP,HEXAGON H  DVP00D1N000
SPE4A625Q17426635017278467                                    701234249608/29/25SPE4A625Q1742.pdf  0000001EAX-RAY EQUIPMENT,IND  DAM01Q1N000
SPE4A625Q17436150015990875                                    701275410809/05/25SPE4A625Q1743.pdf  0000014AYNRP,CABLE ASSEMBLY,  DLS00D1N000
SPE4A625Q17445995016939261                                    701275331209/04/25SPE4A625Q1744.pdf  0000057EACABLE ASSEMBLY,POWE  DZL00G1Y100
SPE4A625Q17456150015001918                                    701230236209/01/25SPE4A625Q1745.pdf  0000069EAWIRING HARNESS,BRAN  DJF01C1N000
SPE4A625Q17465995015305432                                    701287293608/31/25SPE4A625Q1746.pdf  0000094EACABLE ASSEMBLY,PRIN  DAB02C1Y100
SPE4A625T03FG3120011648348                                    701268575508/26/25SPE4A625T03FG.pdf  0000020EABUSHING,SLEEVE       DBW00C1N000
SPE4A625T10LP6210015593189                                    701289919908/26/25SPE4A625T10LP.pdf  0000097EAFILTER,LIGHT,UTILIT  DLS00D1N000
SPE4A625T11SV6320015472493                                    701289940408/26/25SPE4A625T11SV.pdf  0000008EAINDICATOR,STEERING   DMG01R1N000
SPE4A625T13FH3120015523915                                    701298521408/26/25SPE4A625T13FH.pdf  0000042EABUSHING,SLEEVE       DJW02C1N000
SPE4A625T13HV6680015425415                                    701298312608/26/25SPE4A625T13HV.pdf  0000002EASWITCH,LIQUID LEVEL  DJW02D1N000
SPE4A625T14SM3110003478423                                    701301756908/26/25SPE4A625T14SM.pdf  0000095EABEARING,BALL,ANNULA  DCW01P1N000
SPE4A625T14XF3110012501216                                    701302038808/26/25SPE4A625T14XF.pdf  0000425EABEARING,FLUID FILM   GPP87D1N000
SPE4A625T14YT5310017200519                                    701291893508/26/25SPE4A625T14YT.pdf  0000001EANUT,PLAIN,HEXAGON    DAA00G1N000
SPE4A625T157Z3120000183956                                    700998669612/16/24SPE4A625T157Z.pdf  0000029EABEARING,PLAIN,SELF-ALDBJ00Z1Y100
SPE4A625T16BN5305017246534                                    701291924008/26/25SPE4A625T16BN.pdf  0000001EASCREW,CAP,HEXAGON H  DCC02Z1N000
SPE4A625T18GV3110003648114                                    701309340908/26/25SPE4A625T18GV.pdf  0000010EABEARING, BALL, ANNULADJW02B1N000
SPE4A625T18YG5310017213005                                    701291901708/26/25SPE4A625T18YG.pdf  0000002EAWASHER,FLAT          DAA00G1N000
SPE4A625T19PQ3120015039131                                    701306304708/26/25SPE4A625T19PQ.pdf  0000009EABEARING,WASHER,THRU  DCY00G1N000
SPE4A625T20NT3120014645556                                    701300401108/26/25SPE4A625T20NT.pdf  0000039EABEARING,PLAIN,ROD E  DBJ00P1N000
SPE4A625T20VA5305011641625                                    701318274508/26/25SPE4A625T20VA.pdf  0000394EASCREW,CLOSE TOLERAN  GPC40B1N000
SPE4A625T21FF5306014143042                                    701315067308/26/25SPE4A625T21FF.pdf  0000004EABOLT,MACHINE         DMF00R1N000
SPE4A625T22JE5306014932867                                    701323534508/26/25SPE4A625T22JE.pdf  0000009EABOLT,SHEAR           DDW01H1N000
SPE4A625T24N55310011885108                                    701157644408/26/25SPE4A625T24N5.pdf  0000064EANUT,PLAIN,HEXAGON    DBM01P1N000
SPE4A625T24ZQ3120013985437                                    701306324108/26/25SPE4A625T24ZQ.pdf  0000001EABEARING,SLEEVE       DSD00G1N000
SPE4A625T25RS5310008960789                                    701333361908/26/25SPE4A625T25RS.pdf  0000450EANUT,SELF-LOCKING,HE  DDF00G1N000
SPE4A625T25XF3120014925284                                    701333194108/26/25SPE4A625T25XF.pdf  0000004EABEARING,SLEEVE       DRB00C1N000
SPE4A625T26EM3120015281981                                    701333148808/26/25SPE4A625T26EM.pdf  0000002EABEARING,SLEEVE       DQM00C1N000
SPE4A625T26MG5305017145899                                    701333290208/26/25SPE4A625T26MG.pdf  0000005EASCREW,CAP,SOCKET HE  DLH01G1N000
SPE4A625T26MT5305017145095                                    701333290308/26/25SPE4A625T26MT.pdf  0000005EASCREW,CAP,SOCKET HE  DMG01G1N000
SPE4A625T26VC6680001827695                                    701333260908/26/25SPE4A625T26VC.pdf  0000012EAINDICATOR,LIQUID QU  DCR00C1N000
SPE4A625T27BA5305005626541                                    700847250908/26/25SPE4A625T27BA.pdf  0000025EASCREW,CAP,SOCKET HE  DAS02C1N000
SPE4A625T27BF3110012445783                                    701333203908/26/25SPE4A625T27BF.pdf  0000003EAROLLER,BEARING       DRB00Q1Y100
SPE4A625T27BK5306016971140                                    701306328808/26/25SPE4A625T27BK.pdf  0000060EABOLT,MACHINE         DNS00B1N000
SPE4A625T27CC5315007262491                                    701335710508/26/25SPE4A625T27CC.pdf  0000291EAKEY,MACHINE          DEM00G1N000
SPE4A625T27CZ6685005269192                                    701333393808/26/25SPE4A625T27CZ.pdf  0000008EAMANOMETER,U-TUBE     DMB03Q1N000
SPE4A625T27DF5307012198673                                    701275366908/26/25SPE4A625T27DF.pdf  0000014EASTUD,CONTINUOUS THR  PARFJG1N000
SPE4A625T27DY5970010852845                                    701329827908/26/25SPE4A625T27DY.pdf  0000003FTINSULATION SLEEVING  GPD24T1N000
SPE4A625T27DY5970010852845                                    701329883708/26/25SPE4A625T27DY.pdf  0000036FTINSULATION SLEEVING  GPD24T1N000
SPE4A625T27DY5970010852845                                    701329900708/26/25SPE4A625T27DY.pdf  0000006FTINSULATION SLEEVING  GPD24T1N000
SPE4A625T27DY5970010852845                                    701331075708/26/25SPE4A625T27DY.pdf  0000034FTINSULATION SLEEVING  GPD24T1N000
SPE4A625T27DY5970010852845                                    701331076208/26/25SPE4A625T27DY.pdf  0000003FTINSULATION SLEEVING  GPD24T1N000
SPE4A625T27EC64083VAP1000430G                                 701334553508/26/25SPE4A625T27EC.pdf  0000001EAINSTRUMENTATION I ISTGPP49H2N000
SPE4A625T27FA5306004624303                                    701319565708/26/25SPE4A625T27FA.pdf  0001000EABOLT,MACHINE         DTC01G1N000
SPE4A625T27FG4010012062231                                    701038822508/26/25SPE4A625T27FG.pdf  0000112EACHAIN,WELDED         DLO00G1N000
SPE4A625T27FM5310002206583                                    701333293608/26/25SPE4A625T27FM.pdf  0000130EAWASHER,FLAT          DVP00L1N000
SPE4A625T27FP5320008503282                                    701333322508/26/25SPE4A625T27FP.pdf  0000238HDRIVET,BLIND          DMJ00G1N000
SPE4A625T27FX5306011842660                                    701323338508/26/25SPE4A625T27FX.pdf  0000197EABOLT,MACHINE         DDF00G1N000
SPE4A625T27GB5310008006994                                    701333115308/26/25SPE4A625T27GB.pdf  0005368EANUT,SELF-LOCKING,EX  DMG01B1R100
SPE4A625T27GG5310010422598                                    701289886008/26/25SPE4A625T27GG.pdf  0000003EANUT,SELF-LOCKING,CL  DAW01B1N000
SPE4A625T27GP5310013801693                                    701333370908/26/25SPE4A625T27GP.pdf  0019434EAWASHER,LOCK          DMG01G1N000
SPE4A625T27HE5310017296468                                    701323293208/26/25SPE4A625T27HE.pdf  0000032EAWASHER,FLAT          DMH01G1Y100
SPE4A625T27HK5310001499737                                    701225078008/26/25SPE4A625T27HK.pdf  0000136EAWASHER,FLAT          DAJ00L1N000
SPE4A625T27HQ5315012663877                                    701333221608/26/25SPE4A625T27HQ.pdf  0000030EAPIN,STRAIGHT,HEADED  DNS00G1N000
SPE4A625T27KC5315000108268                                    701323351808/26/25SPE4A625T27KC.pdf  0000342EAPIN,SHOULDER,HEADLESSGWO26C1N000
SPE4A625T27KM5310005675341                                    701176203508/26/25SPE4A625T27KM.pdf  0000821EANUT,SELF-LOCKING,EX  DAS02R1N000
SPE4A625T27KQ5305012726873                                    701323253708/26/25SPE4A625T27KQ.pdf  0000013BXSCREW,CAP,SOCKET HE  DTG01D1N000
SPE4A625T27KS3120016521953                                    701323217508/26/25SPE4A625T27KS.pdf  0000007EABEARING,SLEEVE       PARFKP1N000
SPE4A625T27KU6220013827763                                    701323406108/26/25SPE4A625T27KU.pdf  0000256EALENS,LIGHT           DST00G1N000
SPE4A625T27LR5895015983239                                    701314833908/26/25SPE4A625T27LR.pdf  0000001EAKEYBOARD,DATA ENTRY  GOS78Z1N000
SPE4A625T31VZ3110004953052                                    701336956108/29/25SPE4A625T31VZ.pdf  0000069EABEARING,BALL,ANNULAR DBW00B1Y100
SPE4A625T31WA3120011850625                                    701336941808/29/25SPE4A625T31WA.pdf  0000228EABEARING,PLAIN,SELF-  DTF00C1Y100
SPE4A625T31WB3120015419068                                    701323238808/29/25SPE4A625T31WB.pdf  0000013EABUSHING,SLEEVE       DNY00D1N000
SPE4A625T31WC3120013847671                                    701337033008/29/25SPE4A625T31WC.pdf  0000194EABUSHING,SLEEVE       DNY00G1N000
SPE4A625T31WD3120014895438                                    701306438908/29/25SPE4A625T31WD.pdf  0000005EABUSHING,SLEEVE       DKH01G1N000
SPE4A625T31WE3110014519166                                    701337213908/29/25SPE4A625T31WE.pdf  0000045EABEARING,BALL,ANNULA  DEC00D1N000
SPE4A625T31WF5305016022920                                    701346675708/29/25SPE4A625T31WF.pdf  0000001EASCREW,MACHINE        DAJ00D1N000
SPE4A625T31WG6150016978662                                    701346584208/29/25SPE4A625T31WG.pdf  0000001EACABLE ASSEMBLY,SPEC  DAS02S1N000
SPE4A625T31WH3120016757294                                    701290088908/29/25SPE4A625T31WH.pdf  0000010EABEARING,SLEEVE       DCR00Q1N000
SPE4A625T31WJ5325016583475                                    701346600808/29/25SPE4A625T31WJ.pdf  0000002EAFASTENER TAPE,HOOK   GPP49Z1N000
SPE4A625T31WK5305016263356                                    701339614208/29/25SPE4A625T31WK.pdf  0000017EASCREW,CAP,HEXAGON H  GPP41C1N000
SPE4A625T31WL5310000586428                                    701347324408/29/25SPE4A625T31WL.pdf  0007567EANUT,PLAIN,EXTENDED   DAJ00B1N000
SPE4A625T31WM5325002764908                                    701347185808/29/25SPE4A625T31WM.pdf  0000336HDSTUD,SNAP FASTENER   DSY00G1N000
SPE4A625T31WN5320010247099                                    701347218308/29/25SPE4A625T31WN.pdf  0000033LBRIVET,SOLID          DJH02G1N000
SPE4A625T31WP5331010074895                                    701347031509/02/25SPE4A625T31WP.pdf  0000221EAO-RING               GPP29T1N000
SPE4A625T31WQ5355009213845                                    701347095009/02/25SPE4A625T31WQ.pdf  0000035EAKNOB                 GPP29G1N000
SPE4A625T31WR5306010583903                                    701346821308/29/25SPE4A625T31WR.pdf  0002500EABOL T,SHEAR          DTC01G1N000
SPE4A625T31WS5360010757691                                    701346958309/02/25SPE4A625T31WS.pdf  0000002EASPRING,HELICAL,COMP  GPP29G1N000
SPE4A625T31WT5365011189010                                    701346994508/29/25SPE4A625T31WT.pdf  0000170EASHIM                 DTH00P1N000
SPE4A625T31WU3110012225909                                    701347224508/29/25SPE4A625T31WU.pdf  0000044EABEARING, BALL, DUPLEXGPP19Q1N000
SPE4A625T31WV5320013116334                                    701347002708/29/25SPE4A625T31WV.pdf  0000121EARIVET,BLIND          DMJ00G1N000
SPE4A625T31WW5315013335724                                    701346814808/29/25SPE4A625T31WW.pdf  0000193EAPIN,GROOVED,HEADED   DSH01G1Y100
SPE4A625T31WX5340012509551                                    701347207309/02/25SPE4A625T31WX.pdf  0000083EASTANDOFF,THREADED,S  GPP29G1N000
SPE4A625T31WY6645013929615                                    701346990308/29/25SPE4A625T31WY.pdf  0000060EAMETER,TIME TOTALIZINGDJW02D1N000
SPE4A625T31WZ5305013811202                                    701347014308/29/25SPE4A625T31WZ.pdf  0002041EASCREW,CAP,HEXAGON HEADAJ00G1N000
SPE4A625T31XA6220014421071                                    701347227308/29/25SPE4A625T31XA.pdf  0000024EALIGHT,INDICATOR      DSM01L1N000
SPE4A625T31XB4920015764389                                    701346718708/29/25SPE4A625T31XB.pdf  0000087EACASE,TEST SET        GPP49D1L100
SPE4A625T31XC5315016283323                                    701347159308/29/25SPE4A625T31XC.pdf  0000045EAPIN,QUICK RELEASE    GPP29Q1N000
SPE4A625T31XD3120008219873                                    701347476208/29/25SPE4A625T31XD.pdf  0000001EABUSHING,SLEEVE       DAM01H1N000
SPE4A625T31XE5315013953589                                    701341402308/29/25SPE4A625T31XE.pdf  0000001EAPIN,STRAIGHT,HEADLE  DEM00D1N000
SPE4A625T31XF5970000809524                                    701341384208/29/25SPE4A625T31XF.pdf  0000003ROTAPE,INSULATION,ELE  DAP00G1N000
SPE4A625T31XG6695015804093                                    701341386108/29/25SPE4A625T31XG.pdf  0000058EATRANSDUCER,PRESSURE  DMB03R1Y100
SPE4A625T31XH3120015091438                                    701341394208/29/25SPE4A625T31XH.pdf  0000020EABUSHING,SLEEVE       DKH01D1N000
SPE4A625T31XJ6150012583718                                    701341393308/29/25SPE4A625T31XJ.pdf  0000001EACABLE ASSEMBLY,SPEC  DJF01C1N000
SPE4A625T31XK3110016442520                                    701341392808/29/25SPE4A625T31XK.pdf  0000001EABEARING,ROLLER,THRU  DJJ00Q1N000
SPE4A625T31XL5305016183545                                    701341386708/29/25SPE4A625T31XL.pdf  0000001EASCREW,MACHINE        DNK00D1N000
SPE4A625T31XM5995015384710                                    701341392408/29/25SPE4A625T31XM.pdf  0000001EACABLE ASSEMBLY,RADI  DPJ00Q1N000
SPE4A625T31XN5305016452647                                    701341409408/29/25SPE4A625T31XN.pdf  0000016EASCREW,MACHINE        DNK00D1N000
SPE4A625T31XP3120014228629                                    701341399808/29/25SPE4A625T31XP.pdf  0000001EABEARING,SLEEVE       DAT00L1N000
SPE4A625T31XQ6150016890013                                    701341393208/29/25SPE4A625T31XQ.pdf  0000001EABUS,CONDUCTOR        DBV00G1N000
SPE4A625T31XR3120012881565                                    701341393608/29/25SPE4A625T31XR.pdf  0000001EABEARING,PLAIN,ROD E  DEC00C1N000
SPE4A625T31XS5995015303602                                    701341392208/29/25SPE4A625T31XS.pdf  0000001EACABLE ASSEMBLY,SPEC  DCP00Q1N000
SPE4A625T31XT5995016019430                                    701340745808/29/25SPE4A625T31XT.pdf  0000080EACABLE ASSEMBLY,SPEC  DAB02Z1N000
SPE4A625T31XU5995016753858                                    701340750708/29/25SPE4A625T31XU.pdf  0000005EACABLE ASSEMBLY,SPEC  DLJ00D1N000
SPE4A625T31XU5995016753858                                    701343393808/29/25SPE4A625T31XU.pdf  0000002EACABLE ASSEMBLY,SPEC  DLJ00D1N000
SPE4A625T31XV5315016175915                                    701340742608/29/25SPE4A625T31XV.pdf  0000002EAPIN,QUICK RELEASE    DCM01D1N000
SPE4A625T31XW5970010850673                                    701340745708/29/25SPE4A625T31XW.pdf  0000065FTINSULATION SLEEVING  DSM01T1N000
SPE4A625T31XX5305012910691                                    701340744408/29/25SPE4A625T31XX.pdf  0000020EASCREW,CAP,HEXAGON H  DAW01G1N000
SPE4A625T31XY5320017187674                                    701340744308/29/25SPE4A625T31XY.pdf  0000001HDRIVET,BLIND          DDF00G1N000
SPE4A625T31XZ5970014385583                                    701340748308/29/25SPE4A625T31XZ.pdf  0000002ROTAPE,INSULATION,ELE  DCL01G1N000
SPE4A625T31XZ5970014385583                                    701347565408/29/25SPE4A625T31XZ.pdf  0000002ROTAPE,INSULATION,ELE  DCL01G1N000
SPE4A625T31YA3110001000640                                    701340964708/29/25SPE4A625T31YA.pdf  0000010EACUP,TAPERED ROLLER   DSD00D1N000
SPE4A625T31YB5320015698475                                    701340949408/29/25SPE4A625T31YB.pdf  0000001LBRIVET,SOLID          DDF00D1N000
SPE4A625T31YC5970014955211                                    701340948008/29/25SPE4A625T31YC.pdf  0000001ROTAPE,INSULATION,ELE  DPJ00G1N000
SPE4A625T31YC5970014955211                                    701340980608/29/25SPE4A625T31YC.pdf  0000001ROTAPE,INSULATION,ELE  DPJ00G1N000
SPE4A625T31YD1440015150132                                    701318412008/29/25SPE4A625T31YD.pdf  0000067EAHOUSING,DAMPENER,LA  DLH01C1Y100
SPE4A625T31YE3120015272025                                    701341413508/29/25SPE4A625T31YE.pdf  0000001EABUSHING,SLEEVE       DTF00D1N000
SPE4A625T31YF1440015150132                                    701318393908/29/25SPE4A625T31YF.pdf  0000069EAHOUSING,DAMPENER,LA  DLH01C1Y100
SPE4A625T31YG3110015871017                                    701340971908/29/25SPE4A625T31YG.pdf  0000003EABALL,BEARING         DJW02Q1N000
SPE4A625T31YH5995016800743                                    701340952308/29/25SPE4A625T31YH.pdf  0000001EACABLE ASSEMBLY,POWE  DNH00G1N000
SPE4A625T31YJ5320016080102                                    701340949508/29/25SPE4A625T31YJ.pdf  0000062EARIVET,BLIND          DSG00B1N000
SPE4A625T31YK5320011960267                                    701340949208/29/25SPE4A625T31YK.pdf  0000031EAPIN-RIVET            GWO26C1N000
SPE4A625T31YL5995017197795                                    701317889408/29/25SPE4A625T31YL.pdf  0000001EACABLE ASSEMBLY,SPEC  DEP00G1N000
SPE4A625T31YM5320016085740                                    701340949608/29/25SPE4A625T31YM.pdf  0000062EARIVET,BLIND          DSH01B1N000
SPE4A625T31YN6670015975743                                    701340978008/29/25SPE4A625T31YN.pdf  0000002EASCALE,WEIGHING       DSD00Z1N000
SPE4A625T31YP6150016744510                                    701340974708/29/25SPE4A625T31YP.pdf  0000001EAWIRING HARNESS,BRAN  DPJ00G1N000
SPE4A625T31YQ4920016056588                                    701340948508/29/25SPE4A625T31YQ.pdf  0000002EARAIL ASSEMBLY        GPP49D1N000
SPE4A625T31YR6680016412119                                    701340971208/29/25SPE4A625T31YR.pdf  0000001EAINDICATOR,LIQUID QU  DJJ00R1N000
SPE4A625T31YS5995017055415                                    701340954408/29/25SPE4A625T31YS.pdf  0000001EACABLE ASSEMBLY,SPEC  DVB00G1N000
SPE4A625T31YT5340010446499                                    701301007209/02/25SPE4A625T31YT.pdf  0000280EABUMPER               GPP29G1N000
SPE4A625T31YU00NQ8100X811                                     701344457908/29/25SPE4A625T31YU.pdf  0000001EAINSTRUMENTATION I ISTGPP49H2N000
SPE4A625T31YV00NQ8100X811                                     701344517008/29/25SPE4A625T31YV.pdf  0000001EAINSTRUMENTATION I ISTGPP49H2N000
SPE4A625T31YW3130008385641                                    701336851308/29/25SPE4A625T31YW.pdf  0000402EABEARING UNIT,ROLLER  DSD00C1Y100
SPE4A625T31YX5305002071787                                    701346828708/29/25SPE4A625T31YX.pdf  0000895HDSCREW,MACHINE        DDF00G1H100
SPE4A625T31YY64083VGMS2304                                    701344378308/29/25SPE4A625T31YY.pdf  0000015EAINSTRUMENTATION I ISTGPP49H2N000
SPE4A625T31YZ3120009679907                                    701342915008/29/25SPE4A625T31YZ.pdf  0000010EABUSHING,SLEEVE       GPP19C1N000
SPE4A625T31ZA3130009435006                                    701343158608/29/25SPE4A625T31ZA.pdf  0000109EABEARING UNIT,PLAIN   GPP19C1N000
SPE4A625T31ZB3110012236643                                    701336957708/29/25SPE4A625T31ZB.pdf  0000005EABEARING,BALL,ANNULA  DSD00D1N000
SPE4A625T31ZC3120011819809                                    701336934508/29/25SPE4A625T31ZC.pdf  0000003SEBEARING SET,SLEEVE   GPP19D1N000
SPE4A625T31ZD5310014935308                                    701342984908/29/25SPE4A625T31ZD.pdf  0000024HDWASHER,LOCK          GPP35G1N000
SPE4A625T31ZE3120016192520                                    701343002308/29/25SPE4A625T31ZE.pdf  0000001EABEARING,PLAIN,SPHER  DJJ00Q1N000
SPE4A625T31ZF3110015020700                                    701343051408/29/25SPE4A625T31ZF.pdf  0000007EABEARING,BALL,INNER   GPP79Q1N000
SPE4A625T31ZG5120016026301                                    701343043208/29/25SPE4A625T31ZG.pdf  0000014EALONG SLEEVE MANDREL  DAJ00G1N000
SPE4A625T31ZH3110016957107                                    701343086708/29/25SPE4A625T31ZH.pdf  0000048EABEARING,BALL,AIRFRA  GPP19C1N000
SPE4A625T31ZJ5306012163994                                    701337946108/29/25SPE4A625T31ZJ.pdf  0000435EABOLT,TEE HEAD        DTG00C1N000
SPE4A625T31ZK3130013042951                                    701323155208/29/25SPE4A625T31ZK.pdf  0000004EABEARING UNIT,PLAIN   DKZ00G1N000
SPE4A625T31ZL3120013214827                                    701344923708/29/25SPE4A625T31ZL.pdf  0000030EABEARING,PLAIN,SELF-  DTF00B1N000
SPE4A625T31ZM3120013424678                                    701193564708/29/25SPE4A625T31ZM.pdf  0000119EABUSHING,SLEEVE       DKR00G1N000
SPE4A625T31ZN3110005299201                                    701342973708/29/25SPE4A625T31ZN.pdf  0000143EABEARING, BALL, ROD ENGPP79G1N000
SPE4A625T31ZP5970012911499                                    701341799008/29/25SPE4A625T31ZP.pdf  0000001EAINSULATOR,PLATE      DLJ00G1N000
SPE4A625T31ZQ4820012610339                                    701306411908/29/25SPE4A625T31ZQ.pdf  0000063EABODY,VALVE           DDJ00P1N000
SPE4A625T31ZR5305015546624                                    701342977008/29/25SPE4A625T31ZR.pdf  0000164EASCREW,CAP,HEXAGON H  PARFER1N000
SPE4A625T31ZS5305012900846                                    701224969708/29/25SPE4A625T31ZS.pdf  0000117EASETSCREW             DNK00G1N000
SPE4A625T31ZT5970011870335                                    701336951108/29/25SPE4A625T31ZT.pdf  0001401EAINSULATOR,CONTACT    DMJ01G1N000
SPE4A625T31ZU5305016310408                                    701342979308/29/25SPE4A625T31ZU.pdf  0000019EASCREW,CAP,HEXAGON H  GPP35D1N000
SPE4A625T31ZV5306002982815                                    701343156808/29/25SPE4A625T31ZV.pdf  0001197EABOLT,CLOSE TOLERANC  DPH00G1N000
SPE4A625T31ZW5305016229220                                    701343008808/29/25SPE4A625T31ZW.pdf  0000166EASCREW,MACHINE        DAJ00G1N000
SPE4A625T31ZX3120010779804                                    701348024208/29/25SPE4A625T31ZX.pdf  0000001EABUSHING,SLEEVE       DJL02G1N000
SPE4A625T31ZY4010016738171                                    701348053308/29/25SPE4A625T31ZY.pdf  0000005EAWIRE ROPE ASSEMBLY,  GPP49C1N000
SPE4A625T31ZZ5995200099346                                    701268664608/29/25SPE4A625T31ZZ.pdf  0000066EACABLE ASSEMBLY,SPEC  DNH00D1Y100
SPE4A625T32AA5310005160525                                    701342967908/29/25SPE4A625T32AA.pdf  0000006EAWASHER,FLAT          DMW01C1N000
SPE4A625T32AB5320010955771                                    701275308008/29/25SPE4A625T32AB.pdf  0000041EAPIN-RIVET            DDF00G1N000
SPE4A625T32AC5306012703022                                    701343069608/29/25SPE4A625T32AC.pdf  0000008EABOLT,INTERNALLY REL  DMC01C1N000
SPE4A625T32AD5310011233508                                    701343007308/29/25SPE4A625T32AD.pdf  0000008EANUT,PLAIN,CAP        GPP35C1N000
SPE4A625T32AE3120012919129                                    701333944908/29/25SPE4A625T32AE.pdf  0000182EABUSHING,SLEEVE       DAT00G1N000
SPE4A625T32AF3130008385639                                    701306458708/29/25SPE4A625T32AF.pdf  0000024EABEARING UNIT,ROLLER  DKH01P1Y100
SPE4A625T32AG1420014664223                                    701342891008/29/25SPE4A625T32AG.pdf  0000049EAPELLET,LOCKING       PARFEG1N000
SPE4A625T32AH3120014849693                                    701333336908/29/25SPE4A625T32AH.pdf  0000056EABEARING,SLEEVE       DCR00G1N000
SPE4A625T32AJ5306013550205                                    701343033908/29/25SPE4A625T32AJ.pdf  0000009EABOLT,CLOSE TOLERANC  DTC01H1N000
SPE4A625T32AK3120010099853                                    701329818108/29/25SPE4A625T32AK.pdf  0000015EABUSHING,SLEEVE       DBW00C1N000
SPE4A625T32AL5320014154469                                    701275472208/29/25SPE4A625T32AL.pdf  0000357EAPIN-RIVET            GWO26G1Y100
SPE4A625T32AM3120017244484                                    701333254108/29/25SPE4A625T32AM.pdf  0000018EABUSHING,SLEEVE       DRB00C1N000
SPE4A625T32AN1680994168808                                    701343171008/29/25SPE4A625T32AN.pdf  0000053EAHANDLE ASSSEMBLY,SP  DAB02R1N000
SPE4A625T32AP1560015602891                                    701333120908/29/25SPE4A625T32AP.pdf  0000003EAHINGE,DOOR,AIRCRAFT  DJS03D1N000
SPE4A625T32AQ5310013897693                                    701333362408/29/25SPE4A625T32AQ.pdf  0000082EANUT,SELF-LOCKING,HE  DMG01D1N000
SPE4A625T32AR3120016247495                                    701333234308/29/25SPE4A625T32AR.pdf  0000010EABUSHING,SLEEVE       DCR00G1N000
SPE4A625T32AS5305016431307                                    701342989308/29/25SPE4A625T32AS.pdf  0000019EASCREW,CAP,HEXAGON H  DAJ00G1N000
SPE4A625T32AT1560014240476                                    701333317108/29/25SPE4A625T32AT.pdf  0000037EASUPPORT,STRUCTURAL   DTB01C1N000
SPE4A625T32AU5320016273159                                    701348057008/29/25SPE4A625T32AU.pdf  0001178EARIVET,BLIND          DAS01C1N000
SPE4A625T32AV5305014146511                                    701339652308/29/25SPE4A625T32AV.pdf  0000018EASCREW,CAP,HEXAGON H  DAS02R1N000
SPE4A625T32AW3120016282383                                    701333223608/29/25SPE4A625T32AW.pdf  0000004EABEARING,SLEEVE       DRB00Q1N000
SPE4A625T32AX5310016708462                                    701323332608/29/25SPE4A625T32AX.pdf  0000013EANUT,PLAIN,HEXAGON    DSS02R1N000
SPE4A625T32AY5310016910609                                    701343072008/29/25SPE4A625T32AY.pdf  0000044EAWASHER,FLAT          GPP35G1N000
SPE4A625T32AZ5306001825196                                    701343969808/29/25SPE4A625T32AZ.pdf  0000001EABOLT,SHOULDER        DTM01G1N000
SPE4A625T32BA5310011350116                                    701342994608/29/25SPE4A625T32BA.pdf  0000007EANUT,PLAIN,HEXAGON    DMB03G1N000
SPE4A625T32BB5325016321658                                    701318158708/29/25SPE4A625T32BB.pdf  0000001EALATCH GUIDE,SNAPSLI  DDF00G1N000
SPE4A625T32BC5306011472441                                    701331696808/29/25SPE4A625T32BC.pdf  0000001EABOLT,SHOULDER        DTJ00G1N000
SPE4A625T32BD1680997536623                                    701343183408/29/25SPE4A625T32BD.pdf  0000023EACUSHION,SEAT,AIRCRA  DAB02C1Y100
SPE4A625T32BE5305017237636                                    701304426908/29/25SPE4A625T32BE.pdf  0000006EASCREW,CAP,HEXAGON H  DCC02G1N000
SPE4A625T32BF1650013163130                                    701333619608/29/25SPE4A625T32BF.pdf  0000047EAFILTER,FLUID         DCL01D1N000
SPE4A625T32BG5305015306567                                    701337504108/29/25SPE4A625T32BG.pdf  0000005EASCREW,CLOSE TOLERAN  DMH01Q1N000
SPE4A625T32BG5305015306567                                    701337505208/29/25SPE4A625T32BG.pdf  0000003EASCREW,CLOSE TOLERAN  DMH01Q1N000
SPE4A625T32BH5305016200421                                    701331298008/29/25SPE4A625T32BH.pdf  0000008EASCREW,CAP,HEXAGON H  DAS02G1N000
SPE4A625T32BJ5310014681794                                    701290022908/29/25SPE4A625T32BJ.pdf  0000072EAWASHER,LOCK          DMG01D1N000
SPE4A625T32BK4920014949167                                    700899527308/29/25SPE4A625T32BK.pdf  0000001EAFIXTURE,AIRCRAFT MA  GPP49D1N000
SPE4A625T32BL1560017069295                                    701333270908/29/25SPE4A625T32BL.pdf  0000004EASUPPORT,STRUCTURAL   DJS03C1N000
SPE4A625T32BM3120017320577                                    701333118208/29/25SPE4A625T32BM.pdf  0000004EABEARING,SLEEVE       DKR00Q1N000
SPE4A625T32BN6230014351841                                    701341413808/29/25SPE4A625T32BN.pdf  0000001EAFLOODLIGHT,ELECTRIC  DML01Z1N000
SPE4A625T32BP5306003695802                                    701341837508/29/25SPE4A625T32BP.pdf  0000015EABOLT,SHOULDER        DTC01G1N000
SPE4A625T32BP5306003695802                                    701341961208/29/25SPE4A625T32BP.pdf  0000002EABOLT,SHOULDER        DTC01G1N000
SPE4A625T32BQ5315007023185                                    701340210908/29/25SPE4A625T32BQ.pdf  0000007EAPIN,QUICK RELEASE    DEM00G1N000
SPE4A625T32BQ5315007023185                                    701340290008/29/25SPE4A625T32BQ.pdf  0000001EAPIN,QUICK RELEASE    DEM00G1N000
SPE4A625T32BR3110001002364                                    701275233908/29/25SPE4A625T32BR.pdf  0000160EABEARING,BALL,ANNULAR DEC00Q1N000
SPE4A625T32BS3110001556165                                    701275536008/29/25SPE4A625T32BS.pdf  0000013EABEARING,BALL,ANNULA  DEC00G1N000
SPE4A625T32BT3110001177278                                    701337209108/29/25SPE4A625T32BT.pdf  0000007EABEARING,BALL,ANNULA  DKR00B1N000
SPE4A625T32BU3110002786904                                    701343151808/29/25SPE4A625T32BU.pdf  0000048EABEARING, BALL, ANNULADJL02G1R100
SPE4A625T32BV5310012813467                                    701343909308/29/25SPE4A625T32BV.pdf  0000329EAWASHER,KEY           DMH01G1N000
SPE4A625T32BW3110006302279                                    701348150508/29/25SPE4A625T32BW.pdf  0000003EABEARING, BALL, ANNULADKR00B1N000
SPE4A625T32BX3110008438410                                    701342989208/29/25SPE4A625T32BX.pdf  0000024EABEARING,ROLLER,NEED  DMW01L1N000
SPE4A625T32BY5320006850822                                    701342901808/29/25SPE4A625T32BY.pdf  0000016LBRIVET,SOLID          DSH01G1N000
SPE4A625T32BZ5306009409125                                    701343154608/29/25SPE4A625T32BZ.pdf  0000270EABOLT,MACHINE         DMC01G1N000
SPE4A625T32CA3120010076914                                    701342900708/29/25SPE4A625T32CA.pdf  0000003EABEARING              DJW02Q1Y100
SPE4A625T32CB5320011016109                                    701342976408/29/25SPE4A625T32CB.pdf  0000409EAPIN-RIVET            DCM01C1N000
SPE4A625T32CC5306012399406                                    701343018408/29/25SPE4A625T32CC.pdf  0008834EABOLT,SHEAR           DTC01G1Y100
SPE4A625T32CD5306003404714                                    701342961808/29/25SPE4A625T32CD.pdf  0000951EABOLT,SHEAR           DPH00G1N000
SPE4A625T32CE1420017148952                                    701348037308/29/25SPE4A625T32CE.pdf  0000015EACABLE ASSEMBLY,SPEC  DXK00G1N000
SPE4A625T32CF3110011721804                                    701342940708/29/25SPE4A625T32CF.pdf  0000061EABALL,BEARING         DJL02D1N000
SPE4A625T32CG3110151221499                                    701249042008/29/25SPE4A625T32CG.pdf  0000019EABEARING,BALL,ANNULA  GPP42Q1N000
SPE4A625T32CH5310010561217                                    701343095408/29/25SPE4A625T32CH.pdf  0000001EANUT,SLEEVE           DMB03D1N000
SPE4A625T32CJ3110013353425                                    701343041708/29/25SPE4A625T32CJ.pdf  0000009EABEARING,BALL,ANNULA  DTF00D1N000
SPE4A625T32CK5310999474205                                    701343183908/29/25SPE4A625T32CK.pdf  0000572EAWASHER,FLAT          DAA00R1Y100
SPE4A625T32CL5310011456103                                    701342927308/29/25SPE4A625T32CL.pdf  0000046EAWASHER,LOCK          DAJ00L1N000
SPE4A625T32CM5306013825019                                    701342903008/29/25SPE4A625T32CM.pdf  0000345EABOLT,MACHINE         DPH00G1N000
SPE4A625T32CN5320009296495                                    701348150408/29/25SPE4A625T32CN.pdf  0000100EAPIN-RIVET            DJH02G1N000
SPE4A625T32CP3120012604803                                    701337225408/29/25SPE4A625T32CP.pdf  0000002EABEARING,PLAIN,SPHER  DJL02G1N000
SPE4A625T32CQ5305013434214                                    701343041208/29/25SPE4A625T32CQ.pdf  0000058EASCREW,CAP,SOCKET HE  DHH00G1N000
SPE4A625T32CR1560013806824                                    701342897308/29/25SPE4A625T32CR.pdf  0000008EAFITTING,STRUCTURAL   DTA00Q1N000
SPE4A625T32CS3120013774411                                    701345778808/29/25SPE4A625T32CS.pdf  0000243EABEARING, PLAIN, SELF-DMW01B1N000
SPE4A625T32CT3110013932511                                    701337006308/29/25SPE4A625T32CT.pdf  0000033EABEARING,BALL,ANNULAR DMW01B1N000
SPE4A625T32CU3110013980154                                    701302721008/29/25SPE4A625T32CU.pdf  0000406EACONE AND ROLLERS,TA  DBW00B1N000
SPE4A625T32CV5320017318103                                    701342913508/29/25SPE4A625T32CV.pdf  0000020EAPIN-RIVET            DSG00C1N000
SPE4A625T32CW3110014781643                                    701325655608/29/25SPE4A625T32CW.pdf  0000039EABEARING,BALL,ANNULA  DSD00B1Y100
SPE4A625T32CX5306015953802                                    700978994008/29/25SPE4A625T32CX.pdf  0000016EABOLT,MACHINE         DMC01C1N000
SPE4A625T32CY3110014862480                                    701333336208/29/25SPE4A625T32CY.pdf  0000098EACUP,TAPERED ROLLER   DQM00R1N000
SPE4A625T32CZ1680997332813                                    701337042908/29/25SPE4A625T32CZ.pdf  0000110EACOVER,SEAT CUSHION,  DAB02C1L100
SPE4A625T32DA5320008135450                                    701342378008/29/25SPE4A625T32DA.pdf  0000450EARIVET,BLIND          DAS01G1N000
SPE4A625T32DB5305010825312                                    701343048008/29/25SPE4A625T32DB.pdf  0000070PGSCREW,MACHINE        DAS02G1N000
SPE4A625T32DC5320014649293                                    701348090308/29/25SPE4A625T32DC.pdf  0000001HDRIVET,BLIND          DJH02L1N000
SPE4A625T32DD3120011733765                                    701275380808/29/25SPE4A625T32DD.pdf  0000013EABEARING,PLAIN,ROD E  DEC00P1N000
SPE4A625T32DE3120012152575                                    701336898008/29/25SPE4A625T32DE.pdf  0000012EABEARING,PLAIN,ROD ENDDAM01B1N000
SPE4A625T32DF5320013069804                                    701337110108/29/25SPE4A625T32DF.pdf  0000106EARIVET,BLIND          DSG00G1N000
SPE4A625T32DG5305015011413                                    701343051008/29/25SPE4A625T32DG.pdf  0000086EASCREW,CAP,HEXAGON H  DHH00G1N000
SPE4A625T32DH5310017258924                                    701342882908/29/25SPE4A625T32DH.pdf  0000010EANUT,SELF-LOCKING,PL  PARFEC1N000
SPE4A625T32DJ5306005848372                                    701323470908/29/25SPE4A625T32DJ.pdf  0000236EABOL T,SHEAR          PARFJG1N000
SPE4A625T32DK5310010610408                                    701343019308/29/25SPE4A625T32DK.pdf  0000065EAWASHER,THRUST        GPP35R1N000
SPE4A625T32DL5306010812372                                    701275442708/29/25SPE4A625T32DL.pdf  0000136EABOLT,SHOULDER        PARFJG1N000
SPE4A625T32DM5310013435712                                    701343027008/29/25SPE4A625T32DM.pdf  0000638EANUT,SELF-LOCKING,HE  DAS02G1N000
SPE4A625T32DN5310013842507                                    701342843808/29/25SPE4A625T32DN.pdf  0000841EANUT,PLAIN,HEXAGON    DAJ00Z1N000
SPE4A625T32DP3120009902101                                    701342894908/29/25SPE4A625T32DP.pdf  0000016EABUSHING,SLEEVE       GPP79G1N000
SPE4A625T32DQ5320013995814                                    701343111208/29/25SPE4A625T32DQ.pdf  0000494EAPIN-RIVET            DCM01L1N000
SPE4A625T32DR5320014983721                                    701342984708/29/25SPE4A625T32DR.pdf  0000261EARIVET,BLIND          DSH01C1N000
SPE4A625T32DS5310013550866                                    701323469508/29/25SPE4A625T32DS.pdf  0000003EANUT,PLAIN,HEXAGON    DEE00G1N000
SPE4A625T32DT5310016031771                                    701323273808/29/25SPE4A625T32DT.pdf  0000157EANUT,SELF-LOCKING,HE  DMB02G1N000
SPE4A625T32DU5310016451321                                    701343034008/29/25SPE4A625T32DU.pdf  0000239EAWASHER,FLAT          DAS02D1N000
SPE4A625T32DV1440010181021                                    701259343008/29/25SPE4A625T32DV.pdf  0000008EARETAINER,CELL COVER  DAS02C1N000
SPE4A625T32DW3120006614230                                    701180054108/29/25SPE4A625T32DW.pdf  0000002EABEARING,SLEEVE       DCY00H1N000
SPE4A625T32DX2840011273190                                    701290099808/29/25SPE4A625T32DX.pdf  0000030EAFITTING,TUBE         DJT02C1N000
SPE4A625T32DY5315016190954                                    701272898808/29/25SPE4A625T32DY.pdf  0000001EAKEY,MACHINE          DAS01R1N000
SPE4A625T32DZ5305016455118                                    701341955108/29/25SPE4A625T32DZ.pdf  0000002EASCREW,MACHINE        DXK00Q1N000
SPE4A625T32DZ5305016455118                                    701341955308/29/25SPE4A625T32DZ.pdf  0000002EASCREW,MACHINE        DXK00Q1N000
SPE4A625T32EA5310016002417                                    701343063808/29/25SPE4A625T32EA.pdf  0000556EAWASHER,FLAT          DMB03L1N000
SPE4A625T32EB5310011827700                                    701343092808/29/25SPE4A625T32EB.pdf  0000193EANUT,SELF-LOCKING,HE  DAJ00G1N000
SPE4A625T32EC3120012444598                                    701155052808/29/25SPE4A625T32EC.pdf  0000070EABUSHING,SLEEVE       GPP42G1N000
SPE4A625T32ED3120012858849                                    701336849808/29/25SPE4A625T32ED.pdf  0000057EABEARING,SLEEVE       DKZ00B1N000
SPE4A625T32EE5306013830762                                    701341386808/29/25SPE4A625T32EE.pdf  0000001EABOLT,MACHINE         DDF00G1N000
SPE4A625T32EF6150017016053                                    701340958508/29/25SPE4A625T32EF.pdf  0000001EACABLE ASSEMBLY,SPEC  GPP24Q1N000
SPE4A625T32EG5320016668279                                    701333167508/29/25SPE4A625T32EG.pdf  0000221EARIVET,BLIND          DDF00D1N000
SPE4A625T32EH5995017217801                                    701323770608/29/25SPE4A625T32EH.pdf  0000001EACABLE ASSEMBLY,SPEC  DWC00G1N000
SPE4A625T32EH5995017217801                                    701341384908/29/25SPE4A625T32EH.pdf  0000001EACABLE ASSEMBLY,SPEC  DWC00G1N000
SPE4A625T32EJ6210012850230                                    701142772508/29/25SPE4A625T32EJ.pdf  0000005EALENS,LIGHT           DAB02G1N000
SPE4A625T32EK5320013737311                                    701264411308/29/25SPE4A625T32EK.pdf  0000681EARIVET,BLIND          DCM01G1N000
SPE4A625T32EL5310016031454                                    701294761408/29/25SPE4A625T32EL.pdf  0000100EANUT,SELF-LOCKING,GA  DML01D1N000
SPE4A625T32EM5970200047281                                    701336038308/29/25SPE4A625T32EM.pdf  0000001EAINSULATOR,BUSHING    DCL01D1N000
SPE4A625T32EN5320015307179                                    701333143808/29/25SPE4A625T32EN.pdf  0001692EARIVET,BLIND          DDF00G1N000
SPE4A625T32EP5306011264567                                    701324610108/29/25SPE4A625T32EP.pdf  0000001EABOLT,SHOULDER        DDW01G1N000
SPE4A625T32EP5306011264567                                    701331698108/29/25SPE4A625T32EP.pdf  0000001EABOLT,SHOULDER        DDW01G1N000
SPE4A625T32EQ6610011893001                                    701343071408/29/25SPE4A625T32EQ.pdf  0000190EAKIT,PROTECTIVE COVE  GPP79P1Y100
SPE4A625T32ER3120012562313                                    701214982408/29/25SPE4A625T32ER.pdf  0000302EABUSHING,SLEEVE       DMW01G1N000
SPE4A625T32ES3120000395236                                    701314838808/29/25SPE4A625T32ES.pdf  0000001EABUSHING,SLEEVE       DKH01C1N000
SPE4A625T32ET5310013251830                                    701338113908/29/25SPE4A625T32ET.pdf  0000004EANUT,PLAIN,BLIND RIV  DLH01G1N000
SPE4A625T32EU5320013650500                                    701343174308/29/25SPE4A625T32EU.pdf  0002368EARIVET,BLIND          DSG00G1N000
SPE4A625T32EV5320016158398                                    701343362508/29/25SPE4A625T32EV.pdf  0000100EARIVET,BLIND          DJH02C1N000
SPE4A625T32EW5310014175192                                    701341877808/29/25SPE4A625T32EW.pdf  0000092EANUT,PLAIN,ROUND      DAW01G1N000
SPE4A625T32EX5310015485646                                    701294959608/29/25SPE4A625T32EX.pdf  0000050EAWASHER,FLAT          DNK00G1N000
SPE4A625T32EY5315015836662                                    701291931808/29/25SPE4A625T32EY.pdf  0000002EAKEY,MACHINE          GWO26Q1N000
SPE4A625T32EZ0HS46TWG2411A                                    701344385508/29/25SPE4A625T32EZ.pdf  0000006EAINSTRUMENTATION I ISTGPP49H2N000
SPE4A625T32FA5120000847627                                    701348037108/29/25SPE4A625T32FA.pdf  0000020EAREMOVER AND REPLACE  DMW01G1N000
SPE4A625T32FB0HS46TWG14740                                    701345746008/29/25SPE4A625T32FB.pdf  0000001EAINSTRUMENTATION I ISTGPP49H2N000
SPE4A625T32FC0HS46TWG2202                                     701344385708/29/25SPE4A625T32FC.pdf  0000001EAINSTRUMENTATION I ISTGPP49H2N000
SPE4A625T32FD0HS46TWG2447                                     701344385808/29/25SPE4A625T32FD.pdf  0000010EAINSTRUMENTATION I ISTGPP49H2N000
SPE4A625T32FE0HS46TWG8036                                     701344632808/29/25SPE4A625T32FE.pdf  0000010EAINSTRUMENTATION I ISTGPP49H2N000
SPE4A625T32FF5320014178586                                    701348150708/29/25SPE4A625T32FF.pdf  0000013EAPIN-RIVET            DEM00L1N000
SPE4A625T32FG1680011618318                                    701342953208/29/25SPE4A625T32FG.pdf  0000016EAFITTING ASSEMBLY,MI  DTA00L1N000
SPE4A625T32FH0HS46TWG2573A                                    701344309708/29/25SPE4A625T32FH.pdf  0000001EAINSTRUMENTATION I ISTGPP49H2N000
SPE4A625T32FJ0HS46TWG2396                                     701344385308/29/25SPE4A625T32FJ.pdf  0000005EAINSTRUMENTATION I ISTGPP49H2N000
SPE4A625T32FK0HS46TWG2707A                                    701344385208/29/25SPE4A625T32FK.pdf  0000050EAINSTRUMENTATION I ISTGPP49H2N000
SPE4A625T32FL0HS46TWG2401                                     701344385108/29/25SPE4A625T32FL.pdf  0000010EAINSTRUMENTATION I ISTGPP49H2N000
SPE4A625T32FM0HS46TWG2618                                     701344309908/29/25SPE4A625T32FM.pdf  0000010EAINSTRUMENTATION I ISTGPP49H2N000
SPE4A625T32FN0HS46TWG2465                                     701344309808/29/25SPE4A625T32FN.pdf  0000006EAINSTRUMENTATION I ISTGPP49H2N000
SPE4A625T32FP5315015997807                                    701259375408/29/25SPE4A625T32FP.pdf  0000600EAPIN,SPRING           DSG00D1N000
SPE4A625T32FQ1680016523823                                    701343010208/29/25SPE4A625T32FQ.pdf  0000006EARESTRAINT SYSTEM     DAB02D1N000
SPE4A625T32FR6250017297340                                    701335395708/29/25SPE4A625T32FR.pdf  0000002EALAMPHOLDER           DKF00Q1N000
SPE4A625T32FS5310015260457                                    701348152908/29/25SPE4A625T32FS.pdf  0000194HDNUT,PLAIN,HEXAGON    DDB02R1N000
SPE4A625T32FT6150013408828                                    701340971508/29/25SPE4A625T32FT.pdf  0000003EAPOWER STRIP,ELECTRI  DKW00H1N000
SPE4A625T32FU5320016477300                                    701298372208/29/25SPE4A625T32FU.pdf  0000018EARIVET,BLIND          DSG00D1N000
SPE4A625T32FV5940013757672                                    701348227908/29/25SPE4A625T32FV.pdf  0000020EASPLICE,CONDUCTOR     DRE00C1N000
SPE4A625T32FW1680001152912                                    701343198008/29/25SPE4A625T32FW.pdf  0000007EADROGUE LINE,SEAT     DAB02C1N000
SPE4A625T32FX5310011857192                                    701333291508/29/25SPE4A625T32FX.pdf  0000429EANUT,PLAIN,HEXAGON    DAW01G1N000
SPE4A625T32FY5310010932471                                    701343030308/29/25SPE4A625T32FY.pdf  0000003BXNUT,SELF-LOCKING,DO  DMB02C1N000
SPE4A625T32FZ5305012053419                                    701343101008/29/25SPE4A625T32FZ.pdf  0000077EASETSCREW             DAA00C1N000
